:020000040800F2
:10000000400A002045010008C71C00089518000898
:10001000C51C00081D0200086B200008000000003D
:10002000000000000000000000000000CB1C0008E1
:100030001F02000800000000C91C0008CD1C0008B9
:100040005F0100085F0100085F0100085F01000810
:100050005F0100085F0100085F0100085F01000800
:100060005F0100085F0100085F0100085F010008F0
:100070005F0100085F0100085F0100085F010008E0
:100080005F0100085F0100085F0100085F010008D0
:100090005F0100085F0100085F0100085F010008C0
:1000A0005F0100085F0100085F0100085F010008B0
:1000B000191D00085F0100085F0100085F010008CA
:1000C0005F0100085F0100085F0100085F01000890
:1000D0005F0100085F0100085F0100085F01000880
:1000E0005F0100085F0100085F0100085F01000870
:1000F0005F0100085F0100085F0100085F01000860
:100100005F0100085F0100085F0100085F0100084F
:100110005F0100085F010008251D00085F0100085D
:100120005F0100085F0100085F0100085F0100082F
:10013000DFF80CD000F060F80048004745250008C3
:10014000400A00200648804706480047FEE7FEE7D1
:10015000FEE7FEE7FEE7FEE7FEE7FEE7FEE7FEE777
:10016000171D00083101000840EA01039B0703D076
:1001700009E008C9121F08C0042AFAD203E011F8E6
:10018000013B00F8013B521EF9D27047D2B201E0A8
:1001900000F8012B491EFBD270470022F6E710B58C
:1001A00013460A4604461946FFF7F0FF204610BDE5
:1001B00010B5002200E0521C835C8C5CA34201D18C
:1001C000002BF8D1D8B2E1B2401A10BD30B50B46C1
:1001D000014600202022012409E021FA02F59D4277
:1001E00005D303FA02F5491B04FA02F52844151E4B
:1001F000A2F10102F1DC30BD064C074D06E0E068DB
:1002000040F0010394E8070098471034AC42F6D35D
:10021000FFF792FF383E0008583E0008FEE770479F
:100220000B78022B01D100F03DB87047012181729B
:100230000178022901D100F069B8704770B50078E3
:1002400009781446B0FBF1F2DDE9045601FB120017
:10025000002817D1207859780028187803D002F0A8
:10026000B1FA012302E002F0ADFA0023324629463A
:1002700005A002F033FB2078C0432070BDE8704039
:1002800002F0A6BA70BD000020000000022101703B
:1002900003A1416000210172012242728172704704
:1002A0006D0000007CB516480025144605704570A9
:1002B00014A11046FFF77CFF0100134814D02178E9
:1002C00064290AD00095D0E900120D4B204600F0B9
:1002D000E9F8BDE87C4002F07BBAD0E900120123C6
:1002E000074800F0A1F8F4E7D0E90010044BCDE98D
:1002F00000105A1E911E481CFFF7A0FF7CBD000095
:10030000410000205A00000028000020F8B52B4EC4
:100310000027012537707770384602F0D3F902F0D4
:1003200057FA02207070264C00953346D4E900122B
:1003300024A000F0B7F8D4E900122B46304600F0B4
:1003400073F877700095D4E90012334622A000F0CC
:10035000A9F8D4E900122B46304600F065F8707811
:100360003346001D70700095D4E900121EA000F005
:1003700099F8D4E900122B46304600F055F8009564
:10038000D4E9001233461CA000F08CF8D4E9001226
:100390002B46304600F048F80095D4E90012334669
:1003A00018A000F07FF8D4E900122B46304600F088
:1003B0003BF8BDE8F84002F00BBA00004100002015
:1003C000280000205F5F5F5F5F5F5F5F5F5F5F5F71
:1003D0005F5F5F5F000000007072657373206E7571
:1003E0006D6265723A000000312E207365742073CF
:1003F0007065656400000000322E2070726F6772B5
:10040000616D0000332E2061626F75740000000082
:1004100010B5012002F056F90021084602F0D2F989
:10042000BDE8104002F0D4B92DE9F0410D46044674
:1004300041781E461746007802F0C4F933463A4622
:10044000294605A002F04AFA607800EB152060709A
:1004500000202070BDE8F081200000003FB589B089
:1004600005460FA40AA8FFF7E1FE06E004A801F084
:1004700061FF04A801F028FF044620785A28F5D02F
:1004800022460AA901A8FFF7CBFE01AB93E80700BB
:100490009DF83230002BF0D185E807000DB030BD5B
:1004A0005A0000002DE9F0410E4680461C461746D2
:1004B00059781878069D02F085F92B463A46314660
:1004C000404602F00BFA2046BDE8F04102F00AB9BE
:1004D00070B5044600F01CF90546601C02D00448C3
:1004E0000078044400F014F9401BA042FAD370BD18
:1004F000180000202DE9F84FDFF8C891002409F119
:10050000040A0AF1040B23460F270BF1040ED1E075
:100510000125A54006EA0502AA4276D1DFF8A8C166
:100520004E68A6EB0C0866452BD00DDC032E34D0AC
:1005300005DC36B3012E19D0022E2FD11BE0112E6F
:1005400016D0122E2AD119E0B8F5881F19D006DC72
:10055000B8F5803F15D0B8F5801F1FD111E0B8F570
:10056000001F0ED0B8F5041F18D10AE0CB6815E0C3
:10057000CB681B1D12E0CB6808330FE0CB680C334F
:100580000CE08B682BB1012B4FF0080303D04561C1
:1005900004E0042302E0056100E00023FF2A01D803
:1005A000064601E000F104064FEA840501D9A5F1F1
:1005B0002005D6F8008007FA05FC28EA0C0803FAA3
:1005C00005F548EA0508C6F800804D68ED0070D5CD
:1005D0003E4DAE6946F00106AE61AD6924F00306FA
:1005E00005F0010500953A4D06EB050CDCF80850C6
:1005F000A607360F07FA06F825EA0805DFF8D480C3
:10060000404503D14FF0000825E052E0DFF8C880F4
:10061000404502D14FF001081DE0DFF8C0804045A1
:1006200002D14FF0020816E0DFF8B480404502D155
:100630004FF003080FE0DFF8AC80404502D14FF0E7
:10064000040808E0DFF8A080404502D14FF005081B
:1006500001E04FF0060808FA06F848EA0508CCF869
:1006600008804D68D9F80060ED034D4601D516436A
:1006700000E096432E604D68DAF80060AD03554601
:1006800001D5164300E096432E604D68DBF800600C
:10069000ED025D4601D5164300E096432E604D689D
:1006A000DEF80060AD02754601D5164300E09643C2
:1006B0002E60641C0A681646E2407FF429AFBDE84C
:1006C000F88F0000000401400000111000100240EB
:1006D0000000014000080140000C014000100140F2
:1006E0000014014000180140001C014080680840CF
:1006F00000D001207047C26821EA02030A4043EAA1
:100700000241016170470AB1016170470904FBE7CA
:1007100001488068704700001800002070B5040090
:1007200025D094F83D00002520B984F83C5020469F
:1007300000F050F9242084F83D002068016821F081
:10074000010101602068016841F4004101602068F6
:10075000016821F40041016000F096FA4D4A616899
:10076000914201D84C4900E04C49884201D2012015
:1007700070BD4B492368B0FBF1F15E6826F03F067F
:100780000E435E606368934206D94FF496735943F3
:100790004FF47A73B1FBF3F12368491C1E6A26F00B
:1007A0003F06314319626168914210D84900401EEA
:1007B000B0FBF1F2521CC2F30B02042A01D2042056
:1007C00022E0B0FBF1F0401CC0F30B001CE0A2687B
:1007D000F2B301EBC10303EB0116431EB3FBF6F3C7
:1007E0005B1C43F480431B0549D092B301EBC1026B
:1007F00002EB0111401EB0FBF1F0401CC0F30B00F6
:1008000040F4804040F400402168CA694CF6FF7310
:100810009A431043C861D4E9071001432068026875
:1008200022F0C00211430160D4E9030101432068B2
:10083000826848F2FF339A4311438160D4E905018D
:1008400008432168CA6822F0FF021043C86001E033
:100850000EE016E02068016841F0010101602564A6
:10086000202084F83D00256384F83E50002070BDB0
:1008700001EB4106431EB3FBF6F35B1CB3E701201B
:10088000C2E701EB4101401EB0FBF1F0401CC0F398
:100890000B00B7E7A086010080841E0000093D0020
:1008A00040420F002DE9FF4F83B09A46DDE91197D2
:1008B00093460446DDF84080FFF72AFF054694F88A
:1008C0003D0020287FD11923012240492046009570
:1008D00001F072F8002876D194F83C00012872D01B
:1008E000012084F83C0020680168C90703D1016831
:1008F00041F0010101602068016821F4006101609C
:10090000212084F83D00402084F83E000026266423
:10091000C4F82480A4F82A90608D20852C48E062D9
:10092000CDE9007553465A462046049900F0CAFFA7
:1009300070B930E02A463946204601F0BCF858B17B
:10094000206C042804D12068016841F40071016022
:10095000012007B0BDE8F08F606A21680078086167
:10096000606A401C6062218D491E89B22185628DBA
:10097000521E628522685369DB435B070BD469B161
:1009800000781061606A401C6062208D401E2085E6
:10099000608D401E6085208D0028CBD12A463946C7
:1009A000204600F0E3FF0028CAD154F83D0B01684F
:1009B00041F400710160202004F81E09E677667793
:1009C0000020C6E7FFE70220C3E700000200100096
:1009D0000000FFFF10B586B0002100910191029147
:1009E000039100680F4988421AD10F4CA06940F06A
:1009F0000800A061A069694600F008000490C020CA
:100A0000009012200190032003900848FFF772FD28
:100A1000E06940F40010E061E06900F40010049027
:100A200006B010BD0054004000100240000C014010
:100A300002488168027811448160704718000020E4
:100A4000074810B5016841F010010160032000F073
:100A500073F8002000F006F800F024F8002010BD24
:100A60000020024070B50D4D04464FF47A7128788D
:100A7000B1FBF0F00A490968B1FBF0F000F0DAFAD6
:100A800048B9102C07D200222146501E00F034F83D
:100A900000206C6070BD012070BD000018000020B7
:100AA000240000200B4808B5816941F001018161F3
:100AB000816901F001010091C16941F08051C1617A
:100AC000C06900F0805000900348416821F0E06167
:100AD000416008BD0010024000000140002809DB11
:100AE00000F01F02012191404009800000F1E02048
:100AF000C0F8001170470000F0B40E4B1B680C46A4
:100B0000C3F30223C3F10705042D00D90425191DE1
:100B1000072901D2002300E0DB1E012606FA05F1B9
:100B2000491E214099409E40761E16403143F0BC3C
:100B300001F0FABA0CED00E0064900F0070208687F
:100B40004FF6FF03184040EA0220034A10430860B2
:100B5000704700000CED00E00000FA052DE9F047B9
:100B60000F46050061D0434E306800F00700B842E0
:100B700009D2306820F0070038433060306800F058
:100B80000700B84251D128683B4C810712D5400775
:100B900003D5606840F4E06060602878000703D502
:100BA000606840F4605060606068A96820F0F00000
:100BB000084360602878C00728D06868012810D0F2
:100BC0002168022810D0890700292EDA616821F0F7
:100BD000030101436160FFF79BFD804641F28839C4
:100BE0000DE021688903EFE78901EDE7FFF790FD4C
:100BF000A0EB0801494502D90320BDE8F0876068F1
:100C0000696800F00C00B0EB810FEFD1306800F0A4
:100C10000700B8420BD9306820F007003843306035
:100C2000306800F00700B84201D00120E5E72878DD
:100C3000400705D56068E96820F4E060084360601B
:100C40002878000706D56068296920F4605040EADA
:100C5000C100606000F028F86168084AC1F3031120
:100C6000515CC8400649086006480068FFF7FAFE74
:100C70000020C2E7002002400010024008290008BE
:100C8000240000201C000020044805490068496831
:100C9000044AC1F30221515CC8407047240000207F
:100CA000001002401829000812A185B00FC98DE874
:100CB0000F0014A0144A006804905168134801F012
:100CC0000C03042B10D0082B0ED1C1F38343C903AE
:100CD0001DF803000AD5516804AAC1F34041515CD4
:100CE0000A4A5043B0FBF1F005B070470849484349
:100CF000FAE7000002030405060708090A0B0C0DB9
:100D00000E0F1010010200000010024000127A00C5
:100D100000093D002DE9F84F040070D02078C04D47
:100D2000C00749D06868C0F38100012807D068680F
:100D3000C0F38100022809D16868C00306D528687D
:100D4000800339D560680028E7D035E06068B0F5E9
:100D5000803F0BD010B1B0F5A02F11D0286820F43F
:100D600080302860286820F4802002E0286840F461
:100D700080302860606890B1FFF7CAFC06460AE040
:100D8000286840F480202860F0E700BFFFF7C0FC2F
:100D9000801B642873D828688003F7D50CE0FFF720
:100DA000B7FC064605E000BFFFF7B2FC801B6428D5
:100DB000F0D828688003F7D420789A4E80074FF047
:100DC00001094FF0000839D5686810F00C0F07D002
:100DD0006868C0F38100022809D16868C00306D49E
:100DE0002868800714D52069012808D110E02069FF
:100DF000B0B1C6F80090FFF78BFC074605E00AE1AA
:100E0000FFF786FCC01B0228C4D828688007F7D5E6
:100E10002868616920F0F80040EAC10028600DE010
:100E2000C6F80080FFF774FC074604E0FFF770FC8B
:100E3000C01B022823D828688007F7D42078000731
:100E40002CD57948A169D9B1C0F80090FFF760FCB2
:100E5000074604E0FFF75CFCC01B02280FD8686A55
:100E60008007F7D571484FF4FA510068B0FBF1F0F4
:100E7000009000BF0098411E0091FAD20EE080E081
:100E8000C0F80080FFF744FC074604E0FFF740FC91
:100E9000C01B022875D8686A8007F7D420784007FD
:100EA00060D5E8690027C00008D4E86940F08050A8
:100EB000E861E869012700F0805000905C48016813
:100EC000C90513D40168834641F480710160FFF7BE
:100ED0001FFC824606E000BFFFF71AFCA0EB0A00E9
:100EE00064284ED8DBF80000C005F5D5E06801287D
:100EF0000AD008B1052813D0286A20F00100286222
:100F0000286A20F0040002E0286A40F0010028620C
:100F1000E06841F2883B98B1FFF7FAFB82460BE0AC
:100F2000286A40F004002862EEE700BFFFF7F0FBFC
:100F3000A0EB0A0159455AD8286A8007F6D50CE07B
:100F4000FFF7E6FB824605E0FFF7E2FBA0EB0A01B4
:100F500059454CD8286A8007F6D41FB1E86920F0BB
:100F60008050E861E06988B36968C1F381010229B2
:100F700044D00228C6F8608004D0FFF7C9FB0446BD
:100F800038E034E0FFF7C4FB074604E0FFF7C0FB9E
:100F9000C01B02282BD828688001F7D4206AB0F53E
:100FA000803F05D16868A16820F40030084368607C
:100FB000D4E908010843696821F4741108436860A2
:100FC000C6F86090FFF7A4FB044606E025E000BFEA
:100FD000FFF79EFB001B022809D828688001F7D57F
:100FE0001BE000BFFFF794FB001B022802D903207F
:100FF000BDE8F88F28688001F4D40EE00128F7D00E
:101000006868226A00F48031914204D1616A00F478
:101010007010884201D00120EAE70020E8E70000D4
:10102000001002400000424280044242240000209E
:101030000070004010B5401EB0F1807F01D3012048
:1010400010BD4FF0E02460610F21601701F06CF8D3
:101050000020A06107202061002010BD704770476C
:1010600070B590F83C20012A2CD0012480F83C4037
:10107000022280F83D2003685A689D6822F07006BD
:101080000A6832435A60104B02689A420ED00F4BE6
:101090009A420BD0B2F1804F08D00D4B9A4205D046
:1010A0000C4B9A4202D00C4B9A4204D1496825F06D
:1010B00080031943916080F83D40002180F83C1086
:1010C000084670BD022070BD002C01400034014074
:1010D0000004004000080040000C004010B504006F
:1010E00003D094F83D0010B107E0012010BD0020AE
:1010F00084F83C00204600F01FF8022084F83D00F0
:10110000211D206800F014FE012084F8460084F8B8
:101110003E0084F83F0084F8400084F8410084F8E1
:10112000420084F8430084F8440084F8450084F8C1
:101130003D00002010BD000000B585B000210091E9
:1011400001910291039101682048B1F1804F0CD0C8
:101150001F4A914226D1C16941F00201C161C069B3
:1011600000F00200049005B000BDC16941F001012A
:10117000C161C16901F001010491816941F004017B
:1011800081618069694600F00400049001200090AC
:101190001048FFF7AFF9002211461C20FFF7ACFC06
:1011A0001C2010E00C4A9142DDD1C16941F01001D0
:1011B000C161C069002200F0100004901146362081
:1011C000FFF79AFC3620FFF789FCCCE700100240BD
:1011D00000040040000801400010004070B50446C3
:1011E00090F83C00012817D0012584F83C500220DB
:1011F00084F83D002068826822F0770222F47F4262
:1012000082600868502830D00DDC20284DD005DCE5
:1012100098B310283BD148E0022070BD302844D05C
:10122000402834D139E0602828D0702806D0B0F5A5
:10123000805F2CD0B0F5005F29D10AE0CB68D1E9FE
:101240000121206800F0C7FD2068816841F0770126
:1012500009E0CB68D1E90121206800F0BCFD2068DD
:10126000816841F48041816011E0CA684968206862
:1012700000F086FE5021206807E016E0CA68496841
:10128000206800F0C5FE6021206800F0AEFD84F803
:101290003D50002084F83C0070BDCA684968206851
:1012A00000F06EFE40212068EFE7226801461046FC
:1012B000EBE7000070B5017F012932D1194C21788C
:1012C000194E4FF4807569B1217821B3002100F0E7
:1012D000CBFAE060E068A1688842E068A1680CD9B8
:1012E000401A13E0002100F0BFFAA0600120207036
:1012F00029463046FFF7FFF90DE0884207D2A06883
:1013000049F64041081AE1680844401C2061206900
:1013100060610020207029463046FFF7ECF96069D3
:10132000606070BD00000020000801402DE9F04120
:10133000054690F83C000C46012836D0012085F87F
:101340003C008AB3042A42D02868082A51D0D4E944
:101350000023E168066A26F480560662C669076AB9
:1013600026F4407646EA03234FF6FF7606EA01317B
:1013700023F4704319434FF4005627F4005306EA50
:1013800002321A43C16102622868C16921F44061D6
:10139000C1612868C169A26841EA0221C1610020D7
:1013A00085F83C00BDE8F08101E00220FAE7D4E9CD
:1013B0000012E368286800F0F5FD2868816921F0D3
:1013C0000C01816128688169A26811430FE0D4E9AA
:1013D0000012E368286800F02DFE2868816921F476
:1013E0004061816128688169A26841EA02218161C6
:1013F000D5E7D4E90027267B016A21F480710162D8
:10140000C169036A21F00301394321F0F007310774
:101410004FF4007647EA116123F4007306EA0222D2
:101420001A43C16102622868C16921F00C01C161DF
:101430002868C169A2681143B0E710B5040003D061
:1014400094F83D0010B107E0012010BD002084F8A1
:101450003C00204600F01EF8022084F83D00211DCB
:10146000206800F065FC012084F8460084F83E0006
:1014700084F83F0084F8400084F8410084F842007A
:1014800084F8430084F8440084F8450084F83D0063
:10149000002010BD7047000010B5044651B104296A
:1014A0000DD0082910D094F8410094F84520012867
:1014B00011D10EE094F83E0094F84220F7E794F83A
:1014C0003F0094F84320F2E794F8400094F8442059
:1014D000EDE7012A01D0012010BD022051B10429FD
:1014E00011D0082918D084F8410084F845000C294F
:1014F0001BD13CE084F83E0084F842002068C268BA
:1015000042F0020210E084F83F0084F843002068B3
:10151000C26842F0040207E084F8400084F8440006
:101520002068C26842F00802C2600122206800F010
:1015300045FC1149206888420ED0104988420BD0E2
:10154000B0F1804F08D00E49884205D00D4988423D
:1015500002D00D49884204D1816801F007010629B3
:1015600003D0016841F001010160002010BD206836
:10157000C26842F01002D7E7002C0140003401405D
:101580000004004000080040000C004070B5044614
:10159000006801694FF00005C943890715D4C16887
:1015A000C943890711D4E91E016101202077206811
:1015B00080698007204602D0FFF77CFE04E000F03F
:1015C000BFF8204600F04EF9257720680169C9432D
:1015D000490717D4C168C943490713D46FF0040100
:1015E0000161022020772068806910F4407F204646
:1015F00002D0FFF75FFE04E000F0A2F8204600F002
:1016000031F9257720680169C943090716D4C168F3
:10161000C943090712D46FF0080101610420207743
:101620002068C0698007204602D0FFF743FE04E02F
:1016300000F086F8204600F015F92577206801694A
:10164000C943C90617D4C168C943C90613D46FF08A
:1016500010010161082020772068C06910F4407FE4
:10166000204602D0FFF726FE04E000F069F820468D
:1016700000F0F8F8257720680169C943C90708D147
:10168000C168C943C90704D1891E0161204600F021
:10169000EAF820680169C943090609D4C168C94349
:1016A000090605D46FF0800101612046FFF7D6FCE2
:1016B00020680169C943490609D4C168C94349067C
:1016C00005D46FF040010161204600F0E2F8206887
:1016D0000169C94389060BD4C168C943890607D487
:1016E0006FF0200101612046BDE87040FFF7B7BCF4
:1016F00070BD000000B585B00021009101910291FC
:10170000039100680B49884211D10B48816941F06F
:10171000040181618069694600F004000490402062
:1017200000900220019003900448FEF7E3FE05B00C
:1017300000BD00000004004000100240000801400D
:10174000704770B5044690F83C000D4601280AD059
:10175000012084F83C0042B1042A18D0082A2AD07B
:101760000C2A4DD139E0022070BD206800F046FB04
:101770002068816941F0080181612068816921F058
:1017800004018161206881692A69114311E02068A0
:1017900000F064FB2068816941F400618161206888
:1017A000816921F480618161206881692A6941EA47
:1017B0000221816124E0206800F086FB2068C16975
:1017C00041F00801C1612068C16921F00401C161D3
:1017D0002068C1692A69114311E0206800F0A8FB64
:1017E0002068C16941F40061C1612068C16921F4C8
:1017F0008061C1612068C1692A6941EA0221C16131
:10180000002084F83C0070BD10B5040003D094F8AB
:101810003D0010B107E0012010BD002084F83C001D
:10182000204600F01EF8022084F83D00211D2068AB
:1018300000F07EFA012084F8460084F83E0084F827
:101840003F0084F8400084F8410084F8420084F8A6
:10185000430084F8440084F8450084F83D000020EB
:1018600010BD7047704770470246002041B10429FF
:1018700009D008290AD00C2901D11068006C7047E2
:101880001068406B70471068806B70471068C06BC1
:1018900070477047FEE701684A69D24352050FD48A
:1018A0006FF480624A61002140F8301F20224273A9
:1018B0008173026942F004020261017301207047E2
:1018C000002070472DE9F843044600680D46DDE925
:1018D000089701689846164641F4807101604B46AE
:1018E00000224FF001112046009700F065F848B142
:1018F00020680068C00502D54FF400702064032002
:10190000BDE8F883216805F0FE0008613B464A46C1
:101910001549204600F084F888B92068416980693B
:1019200000903A464946204600F0C5F848B1206C80
:10193000042804D12068016841F40071016001208D
:10194000DEE7F5B2B8F1010F09D02168300A08616D
:101950003A464946204600F0AEF80028E7D1206814
:1019600005610020CCE700000200010070B51646BA
:101970000D4604460DE02046FFF78DFF08B101201B
:1019800070BD681C05D0FEF7C3FE801BA84207D8B7
:1019900035B120684069C0434007ECD4002070BDD9
:1019A000002044F8300F20216173A073216941F0B9
:1019B000200121612073E2E72DE9F0471E469046A1
:1019C0000D460446C1F30747DDF8209008E0701C7F
:1019D00006D0FEF79DFEA0EB0900B0420FD876B10D
:1019E0002068012F18D0806925EA00000004000C4F
:1019F00014D000214145EAD00020BDE8F087002046
:101A000044F8300F20216173A073216941F0200157
:101A1000216120730120F0E74069E5E70121E9E752
:101A20002DE9F0479A4691460E46044600254FF0B0
:101A30002008C1F3074725E020684069C0434005FE
:101A400014D42068016841F40071016021686FF4CA
:101A500080604861256384F83D8084F83E50206CA6
:101A600040F00400206484F83C501FE0B9F1FF3FCF
:101A700008D0FEF74DFEA0EB0A0149450CD8B9F19C
:101A8000000F09D02068012F13D0806926EA0000DA
:101A90000004000C0BD0CFE744F8305F84F80D80D1
:101AA000A573206940F02000206125730120BDE866
:101AB000F0874069EAE770B516460D4604460DE02A
:101AC0002046FFF7E8FE08B1012070BD681C05D074
:101AD000FEF71EFE801BA84207D835B1206840697A
:101AE000C0430006ECD4002070BD002044F8300F45
:101AF00020216173A073216941F0200121612073CD
:101B0000E2E700002DE9F04385B000242E48009460
:101B1000019402940394816941F0200181618169FB
:101B200001F020010491816941F010018161816916
:101B300001F010010491816941F004018161816922
:101B400001F004010491816941F00801816180691B
:101B5000DFF8788000F0080041F21F0504900022B1
:101B600029464046FEF7CFFDDFF864904FF48077BA
:101B7000002239464846FEF7C6FD0095022601259B
:101B80000396CDE9015469464046FEF7B3FC4FF495
:101B9000F070CDE90004694640460294FEF7AAFCC5
:101BA00000970396CDE9015469464846FEF7A2FC2A
:101BB0006802CDE90004694648460294FEF79AFCA3
:101BC00005B0BDE8F08300000010024000100140A5
:101BD0000008014010B58AB000241A480494059406
:101BE00006940794089409940094019402944FF089
:101BF00080410394016040F69F71C0E9011449F6E9
:101C00003F41C0E903148461FFF768FA4FF4805044
:101C1000049004A90B48FFF7E1FA0A48FFF70DFC0E
:101C2000089408A907480994FFF71AFA0120CDE99A
:101C3000004002940022694602480394FFF776FBB5
:101C40000AB010BD3001002010B58EB000240794FA
:101C5000089409940A940B941C2168460C94FEF78E
:101C60009CFA1748154901604F21C0E9011440F260
:101C7000E731C0E903148461FFF730FA4FF4805074
:101C8000079007A90E48FFF7A9FA0D48FFF7BCFD1A
:101C90000B940BA90A480C94FFF7E2F96020CDE9F8
:101CA000000402940022694605480494FFF749FDA8
:101CB0000348FFF71FFD0EB010BD000000040040F8
:101CC00078010020FEE7704770477047FEF7B0BE0E
:101CD00030B58FB028216846FEF75FFA14210AA8B4
:101CE000FEF75BFA01200225049000951020059074
:101CF0000024CDE9075468460994FFF70BF80F203C
:101D00000A90CDE90B540D9400210AA80E94FEF719
:101D100025FF0FB030BD70470148FFF737BC00000A
:101D2000300100200148FFF731BC0000C001002055
:101D3000F0B502681C4B1D4D1D4E1E4F1E4C4FF042
:101D4000804C984209D0A04207D0604505D0A842F7
:101D500003D0B04201D0B84204D122F0700E4A68DC
:101D600042EA0E02984209D0A04207D0604505D051
:101D7000A84203D0B04201D0B84203D122F440754A
:101D8000CA682A434D6922F080022A4302608A68A9
:101D9000C2620A688262984201D0A04201D10969F8
:101DA000016301214161F0BD002C014000040040AD
:101DB00000080040000C00400034014010B501F064
:101DC0001F030121046A99408C430462016A9A400E
:101DD0001143016210BD10B5846842EA032224F465
:101DE0007F440A432243826010BD826822F0700261
:101DF0000A4342F00701816070470000F0B5026AB3
:101E000022F001020262036A42688469124E24F0E1
:101E100073050C682C4323F002058B682B430D4D92
:101E2000A84201D0B04205D123F00807CB683B435C
:101E300023F00403A84201D0B04205D14D6922F439
:101E4000407215438A692A4342608461496841634C
:101E50000362F0BD002C014000340140F0B5026A7D
:101E600022F010020262026A436884690D6824F459
:101E7000E64444EA05248D6822F0200242EA051275
:101E80000F4D104EA84201D0B04206D1CF6822F0CB
:101E9000800242EA071222F04002A84201D0B0427A
:101EA00007D14D6923F4406343EA85038D6943EA12
:101EB000850343608461496881630262F0BD00006C
:101EC000002C014000340140F0B5026A22F4807217
:101ED0000262026A4368C46922F4007224F0730546
:101EE0000C68124E2C438D6842EA05220E4DA84222
:101EF00001D0B04206D1CF6822F4006242EA072244
:101F000022F48062A84201D0B04207D14D6923F487
:101F1000405343EA05138D6943EA05134360C461E6
:101F20004968C1630262F0BD002C014000340140E9
:101F300030B5026A22F480520262046A4268C369C0
:101F40000D6823F4E64343EA05238D6824F4005426
:101F500044EA0534084DA84202D0084DA84204D1F5
:101F60004D6922F4804242EA85124260C3614968A9
:101F70000164046230BD0000002C014000340140C7
:101F800010B5036A046A24F001040462846924F031
:101F9000F00444EA021423F00A020A438461026254
:101FA00010BD000070B5046A24F001040462846965
:101FB000056A124EB0420ED0114EB0420BD0B0F1B5
:101FC000804F08D00F4EB04205D00F4EB04202D025
:101FD0000E4EB04203D124F00304144301E044F058
:101FE00001041A0724F0F00444EA126225F00A03FF
:101FF00001F00A0119438261016270BD002C0140A9
:10200000003401400004004000080040000C004083
:1020100010B5036A23F0100303628369046A23F492
:10202000704343EA023224F0A00343EA01118261C3
:10203000016210BD30B5046A24F0100404628469A2
:10204000056A24F4407444EA022222F470444FF6F4
:10205000FF7202EA03322243A02425F0A00304EA1F
:10206000011119438261016230BDFEE73EB50446AD
:10207000012000F027FB224616A1684600F040F838
:102080000221084600F09EFB134C002313A0D4E964
:10209000001200F023FC1721022000F093FB144DE6
:1020A000002314A0D5E9001200F018FCD5E90012B5
:1020B0000023684600F012FC2621652000F082FB18
:1020C000D4E9001201230DA000F008FC00F080FB11
:1020D0003EBD0000256400002800002053686172A6
:1020E000696620556E6976657273697479000000BF
:1020F0003000002053706565643A000052504D0076
:102100000FB4084B10B504A902AA039800F02CF8EC
:10211000044602A9002000F0D1F8204610BC5DF86A
:1021200014FB0000BD2200080907090E002804DB8B
:1021300000F1E02080F80014704700F00F0000F17B
:10214000E02080F8141D704702E008C8121F08C183
:10215000002AFAD170477047002001E001C1121F28
:10216000002AFBD1704700002DE9FF4F89B09B4644
:102170000446002506E025280BD05A460B999047C7
:10218000641C6D1C20780028F5D10DB02846BDE8F0
:10219000F08F0027B8460122474900E0074314F8B2
:1021A000013F203B02FA03F00842F7D120782E28A5
:1021B00019D114F8010F47F004072A280ED06FF048
:1021C0002F022078A0F1300109290CD808EB8801F2
:1021D00002EB410100EB0108641CF2E70A98641C61
:1021E00050F8048B0A9020780028CED0642808D0BC
:1021F000692806D075281ED05A460B9990476D1C49
:1022000058E00A994FF00A0901C90A91002802DA38
:1022100040422D2102E0390504D52B218DF82010F4
:10222000012103E0F90704D02021F7E78A4608AE30
:102230000DE00021FAE70A994FF00A0901C90A9155
:10224000F7E74946FDF7C2FF303106F8011D0028C7
:10225000F7D1ADEB060000F12009780701D44FF06B
:102260000108C84502DDA8EB090000E00020804617
:10227000002706E008A85A46C05D0B9990476D1CE0
:102280007F1C5745F6DB04E030205A460B999047F7
:102290006D1CB8F10001A8F10108F5DC05E016F8A5
:1022A000010B5A460B9990476D1CB9F10001A9F139
:1022B0000109F4DC641C65E7092801000A68531C65
:1022C0000B601070704700000021425C1AB1054895
:1022D00050F821007047491CC9B21429F5D302A057
:1022E00070470000440000205A00000010B504466A
:1022F000014638220E48FDF737FFA18D00222069E4
:10230000FEF701FAE18D00226069FEF7FCF9218EEB
:102310000022A069FEF7F7F9618E0022E069FEF75E
:10232000F2F9A18E206ABDE810400022FEF7EBB959
:102330000806002070B50446002000F09DF84D4DC1
:10234000A98C2868FEF7D2F900B101202070E98C31
:102350006868FEF7CBF900B101206070298DA8688C
:10236000FEF7C4F900B10120A070698DE868FEF79E
:10237000BDF900B10120E070012000F07DF8A98CCA
:102380002868FEF7B3F900B101202071E98C686874
:10239000FEF7ACF900B101206071298DA868FEF745
:1023A000A5F900B10120A071698DE868FEF79EF9DA
:1023B00000B10120E071022000F05EF8A98C2868CD
:1023C000FEF794F900B101202072E98C6868FEF7ED
:1023D0008DF900B101206072298DA868FEF786F999
:1023E00000B10120A072698DE868FEF77FF900B1A5
:1023F0000120E072032000F03FF8A98C2868FEF766
:1024000075F900B101202073E98C6868FEF76EF958
:1024100000B101206073298DA868FEF767F900B14B
:102420000120A073698DE868FEF760F900B1012012
:10243000E073042000F020F8A98C2868FEF756F914
:1024400000B101202074E98C6868FEF74FF900B1F3
:1024500001206074298DA868FEF748F900B10120B9
:10246000A074698DE868FEF741F900B10120E074BD
:1024700070BD00000806002010B5314C05285DD263
:10248000DFE800F0030B222F4100A18D012220691B
:10249000FEF739F9E18D606906E0E18D012260699E
:1024A000FEF731F9A18D20690022FEF72CF9218E6B
:1024B000A0690022FEF727F9618EE0690022FEF78D
:1024C00022F9A18E206A34E0218E0122A069FEF754
:1024D0001AF9E18D00226069FEF715F9A18D2069D6
:1024E000E7E7618E0122E069FEF70DF9E18D002238
:1024F0006069FEF708F9218E0022A069FEF703F952
:10250000A18D2069DAE7A18E0122206AFEF7FBF88F
:10251000E18D00226069FEF7F6F8218E0022A069A5
:10252000FEF7F1F8618E0022E069FEF7ECF8A18D6C
:102530002069BDE810400022FEF7E5B810BD00009C
:1025400008060020494D8EB047A0686048A0286169
:1025500005F10C00FDF79AFEFEF772FAFFF7B8FBE3
:10256000FFF7D0FA05F148004249016042490024D2
:10257000C0E901144FF48041C0E903414461846122
:10258000C4610462FEF7CAF8FFF724FB05F59670F4
:1025900000943A490194016041F63F71C0E9011489
:1025A00063218461C160FEF799FD0094694605F5D9
:1025B00096700194FEF754FDFFF746FB00F09AF881
:1025C0002F4C0494A015ADF8240080200094ADF8A1
:1025D000260005944020ADF82800019420200694A0
:1025E000ADF82A004FF00108ADF82C8002200294CB
:1025F000ADF82E0007940420ADF8300008200394B5
:10260000ADF8320008941020ADF834006846FFF7AA
:102610006DFE4FF4A270FFF729FD002105F19C002B
:10262000FEF73AFF002105F1E400FFF71DF9FDF781
:10263000EFFED5E903676D6968F317454FF48058DD
:102640006420FDF745FF41462046FEF754F82B462F
:102650003A4631466846FDF701FFDDE90175642021
:10266000009EFDF735FFEBE74800000094000020D6
:102670004200000000540040A0860100001000400D
:102680000010014070B5802813D2402911D20B4BA5
:10269000012401F007051E79AC40094BC90800EB85
:1026A000C1100EB132B101E0012A03D0195CA1437F
:1026B000195470BD195C2143FAE70000380000206E
:1026C0000802002010B5064A00214FF4806328B1AB
:1026D000FF245454491C9942F9D310BD0024F8E753
:1026E0000802002002490A78027089784170704718
:1026F0003800002010B56420FDF7EAFEAE2000F09F
:10270000DBF8202000F0D8F8102000F0D5F8B02039
:1027100000F0D2F8C82000F0CFF8002000F0CCF88C
:10272000102000F0C9F8402000F0C6F8812000F029
:10273000C3F8FF2000F0C0F8A12000F0BDF8A620EB
:1027400000F0BAF8A82000F0B7F83F2000F0B4F885
:10275000A42000F0B1F8D32000F0AEF8002000F083
:10276000ABF8D52000F0A8F8F02000F0A5F8D920AB
:1027700000F0A2F8222000F09FF8DA2000F09CF888
:10278000122000F099F8DB2000F096F8202000F0ED
:1027900093F88D2000F090F8142000F08DF8AF2011
:1027A00000F08AF80020FFF78DFF00F011F80448D0
:1027B00000210180418001214171084610BD0000C7
:1027C00038000020014A10805180704738000020F6
:1027D000FEB5002464250F4F802600BF04F1B00031
:1027E000C0B200F069F8002000F066F8102000F098
:1027F00063F807EBC410CDE90006012340227821DD
:1028000002950548FEF74EF8641CE4B2082CE5D3A7
:10281000FEBD000008020020DC0000202DE9FF4F73
:10282000834624489246CEB202883244802A06D299
:1028300081464088C1F307273844402803D300204D
:1028400004B0BDE8F08F002528E000BFABF1200008
:1028500000FB075000243AF810801CE008FA04F04E
:10286000000409D599F8021099F800002944204481
:10287000C9B2C0B2039A0BE00398C0B15FF0000286
:1028800099F8021099F8000029442044C9B2C0B256
:10289000FFF7F8FE641CA642E0D86D1CAF42D5D805
:1028A000B9F8001058463144A9F80010C8E70122D1
:1028B000E6E700003800002001B584B001210A22BB
:1028C00004A88DE807000B46002278210248FDF796
:1028D000E9FF05B000BD0000DC000020F0B51D469A
:1028E0000E46174604460AE02B463A463146FFF7A5
:1028F00095FF2178884201D0C8B2F0BD641C2078D1
:102900000028F1D1C0B2F0BD0000000000000000BE
:102910000102030406070809000000000102030485
:1029200000000000000000000000000000000000A7
:102930000000000000100010001000100010001037
:1029400000000010000000000028002800280000FF
:10295000000000000000000000000000002400242F
:10296000007C00240048007C004800480000000073
:10297000003800540050003800140054005400384F
:1029800000100000002000540058003000280054BF
:1029900000140008000000000010002800280010AB
:1029A000003400480048003400000000001000100F
:1029B0000010000000000000000000000000000007
:1029C000000800100020002000200020002000202F
:1029D000001000080020001000080008000800088F
:1029E0000008000800100020001000380010002827
:1029F00000000000000000000000000000000000D7
:102A000000100010007C001000100000000000000A
:102A100000000000000000000000000000000010A6
:102A2000001000100000000000000000000000384E
:102A30000000000000000000000000000000000096
:102A40000000000000000010000000000008000866
:102A500000100010001000100020002000000000F6
:102A6000003800440044005400440044004400384E
:102A70000000000000100030005000100010001096
:102A80000010001000000000003800440044000462
:102A9000000800100020007C000000000038004406
:102AA0000004001800040004004400380000000086
:102AB00000080018002800280048007C00080008D2
:102AC00000000000007C004000400078000400048A
:102AD0000044003800000000003800440040007846
:102AE000004400440044003800000000007C000462
:102AF000000800100010002000200020000000004E
:102B000000380044004400380044004400440038C9
:102B1000000000000038004400440044003C000471
:102B20000044003800000000000000000010000019
:102B30000000000000000010000000000000000085
:102B40000000001000000000000000100010001045
:102B500000000000000C003000400030000C0000BD
:102B600000000000000000000000007C0000007C6D
:102B700000000000000000000000000000600018DD
:102B8000000400180060000000000000003800444D
:102B900000040008001000100000001000000000F9
:102BA00000380044004C0054005C004000400038F5
:102BB0000000000000100028002800280028007CE9
:102BC0000044004400000000007800440044007805
:102BD0000044004400440078000000000038004435
:102BE0000040004000400040004400380000000069
:102BF0000070004800440044004400440048007055
:102C000000000000007C00400040007C00400040CC
:102C10000040007C00000000007C00400040007884
:102C20000040004000400040000000000038004428
:102C300000400040005C00440044003800000000F8
:102C4000004400440044007C00440044004400442C
:102C500000000000003800100010001000100010EC
:102C6000001000380000000000040004000400040C
:102C70000004000400440038000000000044004844
:102C80000050006000500048004800440000000070
:102C90000040004000400040004000400040007CF8
:102CA000000000000044006C006C0054004400442C
:102CB000004400440000000000440064006400542C
:102CC0000054004C004C0044000000000038004458
:102CD0000044004400440044004400380000000068
:102CE0000078004400440044007800400040004068
:102CF0000000000000380044004400440044004448
:102D000000540038000400000078004400440044EF
:102D100000780048004800440000000000380044EB
:102D200000400030000800040044003800000000AB
:102D3000007C0010001000100010001000100010A7
:102D400000000000004400440044004400440044EB
:102D50000044003800000000004400440044002803
:102D6000002800280010001000000000004400446B
:102D7000005400540054006C00280028000000009B
:102D800000440028002800100010002800280044FB
:102D9000000000000044004400280028001000103B
:102DA0000010001000000000007C0004000800106B
:102DB000001000200040007C0000000000180010FF
:102DC000001000100010001000100010001000187B
:102DD0000020002000100010001000100008000863
:102DE0000000000000300010001000100010001063
:102DF00000100010001000300010002800280044CF
:102E000000000000000000000000000000000000C2
:102E1000000000000000000000000000000000FEB4
:102E20000020001000000000000000000000000072
:102E3000000000000000000000380044003C004496
:102E4000004C0034000000000040004000580064C6
:102E5000004400440064005800000000000000002E
:102E600000380044004000400044003800000000EA
:102E7000000400040034004C00440044004C0034C2
:102E8000000000000000000000380044007C00400A
:102E90000044003800000000000C0010007C00100E
:102EA00000100010001000100000000000000000E2
:102EB0000034004C00440044004C0034000400780E
:102EC00000400040005800640044004400440044B6
:102ED0000000000000100000007000100010001042
:102EE0000010001000000000001000000070001032
:102EF0000010001000100010001000E00040004022
:102F000000480050006000500048004400000000ED
:102F100000700010001000100010001000100010D1
:102F2000000000000000000000780054005400542D
:102F3000005400540000000000000000005800642D
:102F40000044004400440044000000000000000071
:102F500000380044004400440044003800000000F1
:102F60000000000000580064004400440064005861
:102F700000400040000000000034004C00440044C9
:102F8000004C0034000400040000000000580064FD
:102F90000040004000400040000000000000000031
:102FA00000380044003000080044003800000000F1
:102FB00000200020007800200020002000200018C1
:102FC00000000000000000000044004400440044F1
:102FD000004C0034000000000000000000440044E9
:102FE0000028002800280010000000000000000059
:102FF000005400540054006C002800280000000019
:1030000000000000004400280010001000280044C8
:1030100000000000000000000044004400280028D8
:10302000001000100010006000000000007C00088C
:10303000001000200040007C00000000001800107C
:1030400000100010002000200010001000100018D8
:1030500000100010001000100010001000100010F0
:1030600000100010003000100010001000080008D0
:10307000001000100010003000000000000000747C
:10308000004C0000000000000000000000000000F4
:103090000000000000000000000000000000000030
:1030A0000000000000000000000000000000000020
:1030B0000000000C000C000C000C000C000C000CBC
:1030C000000C000C000C000C0000000C000C0000B8
:1030D000000000000000001B001B001B001B001B69
:1030E00000000000000000000000000000000000E0
:1030F0000000000000000000000080198019801905
:103100008019C07FC07F80190033C07FC07F00332B
:103110000033003300330000000000000000001EF8
:10312000003F807580650074003C001E000780052C
:10313000806580658075003F001E0004000400006B
:103140000000007000D840D8C0D880D900730006B5
:10315000000C801BC036C066C046C006800300005D
:10316000000000000000001E003F00330033003369
:10317000001E000CC03CC066806380618063C03E5E
:10318000801C0000000000000000000C000C000C7F
:10319000000C000C00000000000000000000000017
:1031A000000000000000000000000000800000019E
:1031B0000003000600060004000C000C000C000CCC
:1031C000000C000C00040006000600030001800053
:1031D000002000100018000C000C0004000600067F
:1031E00000060006000600060004000C000C001893
:1031F000001000200000000C002D003F001E0033D6
:1032000000000000000000000000000000000000BE
:103210000000000000000000000000000000000CA2
:10322000000C000C000CC0FFC0FF000C000C000CD8
:10323000000C000000000000000000000000000082
:10324000000000000000000000000000000000007E
:10325000000000000000000C000C00040004000846
:10326000000000000000000000000000000000005E
:103270000000001E001E0000000000000000000012
:10328000000000000000000000000000000000003E
:103290000000000000000000000000000000000C22
:1032A000000C000000000000000000030003000309
:1032B0000006000600060006000C000C000C000CC6
:1032C0000018001800180000000000000000001E98
:1032D000003F0033806180618061806D806D80611E
:1032E000806180610033003F001E0000000000008C
:1032F00000000006000E001E003600260006000634
:103300000006000600060006000600060006000093
:10331000000000000000001E003F8073806180619B
:10332000800100030006000C001800300060807F60
:10333000807F0000000000000000001C003E0063D1
:1033400000630003000E000E000380018001806115
:103350008073003F001E0000000000000000000617
:10336000000E000E001E001E00160036003600661D
:10337000807F807F0006000600060000000000003D
:103380000000007F007F006000600060006E007F32
:1033900080638001800180618073003F001E000017
:1033A000000000000000001E003F803380610060CC
:1033B000006E007F80738061806180618033003F98
:1033C000001E0000000000000000807F807F800160
:1033D0000003000300060006000C000C000C0008AF
:1033E0000018001800180000000000000000001E77
:1033F000003F8063806180610021001E003F80618A
:10340000806180618061003F001E000000000000BC
:103410000000001E003F0073806180618061807346
:10342000803F801D800180610073003F001E00000E
:103430000000000000000000000000000000000C80
:10344000000C000000000000000000000000000C64
:10345000000C000000000000000000000000000060
:1034600000000000000C000C000000000000000044
:103470000000000C000C0004000400080000000024
:103480000000000080008003000E0038006000385B
:10349000000E80038000000000000000000000001B
:1034A00000000000000000000000807F807F00001E
:1034B0000000807F807F000000000000000000000E
:1034C000000000000000000000000000004000704C
:1034D000001C000780010007001C00700040000075
:1034E00000000000000000000000001F803FC071CD
:1034F000C060C000C00180030007000E000C000C7B
:103500000000000C000C0000000000000000001E85
:10351000003F803180718063806F806D806D806F2F
:10352000806700600032003E001C000000000000C8
:103530000000000E000E001B001B001B001B803152
:103540008031803F803F8031C060C060C06000003B
:10355000000000000000007C007E00630063006348
:103560000063007E007E0063806180618063007F75
:10357000007E0000000000000000001E003F8031BF
:103580008061006000600060006000600060806139
:103590008031003F001E0000000000000000007CA1
:1035A000007F0063806380618061806180618061F1
:1035B000806100630063007E007C0000000000006A
:1035C0000000807F807F0060006000600060007FFE
:1035D000007F0060006000600060807F807F0000EE
:1035E000000000000000807F807F006000600060BD
:1035F0000060007F007F006000600060006000608D
:1036000000600000000000000000001E003F80314C
:103610008061006000600060806380638061806121
:103620008031803F001E000000000000000080612B
:1036300080618061806180618061807F807F806146
:103640008061806180618061806100000000000015
:103650000000003F003F000C000C000C000C000CB0
:10366000000C000C000C000C000C003F003F0000A0
:1036700000000000000080018001800180018001C5
:103680008001800180018001806180618073003F42
:10369000001E0000000000000000C06080610063A8
:1036A00000660066006C0078007C006600660063BF
:1036B00080618061C06000000000000000000060C8
:1036C00000600060006000600060006000600060FA
:1036D000006000600060807F807F000000000000CC
:1036E0000000C071C071C07BC07AC06AC06AC06E81
:1036F000C064C060C060C060C060C060C0600000E6
:1037000000000000000080718071807980798079EC
:10371000806D806D806D8065806780678067806365
:1037200080630000000000000000001E003F003326
:103730008061806180618061806180618061806181
:103740000033003F001E0000000000000000007E6B
:10375000007F80638061806180618063007F007E84
:103760000060006000600060006000000000000079
:103770000000001E003F0033806180618061806135
:1037800080618061806580670033803F401E00005B
:10379000000000000000007E007F80638061806187
:1037A0008063007F007E006600630063806180614B
:1037B000C0600000000000000000000E001F80310B
:1037C000803100300038001E000780038061806176
:1037D0008031003F001E0000000000000000C0FF1C
:1037E000C0FF000C000C000C000C000C000C000CC6
:1037F000000C000C000C000C000C0000000000008D
:103800000000806180618061806180618061806191
:1038100080618061806180618073003F001E0000D4
:10382000000000000000C060C060C06080318031D6
:103830008031001B001B001B001B000E000E000E41
:1038400000040000000000000000C0C0C0C0C0C0F4
:10385000C0C0C0C0C0CC804C804C805E80528052C2
:103860008073806180610000000000000000C0C023
:10387000806080610033003B001E000C000C001EC5
:10388000001F003B80718061C0C00000000000008C
:103890000000C0C08061806100330033001E001E44
:1038A000000C000C000C000C000C000C000C0000C4
:1038B000000000000000803F803F80010003000303
:1038C0000006000C000C0018001800300060807F1B
:1038D000807F000000000000000F000F000C000CB3
:1038E000000C000C000C000C000C000C000C000C78
:1038F000000C000C000C000C000F000F0000001862
:1039000000180018000C000C000C000C000600064B
:103910000006000600030003000300000000000092
:10392000001E001E00060006000600060006000637
:103930000006000600060006000600060006000657
:10394000001E001E0000000C000C001E00120033C0
:103950000033806180610000000000000000000072
:103960000000000000000000000000000000000057
:103970000000000000000000000000000000000047
:103980000000000000000000E0FF00000000003820
:103990000018000C00000000000000000000000003
:1039A0000000000000000000000000000000000017
:1039B00000000000000000000000001F803F806148
:1039C0008001801F803F80618063807FC03800005D
:1039D0000000000000000060006000600060006EF9
:1039E000007F807380618061806180618073007F6F
:1039F000006E000000000000000000000000000059
:103A00000000001E003F80738061006000608061E4
:103A10008073003F001E00000000000000008001D5
:103A2000800180018001801D803F80738061806102
:103A3000806180618073803F801D00000000000075
:103A400000000000000000000000001E003F0073A6
:103A50008061807F807F00608071003F001E0000D9
:103A6000000000000000C007C00F000C000C807FA9
:103A7000807F000C000C000C000C000C000C000CF3
:103A8000000C00000000000000000000000000002A
:103A9000801D803F80738061806180618061807360
:103AA000803F801D80018063007F003E0000006039
:103AB000006000600060006F807F807180618061C5
:103AC0008061806180618061806100000000000091
:103AD00000000006000600000000003E003E000658
:103AE00000060006000600060006000600060000AC
:103AF000000000000006000600000000003E003E3E
:103B00000006000600060006000600060006000685
:103B100000060046007E003C00000060006000607F
:103B20000060806100630066006C007C00760063CA
:103B300000638061C0600000000000000000003EE3
:103B4000003E00060006000600060006000600060D
:103B50000006000600060006000600000000000047
:103B60000000000000000000000080DDC0FFC0CEAB
:103B7000C0CCC0CCC0CCC0CCC0CCC0CCC0CC000071
:103B80000000000000000000000000000000006FC6
:103B9000807F8071806180618061806180618061EF
:103BA0008061000000000000000000000000000034
:103BB0000000001E003F8073806180618061806131
:103BC0008073003F001E00000000000000000000A5
:103BD00000000000006E007F807380618061806162
:103BE00080618073007F006E006000600060006094
:103BF0000000000000000000801D803F8073806195
:103C00008061806180618073803F801D80018001C0
:103C1000800180010000000000000000000000673B
:103C2000803F00390030003000300030003000307C
:103C30000030000000000000000000000000000054
:103C40000000001E803F80610060007F803F800197
:103C50008061007F001E00000000000000000000E6
:103C6000000800180018007F007F001800180018D6
:103C7000001800180018801F800F000000000000CE
:103C80000000000000000000000080618061806191
:103C900080618061806180618063807F803D000001
:103CA0000000000000000000000000000000C060F4
:103CB000803180318031001B001B001B000E000E84
:103CC00000060000000000000000000000000000EE
:103CD000000080DD80DD80DD005500550055007757
:103CE0000077002200220000000000000000000019
:103CF000000000000000806100330033001E000C53
:103D0000000C001E00330033806100000000000042
:103D100000000000000000008061806180310033FD
:103D20000033001B001B001B000E000E000E001CC9
:103D3000007C007000000000000000000000C07F58
:103D4000C07F800100030006000C00180030C07F17
:103D5000C07F00000000000080038007000600060E
:103D6000000600060006000E001C001C000E0006E7
:103D70000006000600060006800780030006000615
:103D80000006000600060006000600060006000603
:103D900000060006000600060006000600060006F3
:103DA0000038003C000C000C000C000C000C000E55
:103DB00000070007000E000C000C000C000C000CAB
:103DC000003C00380000000000000000000000007F
:103DD00000008038807F00470000000000000000E5
:103DE0000000000000000000230000002A00000086
:103DF00030000000310000003200000033000000FD
:103E000034000000350000003600000037000000DC
:103E100038000000390000004500000046000000A6
:103E20006400000065000000660000006C000000F7
:103E30007200000075000000583E000800000020DD
:103E40009400000048210008EC3E00089400002087
:103E5000AC09000058210008000000000A00000022
:103E60000000000000000000000000000000000052
:103E70000100000010000000000000000024F40019
:103E8000070A0000202900080B1200008C300008EF
:103E9000000000000000020000000000283E0008B2
:103EA0001C3E0008E83D0008EC3D0008F43D000819
:103EB000F83D0008FC3D0008343E0008003E0008C4
:103EC000043E0008083E0008203E00080C3E0008A2
:103ED000103E0008143E0008243E00082C3E000856
:0C3EE000F03D0008303E0008183E0008CD
:0400000508000131BD
:00000001FF
