:020000040800F2
:10000000B00A00204501000895380008A332000816
:1000100091380008FF0800087F3E0008000000003B
:10002000000000000000000000000000E1390008AE
:100030000309000800000000B5390008E339000892
:100040005F0100085F0100085F0100085F01000810
:100050005F0100085F0100085F0100085F01000800
:100060005F0100085F0100085F0100085F010008F0
:100070005F0100085F0100085F0100085F010008E0
:100080005F0100085F0100085F0100085F010008D0
:100090005F0100085F0100085F0100085F010008C0
:1000A0005F0100085F0100085F0100085F010008B0
:1000B000453A00085F0100085F0100085F01000881
:1000C0005F0100085F0100085F0100085F01000890
:1000D0005F0100085F0100085F0100085F01000880
:1000E0005F0100085F0100085F0100085F01000870
:1000F0005F0100085F0100085F0100085F01000860
:100100005F0100085F0100085F0100085F0100084F
:100110005F0100085F010008553A00085F01000810
:100120005F0100085F0100085F0100085F0100082F
:10013000DFF80CD000F070FB00480047E1440008F5
:10014000B00A00200648804706480047FEE7FEE761
:10015000FEE7FEE7FEE7FEE7FEE7FEE7FEE7FEE777
:10016000433A000831010008202A04DB203A21FA32
:1001700002F00021704721FA02F3D040C2F12002C0
:10018000914008431946704740EA01039B0703D09A
:1001900009E008C9121F08C0042AFAD203E011F8C6
:1001A000013B00F8013B521EF9D27047D2B201E088
:1001B00000F8012B491EFBD270470022F6E710B56C
:1001C00013460A4604461946FFF7F0FF204610BDC5
:1001D00010B5002200E0521C835C8C5CA34201D16C
:1001E000002BF8D1D8B2E1B2401A10BD70B5064666
:1001F00003F0C0FE046805460A220021304600F0E4
:100200003EFA2C6070BDF0B480EA0102D40F4200C7
:10021000B2EB410F02D20246084611464A0042D0D4
:10022000C30DDDB2C1F3C752AD1A202D35DAC1F3CB
:10023000160141F4000204B15242C5F1200602FA4F
:1002400006F12A411044B3EBD05F23D0C4B1012D95
:10025000A0EBC35009DCF0BC4FF0004202EAC352ED
:10026000DBB200F5000000F04BBA400000F18070F6
:1002700000EBC350A0F1807040EAD170490009E062
:10028000490841EAC071A0EBC35000F500004008E6
:1002900000EBC350F0BC00F02ABA6142012202EB2D
:1002A0004101001BF6E7F0BC704781F00041AAE76E
:1002B00080F00040A7E780EA010210B502F0004399
:1002C000400022D04A001FD0010E01EB1261C0F3A2
:1002D0005600C2F3560240F4000042F40002A0FBB4
:1002E000022000047F39140400D0401C50EA124060
:1002F00001D44000491EC2B20C0604EBD010401CD1
:100300004008802A02D003E0002010BD20F0010048
:10031000002900DA0020184310BD2DE9FE4F804669
:1003200081EA0300C00F0C46009021F0004123F049
:100330000045B8EB0200A94105D24046214690464F
:100340001C460B46024623F00040104347D0270DC1
:10035000C7F30A00C3F30A510290401A01904028E3
:100360006BDAC3F3130040F4801B0098924620B16F
:100370000023D2EB030A63EB0B0B01985946C0F143
:100380004002504600F05AF906460D46504659467E
:10039000019A00F062F910EB08006141002487EA3D
:1003A000115284EAE7731A4340D0009A62B3019A6B
:1003B000012A4FEA075215DC001B61EB02014FF0E6
:1003C000004202EA0752CDE90042001C41F58011CB
:1003D00032462B4600F0D1F903B0BDE8F08F40461D
:1003E0002146F9E7001B61EB0201001C41F5801377
:1003F00000185B412018A2F5001747EB030140EA03
:10040000D570B6196D4111E06D084FEA360645EA20
:10041000C0754FEA0752001B61EB0201001C41F559
:10042000801149084FEA30000019514132462B46ED
:1004300003B0BDE8F04F00F091B9009801224000F0
:100440000023D0EB020263EBE073009821464FEAF1
:10045000E074B8EB000061EB0401E9E783F00043CE
:100460005BE781F0004158E72DE9FE4F81EA030484
:1004700004F0004421F0004100944FF0000B23F001
:10048000004350EA01045ED052EA03045BD0C3F398
:100490000A54C1F30A552C44A4F2F3340194A0FB8E
:1004A0000254C1F3130141F48011C3F3130343F465
:1004B000801301FB024400FB034E840A970A44EABE
:1004C000815447EA8357A4FB076802958D0A05FB10
:1004D00007854FEA932C04FB0C542705029D4FEA35
:1004E000065847EA1637B5EB08056EEB070C870E82
:1004F000920E47EA811742EA8312A7FB0201B6EB8C
:100500000B0164EB00042B0D43EA0C335E1844EB43
:100510001C50DA465146E7FB0201C5F313044FEACB
:100520000B3343EA14534FEA0432019C43EA0603B7
:10053000A4F10C040294009CCDE900B400F01DF974
:1005400003B0BDE8F08F00200146F9E7C10F80EA53
:10055000E0700844CA079623002100F0D1B8962322
:100560000022114600F0CCB80EB5C10F80EAE07051
:100570000844CA07002140F233438DE80E000A46C2
:100580000B4600F0FAF803B000BD20F00040C10DAA
:10059000C0F3160040F400007F2901DA0020704704
:1005A000962903DCC1F19601C8407047963988400E
:1005B000704700F0004230F000400AD0C10D01F554
:1005C0006071C0F3160042EA0151C20840071143AE
:1005D000704700200146704701F0004330B421F01D
:1005E000004150EA010206D00A0DA2F56072C1F383
:1005F0001301002A02DC30BC00207047440F44EA9B
:10060000C104C100E01830BC00EBC25000F06FB86C
:1006100030B50B46014600202022012409E021FAD2
:1006200002F59D4205D303FA02F5491B04FA02F5CF
:100630002844151EA2F10102F1DC30BD202A04DBA2
:10064000203A00FA02F1002070479140C2F12003E5
:1006500020FA03F3194390407047202A06DBCB179A
:10066000203A41FA02F043EAE07306E041FA02F36D
:10067000D040C2F1200291400843194670472DE94D
:10068000F04791460F4680460446002614F8015B69
:100690002DB100F0D3F80068405DC007F6D12B2DD6
:1006A00002D02D2D18D0641E4A463946204600F04F
:1006B000C9F827B13968A14201D1C7F80080710596
:1006C0004FF002040BD54042002803DD03F052FC3A
:1006D0000460A007BDE8F08746F48066E4E70028E0
:1006E000F8DA03F047FC04606FF00040F2E70029FD
:1006F000A8BF7047401C490008BF20F001007047A8
:1007000010B4B0FA80FC00FA0CF050EA010404BF07
:1007100010BC704749B1CCF1200421FA04F411FA5D
:100720000CF118BF012121430843A3EB0C01CB1DA1
:100730004FEA00614FEA102042BF002010BC704712
:1007400000EBC35010440029A4BF10BC7047401CEC
:10075000490008BF20F0010010BC704710B5141EFE
:1007600073F1000408DA401C41F1000192185B416A
:100770001A4301D120F0010010BD2DE9F04D924641
:100780009B4611B1B1FA81F202E0B0FA80F2203258
:100790009046FFF753FF04460F4640EA0A0041EA3D
:1007A0000B0153465A46084313D0114653EA010041
:1007B00019D0C8F140025046FFF7D6FC05460E4658
:1007C000504659464246FFF739FF084305D00120FD
:1007D00004E020463946BDE8F08D0020054346EA96
:1007E000E0762C4337430A986305E40AA0EB08003F
:1007F0000022FD0A44EA47540A3002D5002001468F
:10080000E9E7010510196941DDE908450019694169
:10081000BDE8F04DA2E70000064C074D06E0E06899
:1008200040F0010394E8070098471034AC42F6D337
:10083000FFF782FCE471000804720008004870476A
:10084000887100082DE9F05F824600780027154680
:100850008B460AF10104B946302801D09DB113E05E
:1008600014F8010B0127782803D0582801D045B18E
:100870000AE00DB1102D07D10027102514F8010B47
:1008800002E0082500E00A250026B0460EE005FB40
:10089000080005FB06F1012701EB10461FFA80F85E
:1008A000B6F5803F00D3B94614F8010B294600F095
:1008B00018F80028EBDABBF1000F05D00FB1641E69
:1008C00000E05446CBF80040B9F1000F06D003F029
:1008D00051FB02210160C81EBDE8F09F48EA0640B6
:1008E000FAE73A2800D2303820F02002412A01D31A
:1008F000A2F13700884201D34FF0FF30704700BFAC
:10090000FEE7704770472DE9F04105460C46164654
:100910001F462078082837D2DFE800F0041A213675
:10092000130C282F3B4632462146284600F000FA99
:10093000BDE8F0813B4632462146284600F0D0FA19
:10094000F6E73B4632462146284600F065F8EFE7D9
:100950003B4632462146284600F080FEE8E73B460B
:1009600032462146284600F04FFCE1E73B4632463E
:100970002146284600F0B4FDDAE73B4632462146E0
:10098000284600F055F9D3E700BF00BFD0E70FB409
:1009900010B500228A7204AA1CCA80E81C0010BC90
:1009A0005DF814FB10B504460120A07220780828D9
:1009B00021D2DFE800F0041014200C08181C204697
:1009C00000F0DEF917E0204600F0E4FA13E02046DC
:1009D00000F04CF80FE0204600F068FE0BE02046E7
:1009E00000F0DAFC07E0204600F0A2FD03E020461C
:1009F00000F048F900BF00BF10BD000004210170E5
:100A000004A1416000210172012141720021817223
:100A10007047000061000000F8B506460F46144616
:100A20001D4600200E49087048700EA420786528E5
:100A300008D16869009039463046D5E90323FFF7AD
:100A4000A6FFF8BD0020064B0090074806C82046C8
:100A500000F0BCFE00BF00BF03F098FE00BFF0E74F
:100A60005F0000206500000038000020F8B5064651
:100A7000002033490870487000250124284603F0FF
:100A8000FFFD03F083FE02202D4948700B462D48E0
:100A9000009406C82CA000F099FE2346294806C8F9
:100AA000274800F01FFB0020254948700B462548C9
:100AB000009406C829A000F089FE2346214806C8F4
:100AC0001F4800F00FFB1E484078001D1C4948706D
:100AD0000B461C48009406C824A000F077FE23466D
:100AE000184806C8164800F0FDFA154B1548009442
:100AF00006C822A000F06AFE2346124806C8104825
:100B000000F0F0FA0E4B0F48009406C81FA000F04A
:100B10005DFE23460B4806C8094800F0E3FA084B7F
:100B20000848009406C81EA000F050FE2346054861
:100B300006C8034800F0D6FA03F028FEF8BD00000E
:100B40005F000020380000205F5F5F5F5F5F5F5FD6
:100B50005F5F5F5F5F5F5F5F0000000052504D208E
:100B6000636F6E74726F6C6C65720000646573699C
:100B7000676E65642062793A00000000416C69206C
:100B800046656C6520506172616E6A00456C6168F3
:100B900065204D6F6C6C616865796461720000005E
:100BA0004E6F76656D626572203230323000000023
:100BB0002DE9F04106460F4614461D463078397837
:100BC00090FBF1F201FB120010BB207880B1697834
:100BD000287803F0D5FD01230EA0DDE9061203F00D
:100BE00065FE94F90000C043207003F0CFFD0FE0D4
:100BF0006978287803F0C4FD002306A0DDE9061219
:100C000003F054FE94F90000C043207003F0BEFDD1
:100C1000BDE8F081200000000721017003A14160C0
:100C2000012101720021417281727047770000003A
:100C3000F8B506460F4614461D4600200E490870BA
:100C400048700EA42078452808D1686C0090394679
:100C50003046D5E90F23FFF79AFEF8BD0020064B7A
:100C60000090074806C8204600F0B0FD00BF00BF56
:100C700003F08CFD00BFF0E75F000020450000009E
:100C80003800002010B50446002014490870487050
:100C900003F0F6FC002003F0F3FC0821112003F020
:100CA0006FFD01230E4806C80EA003F0FFFD2321AF
:100CB000022003F065FD01230D4806C80DA003F0D6
:100CC000F5FD2E21022003F05BFD0123084806C834
:100CD0000CA003F0EBFD03F059FD10BD5F000020F8
:100CE00040000020496E76616C69642100000000BC
:100CF0003800002031323C73706565643C3430301C
:100D000000000000707265737320616E79206B655E
:100D1000792E2E2E000000000021017003A14160F9
:100D20000121017200214172817270474D00000063
:100D3000F8B506460F4614461D4600200E490870B9
:100D400048702078652808D1686900903946304697
:100D5000D5E90323FFF71BFEF8BD0020064B0090EA
:100D6000064806C8204600F031FD00BF00BF03F072
:100D70000DFD00BFF0E700005F00002038000020FC
:100D800010B504460020444908704870012003F063
:100D900077FC03F0FBFC0A210F2003F0F1FC002399
:100DA0003E4806C83EA003F081FD2421302003F018
:100DB000E7FC0023394806C83CA003F077FD03F0A8
:100DC000E5FC4FF4FA7000F013FD002003F058FC2E
:100DD0000A210F2003F0D4FC0123304806C830A0BC
:100DE00003F064FD2421302003F0CAFC01232B48CA
:100DF00006C82EA003F05AFD03F0C8FC4FF4FA70A9
:100E000000F0F6FC012003F03BFC0A210F2003F068
:100E1000B7FC0023214806C821A003F047FD242188
:100E2000302003F0ADFC00231C4806C81FA003F0CF
:100E30003DFD03F0ABFC4FF4FA7000F0D9FC00204C
:100E400003F01EFC0A210F2003F09AFC0123134833
:100E500006C813A003F02AFD2421302003F090FCE3
:100E600001230E4806C811A003F020FD03F08EFCFC
:100E70004FF4FA7000F0BCFC012003F001FC0A21E1
:100E8000052003F07DFC0023094806C809A003F0F3
:100E90000DFD03F07BFC10BD5F0000204000002032
:100EA0004E616E6F20546563680000004C61620003
:100EB000380000205072657373204573632E2E2E08
:100EC000000000000521017004A1416000210172B1
:100ED0000121417200218172704700006D00000005
:100EE0002DE9FC4106460F4615461C4600202349C5
:100EF0000870487022A12846FFF76AF978B328786D
:100F000031280DD0322814D034281BD1206A00900B
:100F100039463046D4E90623FFF739FDBDE8FC81A8
:100F2000A06B009039463046D4E90C23FFF72FFD23
:100F3000F4E7606C009039463046D4E90F23FFF7A0
:100F400026FDEBE700200D4B00900E4806C8284612
:100F500000F03CFC00BF00BF03F018FC0AE0FFE714
:100F6000084903C9054B084ACDE90001074908486B
:100F7000FFF71EFE02A500BFD0E700005F000020C3
:100F80005A000000380000205E0000205C000020B5
:100F90005D000020F8B5064600203349087048700F
:100FA00000250124284603F06BFB03F0EFFB022031
:100FB0002D4948700B462D48009406C82CA000F01F
:100FC00005FC2346294806C8274800F08BF8002076
:100FD000254948700B462548009406C829A000F012
:100FE000F5FB2346214806C81F4800F07BF81E4841
:100FF0004078001D1C4948700B461C48009406C8E8
:1010000024A000F0E3FB2346184806C8164800F069
:1010100069F8154B1548009406C822A000F0D6FBCD
:101020002346124806C8104800F05CF80E4B0F48E3
:10103000009406C81FA000F0C9FB23460B4806C851
:10104000094800F04FF8084B0848009406C81CA057
:1010500000F0BCFB2346054806C8034800F042F8F0
:1010600003F094FBF8BD00005F0000203800002072
:101070005F5F5F5F5F5F5F5F5F5F5F5F5F5F5F5F80
:10108000000000007072657373206E756D6265728A
:101090003A000000312E2073686F77207370656509
:1010A00064000000322E20736574207370656564DF
:1010B00000000000332E2070726F6772616D0000B7
:1010C000342E2061626F75740000000010B501209D
:1010D00003F0D6FA0021084603F052FB03F056FB5A
:1010E00010BD00007FB504461D466178207803F0EE
:1010F00047FB2B4606A0DDE9011203F0D7FB607821
:101100009DF8051008446070002020707FBD00002D
:10111000200000002DE9F0418CB005460C46164633
:101120002CA700200490059006902046FFF73AFC7B
:1011300000BF28A736E02078012805D1204600F01E
:10114000B5FAC82000F054FB2078022805D12046CB
:1011500000F006F9642000F04BFB1F4800781F499F
:10116000097890FBF1F201FB1200A0B91C4800685D
:10117000401C1C4991FBF0F01FFA80F81A480288C5
:1011800041461A4802F008FC1848008803F022FA89
:10119000282000F02DFB07A803F01EF807A802F096
:1011A000E3FF074638785A28C5D033463A462146E9
:1011B00001A8FFF7A8FB01A807C804AB07C3A07AE2
:1011C0000028B6D104A807C885E807000CB0BDE820
:1011D000F08100005A0000006E0000206D00002029
:1011E00018000020C0D40100640000206600002028
:1011F0000221017003A141600121017200214172AD
:101200008172704753000000F8B506460F46144639
:101210001D46207845280AD065283ED1686900908F
:1012200039463046D5E90323FFF7B1FBF8BD454801
:10123000007880B320204449424A127888540846F6
:1012400002F05BFF41490880084600880C2801DD58
:10125000012000E000203D490988B1F5C87F01DA8E
:10126000012100E00021084060B138480088384979
:101270000880286D009039463046D5E91223FFF7E3
:1012800086FBD3E7E86D009039463046D5E9152353
:10129000FFF77DFBCAE7FFE700BF2A480078032875
:1012A0001FDA2078302801DB012000E000202178BF
:1012B0003A2901DC012100E00021084088B100202A
:1012C000244B0090244806C8204600F07FFA20787E
:1012D0001D491C4A127888541A480078401C194944
:1012E00008701848007830B320786C2823D100208B
:1012F000184B0090184806C818A000F067FA154867
:10130000007816381349087000200B4600901248E8
:1013100006C812A000F05AFA0E4800780B380D49A2
:10132000087020200849074A127888540548007838
:10133000401E0449087000BF00BF03F027FA00BF39
:1013400074E70000610000206800002062000020B7
:10135000640000205F00002040000020200000000A
:101360001CB50446074903C9074B084ACDE90001EB
:1013700007490848FFF71CFC06480078401C05494F
:1013800008701CBD400000205F0000205E000020AF
:101390005C0000205D0000207FB50546002030493C
:1013A000087030490880304908704870012003F007
:1013B00067F92E4800682E4991FBF0F422462DA1D2
:1013C00001A802F0A7FD03202749487001200870FA
:1013D00000200B460090284806C828A000F0F6F927
:1013E0000023254806C82048FFF77CFE01201E493F
:1013F00048700420087001200B4600901E4806C863
:1014000023A000F0E3F900231B4806C81648FFF7A5
:1014100069FE1721022003F0B3F90023214806C812
:1014200021A003F043FA2921682003F0A9F9012340
:10143000114806C81EA003F039FA3521012003F037
:101440009FF901230C4806C81AA003F02FFA442084
:10145000054908701720487003F098F97FBD000017
:1014600061000020620000205F00002018000020C2
:10147000C0D4010025640000380000205F5F5F5F7A
:101480005F5F5F5F5F5F5F5F5F5F5F5F5F5F5F00CB
:10149000202020205365742053706565642020202F
:1014A000200000004000002053706565643A000091
:1014B00052504D007365743A456E742C206D656E04
:1014C000753A4573630000000621017003A1416075
:1014D0000121017200214172817270477700000082
:1014E000F8B506460F4614461D4600200E49087002
:1014F00048702078452808D1A86B009039463046BE
:10150000D5E90C23FFF743FAF8BD0020064B009005
:10151000064806C8204600F059F900BF00BF03F096
:1015200035F900BFF0E700005F0000203800002020
:1015300010B5044600202E490870487003F0A0F84A
:1015400003F024F91721092003F01AF9012329488F
:1015500006C829A003F0AAF9642000F049F903F0B5
:1015600015F91721092003F00BF90123214806C8BA
:1015700023A003F09BF9962000F03AF903F006F956
:101580001721092003F0FCF801231A4806C81FA000
:1015900003F08CF9C82000F02BF903F0F7F81721BD
:1015A000092003F0EDF80123124806C81AA003F041
:1015B0007DF9FA2000F01CF903F0E8F8002003F0B0
:1015C0005FF81221092003F0DBF80123094806C85F
:1015D00014A003F06BF92D21002003F0D1F80123B2
:1015E000134806C813A003F061F903F0CFF810BD4B
:1015F0005F0000204000002053657474696E67002E
:1016000053657474696E672E00000000536574742E
:10161000696E672E2E00000053657474696E672E24
:101620002E2E0000446F6E652120202020202000F7
:1016300038000020707265737320456E742E2E2E54
:10164000000000000121017003A14160012101722D
:10165000002141728172704773000000F8B50646A0
:101660000F4614461D4600200E4908704870207829
:10167000652808D16869009039463046D5E90323CA
:10168000FFF785F9F8BD0020064B0090064806C814
:10169000204600F09BF800BF00BF03F077F800BFC2
:1016A000F0E700005F000020380000207FB505460D
:1016B00000202E4908704870012002F0E1FF2C48FC
:1016C00000682C4991FBF0F422462BA101A802F0FE
:1016D00021FC0320254948700120087000200B469A
:1016E0000090264806C826A000F070F80023234882
:1016F00006C81E48FFF7F6FC01201C49487004206C
:10170000087000200B4600901C4806C821A000F07D
:101710005DF80023194806C81448FFF7E3FC1721B9
:10172000022003F02DF800231F4806C81FA003F075
:10173000BDF800231C4806C801A803F0B7F827210C
:10174000682003F01DF801230C4806C819A003F017
:10175000ADF83521012003F013F80123074806C82E
:1017600015A003F0A3F803F011F87FBD5F0000207F
:1017700018000020C0D401002564000038000020BB
:101780005F5F5F5F5F5F5F5F5F5F5F5F5F5F5F5F69
:101790005F5F5F0053686172696620556E697665A8
:1017A0007273697479000000400000205370656511
:1017B000643A000052504D006D656E753A20686FB6
:1017C0006C64204573632E2E2E0000007FB5054605
:1017D0001C46089E6178207802F0D2FF33462846E6
:1017E000DDE9011203F062F8204602F059FF7FBDE7
:1017F00070B5044600F0C8F906462546681C10B1CD
:1018000004480078054400BF00F0BEF9801BA842E0
:10181000FAD370BD300000202DE9F84702460023BE
:101820009C467BE14FF0010808FA03F4D1F80080F0
:1018300008EA0400A0427DD1DFF8F4A2D1F80480C8
:10184000A8EB0A09D0453AD014DCB8F1030F50D008
:1018500009DCB8F1000F31D0B8F1010F1CD0B8F19C
:10186000020F49D120E0B8F1110F18D0B8F1120FD2
:1018700042D11EE0B9F5881F25D006DCB9F5803FBE
:1018800020D0B9F5801F37D11AE0B9F5001F18D064
:10189000B9F5041F30D117E0D1F80CC02DE0D1F814
:1018A0000C8008F1040C28E0D1F80C8008F1080C39
:1018B00023E0D1F80C8008F10C0C1EE000BF00BF43
:1018C00000BF00BF00BF00BFD1F80880B8F1000F13
:1018D00002D14FF0040C0BE0D1F80880B8F1010FF1
:1018E00003D14FF0080C146102E04FF0080C546172
:1018F00003E04FF0000C00E000BF00BFFF2801D85C
:10190000904601E002F104084646FF2802D84FEA5B
:10191000830803E0A3F108084FEA88084746D6F891
:1019200000804FF00F0909FA07F928EA09080CFAB4
:1019300007F900E07AE048EA0908C6F80080D1F823
:10194000048008F08058B8F1805F6FD100BFDFF8E5
:10195000E481D8F8188048F00108DFF8D891C9F878
:101960001880C846D8F8188008F00108CDF8008023
:1019700000BF00BF4FEAB9384FEA930958F8295021
:101980004FEA83784FEA18794FF00F0808FA09F800
:1019900025EA0805DFF8A081424502D14FF0000892
:1019A00024E0DFF89881424502D14FF001081DE0A4
:1019B000DFF88C81424502D14FF0020816E0DFF8D3
:1019C0008481424502D14FF003080FE0DFF87881AF
:1019D000424502D14FF0040808E0DFF8708142452B
:1019E00002D14FF0050801E04FF006084FEA837975
:1019F0004FEA197908FA09F848EA0505DFF8508135
:101A00004FEA930948F82950D1F8048008F4803847
:101A1000B8F5803F0BD1DFF83C81D8F8008048EA68
:101A20000008DFF83091C9F800800AE075E0DFF8BF
:101A30002481D8F8008028EA0008DFF81891C9F856
:101A40000080D1F8048008F40038B8F5003F0ED1CA
:101A5000DFF8008108F10408D8F8008048EA00089F
:101A6000DFF8F09009F10409C9F800800DE0DFF813
:101A7000E48008F10408D8F8008028EA0008DFF8BC
:101A8000D49009F10409C9F80080D1F8048008F461
:101A90008018B8F5801F0ED1DFF8B88008F108086B
:101AA000D8F8008048EA0008DFF8A89009F1080992
:101AB000C9F800800DE0DFF89C8008F10808D8F82C
:101AC000008028EA0008DFF88C9009F10809C9F8BD
:101AD0000080D1F8048008F40018B8F5001F0ED17A
:101AE000DFF8708008F10C08D8F8008048EA000898
:101AF000DFF8609009F10C09C9F800800DE0DFF80B
:101B0000548008F10C08D8F8008028EA0008DFF8B3
:101B1000449009F10C09C9F800805B1CD1F80080E1
:101B200028FA03F8B8F1000F7FF47CAEBDE8F8871F
:101B3000000011100010024000080140000C01409C
:101B4000001001400014014000180140001C014039
:101B50000800014000040140024693680B400BB1AD
:101B6000012000E00020704710B5C26821EA02039E
:101B700002EA010443EA0443036110BD0AB10161B2
:101B800001E00B04036170470148006870470000E2
:101B90002800002070B504460CB9012070BD94F8EF
:101BA0003D0028B9002084F83C00204600F08CF964
:101BB000242084F83D002068006820F0010021689E
:101BC00008602068006840F40040216808602068D0
:101BD000006820F400402168086000F04DFB0546D5
:101BE0005C496068884206D85B48854201D2012082
:101BF00007E0002005E05948854201D2012000E0BD
:101C00000020012800D1C9E75548B5FBF0F620684F
:101C1000406820F03F003043216848604D496068CB
:101C2000884201D8701C07E04FF4967070434FF45F
:101C30007A71B0FBF1F0401C2168096A21F03F0184
:101C400008432168086243496068884214D8681EC6
:101C500061684900B0FBF1F0401CC0F30B000428A0
:101C600001D204203DE0681E61684900B0FBF1F03C
:101C7000401CC0F30B0034E0A06838B9681E6168EE
:101C800001EB4101B0FBF1F0401C0AE0681E616805
:101C900001EBC10202EB0111B0FBF1F0401C40F47A
:101CA0008040C0F30B0008B901201AE0A06848B9D1
:101CB000681E616801EB4101B0FBF1F0401CC0F30C
:101CC0000B000CE0681E616801EBC10202EB011120
:101CD000B0FBF1F0401CC0F30B0040F4804040F436
:101CE00000402168C9694CF6FF729143084321689E
:101CF000C861D4E9070108432168096821F0C001DF
:101D0000084321680860D4E9031008432168896802
:101D100048F2FF329143084321688860D4E9050105
:101D200008432168C96821F0FF0108432168C860A1
:101D30002068006840F001002168086000202064ED
:101D4000202084F83D000020206384F83E0000BF7E
:101D500024E70000A086010080841E0000093D00E9
:101D600040420F002DE9FC5F04460F46904699461D
:101D7000DDE90CAB0E9EFFF707FF054694F83D002A
:101D800020287DD1192301224D492046009501F0DC
:101D900047FB10B10220BDE8FC9F00BF94F83C0057
:101DA000012801D10220F6E7012084F83C0000BFA1
:101DB0002068006800F0010028B92068006840F041
:101DC0000100216808602068006820F40060216834
:101DD0000860212084F83D00402084F83E00002067
:101DE0002064C4F824A0A4F82AB0608D208535486A
:101DF000E0624B46424639462046CDE9006501F097
:101E000071FA08B10120C6E731E02A463146204682
:101E100001F0ABFB50B1206C042805D120680068AC
:101E200040F40070216808600120B4E7606A00781F
:101E300021680861606A401C6062208D401E208518
:101E4000608D401E608520684069C0F3800070B1DD
:101E5000208D60B1606A007821680861606A401C6A
:101E60006062208D401E2085608D401E6085208D23
:101E70000028CAD12A463146204601F0A3FA00E0E4
:101E80001CE050B1206C042805D12068006840F4A3
:101E900000702168086001207DE72068006840F438
:101EA000007021680860202084F83D00002084F83C
:101EB0003E0000BF84F83C0000BF6CE702206AE7E8
:101EC000020010000000FFFF10B586B0044600209D
:101ED000029003900490059015492068884225D10E
:101EE00000BF1448806940F0080012498861084624
:101EF000806900F00800019000BF00BFC020029080
:101F0000122003900320059002A90B48FFF784FCE0
:101F100000BF0848C06940F400100649C86108467F
:101F2000C06900F40010019000BF00BF06B010BDF2
:101F30000054004000100240000C014003480068BB
:101F400003490978084401490860704728000020C7
:101F50003000002010B50848006840F01000064925
:101F60000860032000F0A8F8002000F007F800F057
:101F70002BF8002010BD00000020024070B5044680
:101F80000E4800784FF47A71B1FBF0F00C49096803
:101F9000B1FBF0F5284600F0FBFB08B1012070BD55
:101FA000102C07D200222146501E00F047F80548A9
:101FB000046001E00120F2E70020F0E7300000209B
:101FC000340000202C00002008B500BF11488069B3
:101FD00040F001000F4988610846806900F0010067
:101FE000009000BF00BF00BF0846C06940F08050AD
:101FF000C8610846C06900F08050009000BF00BF73
:1020000000BF0549486820F0E06000BF486000BF9D
:1020100008BD0000001002400000014001460846D3
:10202000002809DB00F01F0301229A4043099B00AE
:1020300003F1E023C3F8002100BF70472DE9F05FF2
:1020400080460D461646002701F078FF07463946C0
:102050002A46334601F00700C0F1070ABAF1040F1F
:1020600002D94FF0040A01E0C0F1070AD14600F19D
:10207000040ABAF1070F02D24FF0000A01E0A0F102
:10208000030AD4464FF0010A0AFA09FAAAF1010A32
:102090000AEA020A0AFA0CFA4FF0010B0BFA0CFBDF
:1020A000ABF1010B0BEA030B4AEA0B042146404655
:1020B00001F04CFFBDE8F09F00BF00F00702064BA7
:1020C00019684FF6FF031940044B0B4343EA022102
:1020D000014B196000BF70470CED00E00000FA05ED
:1020E00070B504460D460CB9012070BD5A48006811
:1020F00000F00700A8420ED25748006820F0070001
:102100002843554908600846006800F00700A842C7
:1021100001D00120E9E7207800F0020002281DD15B
:10212000207800F00400042805D14C48406840F4B1
:10213000E0604A494860207800F00800082805D18E
:102140004648406840F4605044494860434840680D
:1021500020F0F000A168084340494860207800F072
:10216000010078B36068012806D13C48006800F49B
:10217000003090B90120B8E76068022806D13748DE
:10218000006800F0007040B90120AEE733480068F5
:1021900000F0020008B90120A7E73048406820F0AD
:1021A0000300616808432D494860FFF7EDFC0646CF
:1021B00009E0FFF7E9FC801B41F28831884202D92F
:1021C000032092E707E02548406800F00C006168B2
:1021D000B0EB810FEDD12048006800F00700A84265
:1021E0000ED91D48006820F0070028431A490860EE
:1021F0000846006800F00700A84201D0012074E7FB
:10220000207800F00400042807D11448406820F426
:10221000E060E168084311494860207800F0080058
:10222000082808D10D48406820F46050216940EA30
:10223000C1000A49486000F02FF808494968C1F315
:102240000311074A515CC840064908600648006807
:10225000FFF794FE002048E70020024000100240F3
:10226000D8480008340000202C00002001480068F5
:10227000704700003400002000B5FFF7F7FF044965
:102280004968C1F30221034A515CC84000BD000007
:1022900000100240E8480008F0B585B00FF26C0C61
:1022A0009CE8E01001A8A0E8E0101CA52D680095AE
:1022B00000210022002300240020194D696801F04C
:1022C0000C05F5B1042D02D0082D19D101E01548F7
:1022D00019E001ADC1F38346AC5D01F4803555B121
:1022E0000F4D6D68C5F340451DF805200D4D654344
:1022F000B5FBF2F302E00C4D04FB05F3184602E0D7
:1023000000BF084800BF00BF05B0F0BD02030405D0
:10231000060708090A0B0C0D0E0F10100102000031
:102320000010024000127A0000093D00F8B5044692
:102330000CB90120F8BD207800F00100002878D009
:10234000F848406800F00C0004280CD0F5484068BC
:1023500000F00C00082811D1F248406800F48030E9
:10236000B0F5803F0AD1EF48006800F40030002843
:102370005FD0606800285CD10120DBE700BF6068A7
:10238000B0F5803F06D1E748006840F48030E54969
:10239000086028E0606858B9E248006820F480309E
:1023A000E04908600846006820F4802008601AE0D0
:1023B0006068B0F5A02F0BD1DA48006840F48020A7
:1023C000D84908600846006840F4803008600AE098
:1023D000D448006820F48030D2490860084600687C
:1023E00020F48020086000BF606888B1FFF7CCFB54
:1023F000054606E0FFF7C8FB401B642801D903200F
:1024000098E7C848006800F400300028F2D010E0D7
:10241000FFF7BAFB054606E0FFF7B6FB401B642852
:1024200001D9032086E7BF48006800F40030002887
:10243000F2D1207800F00200022857D1B948406854
:1024400000F00C0050B1B748406800F00C000828BC
:1024500018D1B448406800F4803098B9B148006899
:1024600000F0020020B12069012801D0012061E7BD
:10247000AC48006820F0F800616940EAC100A94951
:10248000086033E02069E8B10120A7490860FFF740
:102490007BFB054606E0FFF777FB401B022801D9CE
:1024A000032047E79F48006800F002000028F2D0B0
:1024B0009C48006820F0F800616940EAC100994931
:1024C000086013E0002098490860FFF75DFB0546AF
:1024D00006E0FFF759FB401B022801D9032029E73A
:1024E0009048006800F002000028F2D1207800F047
:1024F000080008282DD1A069B8B101208B490860D7
:10250000FFF742FB054606E0FFF73EFB401B0228B3
:1025100001D903200EE78348406A00F0020000283A
:10252000F2D0012001F048FA13E000207F49086052
:10253000FFF72AFB054606E0FFF726FB401B0228B3
:1025400001D90320F6E67748406A00F0020000282F
:10255000F2D1207800F00400042873D100277148DC
:10256000C06900F0805070B900BF6E48C06940F08B
:1025700080506C49C8610846C06900F080500090E6
:1025800000BF00BF01276A48006800F48070B0B93E
:102590006748006840F4807065490860FFF7F4FA06
:1025A000054606E0FFF7F0FA401B642801D9032036
:1025B000C0E65F48006800F480700028F2D000BFD9
:1025C000E068012806D15748006A40F001005549EB
:1025D000086227E0E06858B95248006A20F001001C
:1025E000504908620846006A20F00400086219E0B9
:1025F000E06805280BD14B48006A40F004004949C7
:1026000008620846006A40F0010008620AE0454896
:10261000006A20F00100434908620846006A20F081
:102620000400086200BFE068A0B1FFF7ADFA0546FC
:1026300009E0FFF7A9FA401B41F28831884202D92C
:10264000032077E622E03748006A00F00200002805
:10265000EFD012E0FFF798FA054608E0FFF794FA8A
:10266000401B41F28831884201D9032062E62D489F
:10267000006A00F002000028F0D1012F05D129489E
:10268000C06920F080502749C86100BFE069C8B325
:102690002448406800F00C00082860D0E069022857
:1026A00048D1002020490866FFF76EFA054606E08B
:1026B000FFF76AFA401B022801D903203AE61948BD
:1026C000006800F000700028F2D1206AB0F5803F69
:1026D00007D11448406820F40030A168084311492C
:1026E0004860D4E9080108430E49496821F474118F
:1026F00008430C49486001200B490866FFF744FA7B
:10270000054607E03DE0FFF73FFA401B022801D9EC
:1027100003200FE60348006800F000700028F2D0A4
:102720002FE00000001002400000424280044242BC
:1027300000700040002014490866FFF725FA05469E
:1027400006E0FFF721FA401B022801D90320F1E53A
:102750000E48006800F000700028F2D111E0E06936
:10276000012800D1E6E50948466806F48031206A70
:10277000814204D106F47011606A814201D00120C7
:10278000D8E50020D6E500000000424200100240DB
:1027900070B504462546681EB0F1807F01D3012044
:1027A0000FE0681E4FF0E02148610F214FF0FF302D
:1027B00001F0CCFB00204FF0E02188610720086188
:1027C000002070BD7047704730B502460B4600BF11
:1027D00092F83C00012801D1022030BD012082F88E
:1027E0003C0000BF022082F83D0010684468106879
:1027F000816824F070041868044310684460144D24
:102800001068A84213D0134D1068A8420FD010686A
:10281000B0F1804F0BD0104D1068A84207D00F4D7B
:102820001068A84203D00E4D1068A84205D121F0CF
:1028300080015868014310688160012082F83D00E2
:1028400000BF002082F83C0000BF00BFC5E70000C9
:10285000002C01400034014000040040000800400A
:10286000000C004010B504460CB9012010BD94F8CE
:102870003D0028B9002084F83C00204600F026F8EE
:10288000022084F83D00211D206801F0EBF80120B2
:1028900084F8460000BF84F83E0001213F20015526
:1028A000402001554120015500BF00BF012084F8A0
:1028B000420043200155442001554520015500BFE9
:1028C000012084F83D000020D0E7000010B586B05C
:1028D0000446002002900390049005902068B0F117
:1028E000804F2CD100BF2D48C06940F001002B491A
:1028F000C8610846C06900F00100019000BF00BF38
:1029000000BF0846806940F004008861084680697D
:1029100000F00400019000BF00BF012002900020E1
:102920000390049002A91E48FEF776FF002211468C
:102930001C20FFF783FB1C20FFF770FB2BE01949DD
:10294000206888420DD100BF1448C06940F00200E1
:102950001249C8610846C06900F00200019000BF3A
:1029600019E011492068884215D100BF0B48C069A1
:1029700040F010000949C8610846C06900F0100025
:10298000019000BF00BF002211463620FFF756FB22
:102990003620FFF743FB06B010BD000000100240D8
:1029A0000008014000040040001000402DE9F04103
:1029B00004460D4600BF94F83C00012802D10220D5
:1029C000BDE8F081012084F83C0000BF022084F8BB
:1029D0003D002068866826F0770626F47F4620684A
:1029E00086602868502833D00CDC202850D004DCC6
:1029F00000284BD0102851D149E0302849D0402838
:102A00004CD139E060282DD0702807D0B0F5805F18
:102A100003D0B0F5005F41D10DE040E0D5E90213ED
:102A20006A68206801F07DF82068866846F07706BD
:102A30002068866033E0D5E902136A68206801F0F7
:102A400070F82068806840F480402168886026E043
:102A5000EA686968206801F055F95021206801F0A2
:102A60006BF81CE0EA686968206801F09DF9602154
:102A7000206801F061F812E0EA686968206801F0F6
:102A800041F94021206801F057F808E000BF00BF7D
:102A900000BF2968206801F04FF800E000BF00BFC8
:102AA000012084F83D0000BF002084F83C0000BFF6
:102AB00000BF85E710B50446207F01284BD126488A
:102AC000007868B90021204600F0D1FB2349086056
:102AD00001202149087001022148FFF745F831E043
:102AE0001D48007870B30021204600F0C0FB1D494E
:102AF00008600846006819490968884207D91948DA
:102B0000006816490968401A1749086013E015481B
:102B100000681249096888420BD21048006849F6DB
:102B20004041081A0F4909680844401C0E490860D2
:102B300001E0FDF7E7FE0C4800680C490860002042
:102B4000054908704FF480710548FFF70DF80748F4
:102B500000680749086010BD1C0000200C00002020
:102B60000008014010000020140000201800002080
:102B7000080000202DE9F04104460D46164600BF2E
:102B800094F83C00012802D10220BDE8F081012028
:102B900084F83C0000BF96B9EB68D5E900122068C4
:102BA00001F0C4F82068806920F00C002168886179
:102BB00020688069A9680843216888613DE0042E87
:102BC00013D1EB68D5E90012206801F001F9206803
:102BD000806920F440602168886120688069A96864
:102BE00040EA01202168886127E0082E12D1EB68B5
:102BF000D5E90012206801F008F92068C06920F0CA
:102C00000C002168C8612068C069A9680843216870
:102C1000C86112E0EB68D5E90012206801F011F9F3
:102C20002068C06920F440602168C8612068C069DC
:102C3000A96840EA01202168C86100BF002084F82B
:102C40003C0000BF00BFA0E710B504460CB901204E
:102C500010BD94F83D0028B9002084F83C002046BF
:102C600000F025F8022084F83D00211D206800F0C6
:102C7000F9FE012084F8460000BF84F83E000121DF
:102C80003F200155402001554120015500BF00BFA4
:102C9000012084F84200432001554420015545207D
:102CA000015500BF012084F83D000020D0E77047A7
:102CB0002DE9F04104460D4615B994F83E000BE0AD
:102CC000042D02D13F20005D06E0082D02D14020F6
:102CD000005D01E04120005D074615B994F842000F
:102CE0000BE0042D02D14320005D06E0082D02D147
:102CF0004420005D01E04520005D8046012F02D1A7
:102D0000B8F1010F02D00120BDE8F0811DB9022009
:102D100084F83E000EE0042D03D102213F2001552E
:102D200008E0082D03D102214020015502E00221D4
:102D3000412001551DB9022084F842000EE0042D07
:102D400003D102214320015508E0082D03D10221BF
:102D50004420015502E002214520015535B1042DE2
:102D60000BD0082D10D00C2D1CD114E02068C068A9
:102D700040F002002168C86015E02068C06840F09B
:102D800004002168C8600EE02068C06840F00800B8
:102D90002168C86007E02068C06840F01000216822
:102DA000C86000E000BF00BF01222946206800F093
:102DB000A7FE16492068884213D01549206888422A
:102DC0000FD02068B0F1804F0BD0124920688842A4
:102DD00007D011492068884203D0104920688842F2
:102DE0000CD12068806800F00706062E0CD0206801
:102DF000006840F001002168086005E02068006874
:102E000040F001002168086000207DE7002C0140AF
:102E1000003401400004004000080040000C004065
:102E200010B5044620680069C0F34000D8B120689E
:102E3000C068C0F34000B0B16FF0020021680861C3
:102E4000012020772068806900F0030018B1204637
:102E5000FFF730FE05E0204600F0DAF8204600F0EB
:102E60008AF90020207720680069C0F38000D8B17B
:102E70002068C068C0F38000B0B16FF00400216822
:102E80000861022020772068806900F4407018B142
:102E90002046FFF70FFE05E0204600F0B9F8204677
:102EA00000F069F90020207720680069C0F3C000B5
:102EB000D8B12068C068C0F3C000B0B16FF008009E
:102EC00021680861042020772068C06900F00300B1
:102ED00018B12046FFF7EEFD05E0204600F098F817
:102EE000204600F048F90020207720680069C0F3F0
:102EF0000010D8B12068C068C0F30010B0B16FF006
:102F0000100021680861082020772068C06900F45B
:102F1000407018B12046FFF7CDFD05E0204600F0D7
:102F200077F8204600F027F9002020772068006914
:102F300000F0010058B12068C06800F0010030B115
:102F40006FF0010021680861204600F08FF92068C9
:102F50000069C0F3C01058B12068C068C0F3C01049
:102F600030B16FF08000216808612046FFF72AFC2D
:102F700020680069C0F3801058B12068C068C0F3B1
:102F8000801030B16FF0400021680861204600F0E9
:102F900087F920680069C0F3401058B12068C06804
:102FA000C0F3401030B16FF0200021680861204666
:102FB000FFF709FC10BD000010B586B004460020E4
:102FC00002900390049005900E492068884216D123
:102FD00000BF0D48806940F004000B498861084635
:102FE000806900F00400019000BF00BF4020029003
:102FF00002200390059002A90448FEF70DFC06B0DC
:1030000010BD000000040040001002400008014014
:10301000704770B504460D46164600BF94F83C0054
:10302000012801D1022070BD012084F83C0000BFBE
:1030300036B1042E1BD0082E31D00C2E5ED145E0C7
:103040002946206800F082FD2068806940F0080071
:10305000216888612068806920F004002168886107
:1030600020688069296908432168886147E029460A
:10307000206800F0A3FD2068806940F400602168AA
:1030800088612068806920F48060216888612068F8
:103090008069296940EA0120216888612FE029467A
:1030A000206800F0C9FD2068C06940F00800216870
:1030B000C8612068C06920F004002168C8612068E8
:1030C000C069296908432168C86118E02946206859
:1030D00000F0EEFD2068C06940F400602168C8611E
:1030E0002068C06920F480602168C8612068C069D8
:1030F000296940EA01202168C86100E000BF00BFE3
:1031000000BF002084F83C0000BF00BF8BE710B573
:1031100004460CB9012010BD94F83D0028B90020E8
:1031200084F83C00204600F025F8022084F83D0099
:10313000211D206800F096FC012084F8460000BFA5
:1031400084F83E0001213F200155402001554120D7
:10315000015500BF00BF012084F842004320015503
:10316000442001554520015500BF012084F83D0051
:103170000020D0E77047704770B504460D4615B97A
:1031800094F83E000BE0042D02D13F20005D06E0E4
:10319000082D02D14020005D01E04120005D0128A2
:1031A00001D0012070BD1DB9022084F83E000EE060
:1031B000042D03D102213F20015508E0082D03D141
:1031C00002214020015502E0022141200155012247
:1031D0002946206800F094FC1F492068884203D0EB
:1031E0001E492068884201D1012000E0002028B15A
:1031F0002068406C40F4004021684864164920680B
:10320000884213D01549206888420FD02068B0F159
:10321000804F0BD012492068884207D0114920689E
:10322000884203D01049206888420CD12068806809
:1032300000F00706062E0CD02068006840F0010060
:103240002168086005E02068006840F001002168FE
:1032500008600020A6E70000002C01400034014077
:103260000004004000080040000C00407047024687
:10327000002031B1042907D0082908D00C290CD12D
:1032800008E01368586B09E01368986B06E0136850
:10329000D86B03E01368186C00E000BF00BF7047F4
:1032A000704700BFFEE7014608684069C0F3802010
:1032B000B0B16FF480600A6850610020086320207C
:1032C00081F83D00002081F83E00086C40F00400C9
:1032D000086400BF002081F83C0000BF0120704757
:1032E0000020FCE72DE9F843044688461546994638
:1032F000DDE908672068006840F480702168086094
:10330000334600224FF001112046009700F088F864
:1033100060B12068006800F48070B0F5807F02D151
:103320004FF4007020640320BDE8F88308F0FE002D
:10333000216808613B4632462149204600F0B3F837
:1033400008B10120F0E700BF00200090206840692C
:10335000009020688069009000BF00BF3A46314667
:10336000204600F002F950B1206C042805D12068F5
:10337000006840F40070216808600120D4E7B9F1CA
:10338000010F03D1E8B22168086117E0C5F30720F7
:10339000216808613A463146204600F0E6F850B10F
:1033A000206C042805D12068006840F40070216872
:1033B00008600120B8E7E8B2216808610020B3E79F
:1033C0000200010070B504460D46164620E0204676
:1033D000FFF769FF08B1012070BD681CC0B1FEF79E
:1033E000D3FB801BA84200D895B900202063202081
:1033F00084F83D00002084F83E00206C40F020005E
:10340000206400BF002084F83C0000BF0120E3E7F7
:1034100020684069C0F380000028D8D00020DBE796
:103420002DE9F04104460D4617461E46DDF818808A
:103430001CE0701CD0B1FEF7A7FBA0EB0800B04267
:1034400000D89EB900202063202084F83D00002091
:1034500084F83E00206C40F02000206400BF002073
:1034600084F83C0000BF0120BDE8F081C5F30740AF
:1034700001280AD120684069A9B20840A9B288424F
:1034800001D101200BE0002009E020688069A9B289
:103490000840A9B2884201D1012000E00020B842D2
:1034A000C7D00020E0E72DE9F04104460D4616465E
:1034B0001F463DE020684069C0F38020E8B12068E5
:1034C000006840F40070216808606FF48060216833
:1034D000486100202063202084F83D00002084F80B
:1034E0003E00206C40F00400206400BF002084F8FF
:1034F0003C0000BF0120BDE8F081701CC0B1FEF7A8
:1035000043FBC01BB04200D896B9002020632020A6
:1035100084F83D00002084F83E00206C40F020003C
:10352000206400BF002084F83C0000BF0120E2E7D7
:10353000C5F3074001280AD120684069A9B20840B4
:10354000A9B2884201D101200BE0002009E02068E7
:103550008069A9B20840A9B2884201D1012000E0E7
:1035600000200028A6D00020C5E770B504460D460F
:10357000164620E02046FFF796FE08B1012070BDF8
:10358000681CC0B1FEF700FB801BA84200D895B9AB
:1035900000202063202084F83D00002084F83E00B5
:1035A000206C40F02000206400BF002084F83C0024
:1035B00000BF0120E3E720684069C0F3C010002885
:1035C000D8D00020DBE7000000B585B000200190D6
:1035D00002900390049000BF3748806940F02000BB
:1035E000354988610846806900F02000009000BFDE
:1035F00000BF00BF0846806940F01000886108469F
:10360000806900F01000009000BF00BF00BF0846B6
:10361000806940F0040088610846806900F0040079
:10362000009000BF00BF00BF0846806940F008005E
:1036300088610846806900F00800009000BF00BF64
:10364000002241F21F011D48FEF798FA00224FF4B4
:1036500080711B48FEF792FA41F21F000190012091
:103660000290002003900220049001A91348FEF765
:10367000D3F84FF4F070019000200290039001A95C
:103680000E48FEF7C9F84FF48070019001200290B7
:10369000002003900220049001A90948FEF7BCF81D
:1036A0004FF40070019000200290039001A904489B
:1036B000FEF7B2F805B000BD001002400010014056
:1036C0000008014010B50B480B4908600B484860E2
:1036D000002109488160C1604FF4804101610021EF
:1036E00041618161C1610162FEF754FA08B1FDF7E1
:1036F00009F910BD0054004048010020A0860100D7
:1037000000B58BB000200790089009900A900590B2
:10371000069001900290039004904FF080401F4962
:10372000086040F69F70486000211C48816049F69F
:103730003F41C160002101618161FFF793F808B149
:10374000FDF7E0F84FF48050079007A91348FFF702
:103750002DF908B1FDF7D6F81048FFF775FA08B152
:10376000FDF7D0F800200590069005A90B48FFF75B
:103770002BF808B1FDF7C6F8002001900120029057
:10378000002003900490002201A90448FFF7F2F9F9
:1037900008B1FDF7B7F80BB000BD00009C01002098
:1037A00000B58DB0002009900A900B900C90079006
:1037B00008901C216846FCF700FD2048204908605D
:1037C0004F20486000211E48816040F2E731C1600F
:1037D000002101618161FFF745F808B1FDF792F81A
:1037E0004FF48050099009A91548FFF7DFF808B198
:1037F000FDF788F81248FFF78AFC08B1FDF782F858
:1038000000200790089007A90D48FEF7DDFF08B1DA
:10381000FDF778F86020009000200190029004905D
:10382000002269460648FFF7F4FB08B1FDF76AF885
:103830000348FFF7C1FB0DB000BD000000040040CD
:10384000E40100201CB50020009001900E480F49B3
:10385000086041F63F70486000210C488160632198
:10386000C16000218161FEF7FDFF08B1FDF74AF854
:1038700000200090019069460448FEF7A5FF08B1BA
:10388000FDF740F81CBD0000001000402C02002095
:1038900000BFFEE7704700002DE9FC5F82468B46C3
:1038A000AAEB0B0000B2314908800846B0F90000CD
:1038B000FCF75AFE06462E4A2E4BFCF7D5FD044671
:1038C0000D462D480068FCF774FE804622462B46C4
:1038D000FCF723FDCDE90001FCF77EFE26490860D8
:1038E0002248008825490988401A00B224490880E6
:1038F0001E48B0F90000214908802148B0F90000B5
:10390000FCF724FE06461F4801683046FCF7D3FC4E
:103910000446194801681C480068FCF7CCFC0746BF
:103920001248B0F90000FCF711FE80461748016804
:103930004046FCF7C0FC06463946FCF764FC0546E9
:103940002146FCF760FC1249086012480088FCF729
:1039500006FE05460E4801682846FCF7A6FC04460C
:10396000FCF713FE0B490880BDE8FC9FC000002057
:10397000FCA9F1D24D62503FC4000020C2000020DB
:10398000C8000020D4000020D0000020CC0000207F
:10399000D8000020CA00002070B506460C46154627
:1039A00029462046FFF778FF01480088308070BD27
:1039B000CA0000207047000008B508490968C90816
:1039C0004FF47A72B1FBF2F14143009100BF00BFA6
:1039D00000994A1E00920029F9D108BD3400002048
:1039E000704710B5FEF7AAFA10BD00B58FB02821B8
:1039F00005A8FCF7E2FB14216846FCF7DEFB022079
:103A000005900120099010200A9002200C900021BE
:103A10000D910E9105A8FEF789FC08B1FCF772FF25
:103A20000F2000900220019000200290039004904B
:103A300000216846FEF754FB08B1FCF763FF0FB0A6
:103A400000BD704710B50248FFF7EAF910BD00004D
:103A50009C01002010B50248FFF7E2F910BD0000FC
:103A60002C02002010B50268204B98420ED0204B4B
:103A700098420BD0B0F1804F08D01E4B984205D031
:103A80001D4B984202D01D4B984203D122F0700288
:103A90004B681A43154B98420ED0154B98420BD0E9
:103AA000B0F1804F08D0134B984205D0124B98428A
:103AB00002D0124B984203D122F44072CB681A43D1
:103AC00022F080034C6943EA040202608B68C362FF
:103AD0000B688362054B984202D0054B984201D196
:103AE0000B6903630123436110BD0000002C0140FA
:103AF000003401400004004000080040000C004079
:103B000030B501F01F05012404FA05F3046A9C4353
:103B10000462046A01F01F0502FA05F52C430462F1
:103B200030BD30B50C46816821F47F4142EA03255F
:103B300025432943816030BD0A46816821F0700128
:103B400042F00703194381607047000030B5056AF1
:103B500025F001050562026A4368846924F0700457
:103B600024F003040D682C4322F002028D682A43DE
:103B7000104DA84200D103E00F4DA84206D100BF6E
:103B800022F00802CD682A4322F00402094DA8421F
:103B900002D0094DA84207D123F4807323F40073A7
:103BA0004D692B438D692B43436084614D684563A8
:103BB000026230BD002C01400034014030B5056A7E
:103BC00025F010050562026A4368846924F4E04424
:103BD00024F440740D6844EA052422F020028D6824
:103BE00042EA0512124DA84200D103E0114DA8424D
:103BF00007D100BF22F08002CD6842EA051222F010
:103C000040020B4DA84202D00A4DA84209D123F42C
:103C1000806323F400634D6943EA85038D6943EAB9
:103C20008503436084614D688563026230BD000096
:103C3000002C01400034014030B5056A25F4807540
:103C40000562026A4368C46924F0700424F0030426
:103C50000D682C4322F400728D6842EA0522124D51
:103C6000A84200D103E0114DA84207D100BF22F4C1
:103C70000062CD6842EA052222F480620A4DA84221
:103C800002D00A4DA84209D123F4805323F40053F3
:103C90004D6943EA05138D6943EA05134360C46126
:103CA0004D68C563026230BD002C01400034014004
:103CB00030B5056A25F480550562036A4468C26917
:103CC00022F4E04222F440720D6842EA052223F415
:103CD00000538D6843EA0533084DA84202D0084DD1
:103CE000A84204D124F480444D6944EA8514446018
:103CF000C2614D680564036230BD0000002C0140C4
:103D00000034014030B50B461446026A056A25F0BE
:103D100001050562816921F0F00141EA041122F0F8
:103D20000A021A438161026230BD000070B50C4680
:103D30001546066A26F0010606628169026A154E7A
:103D4000B0420ED0144EB0420BD0B0F1804F08D02C
:103D5000124EB04205D0124EB04202D0114EB042C7
:103D600001D1012600E000261EB121F00301294304
:103D700001E041F0010121F0F001F02606EA03160E
:103D8000314322F00A0204F00A06324381610262E2
:103D900070BD0000002C01400034014000040040D0
:103DA00000080040000C004030B50B461446056A80
:103DB00025F0100505628169026A21F4704141EA2B
:103DC000043122F0A00242EA03128161026230BD96
:103DD00070B50C461546066A26F010060662816923
:103DE000026A21F4407141EA052121F470414FF447
:103DF000704606EA0336314322F0A002A02606EA06
:103E0000041632438161026270BD70B50C461546DE
:103E1000066A26F480760662C169026A21F003010F
:103E2000294321F0F001F02606EA0316314322F47B
:103E300000724FF4007606EA04263243C161026242
:103E400070BD70B50C461546066A26F480560662AB
:103E5000C169026A21F4407141EA052121F47041EF
:103E60004FF4704606EA0336314322F400524FF411
:103E7000005606EA04363243C161026270BD00BFDB
:103E8000FEE700003EB50446012000F0F9FB2246A3
:103E900015A1684600F03EF80221084600F070FCCB
:103EA0000023124806C812A000F000FD17210220CE
:103EB00000F066FC0023134806C813A000F0F6FCCF
:103EC0000023104806C8684600F0F0FC2621652053
:103ED00000F056FC0123054806C80DA000F0E6FCE2
:103EE00000F054FC3EBD00002564000038000020B6
:103EF00053686172696620556E697665727369747C
:103F0000790000004000002053706565643A0000AD
:103F100052504D000FB4084B10B504A902AA0398E3
:103F200000F03CF8044602A9002000F0E1F8204629
:103F300010BC5DF814FB0000F14000080248006866
:103F4000C0F30220704700000CED00E010B500281F
:103F500004DB0A07130E054A135406E00A07140E81
:103F6000034A00F00F031B1FD45410BD00E400E00F
:103F700018ED00E000487047E400002002E008C8A7
:103F8000121F08C1002AFAD170477047002001E0D3
:103F900001C1121F002AFBD1704700002DE9FF4F1D
:103FA00089B09B460446002506E025280BD05A46DA
:103FB0000B999047641C6D1C20780028F5D10DB03A
:103FC0002846BDE8F08F0027B8460122474900E0A7
:103FD000074314F8013F203B02FA03F00842F7D1EF
:103FE00020782E2819D114F8010F47F004072A2849
:103FF0000ED06FF02F022078A0F1300109290CD8E3
:1040000008EB880102EB410100EB0108641CF2E7B8
:104010000A98641C50F8048B0A9020780028CED0AF
:10402000642808D0692806D075281ED05A460B99F6
:1040300090476D1C58E00A994FF00A0901C90A918E
:10404000002802DA40422D2102E0390504D52B2157
:104050008DF82010012103E0F90704D02021F7E7B3
:104060008A4608AE0DE00021FAE70A994FF00A09E6
:1040700001C90A91F7E74946FCF7CAFA303106F858
:10408000011D0028F7D1ADEB060000F120097807EB
:1040900001D44FF00108C84502DDA8EB090000E09B
:1040A00000208046002706E008A85A46C05D0B990C
:1040B00090476D1C7F1C5745F6DB04E030205A46C4
:1040C0000B9990476D1CB8F10001A8F10108F5DCCF
:1040D00005E016F8010B5A460B9990476D1CB9F193
:1040E0000001A9F10109F4DC641C65E7092801005D
:1040F0000A68531C0B601070704770B50446204668
:10410000FCF774F885B2284670BD000000B58FB08A
:104110001448019002900390049005900690079037
:10412000089009908015ADF828008020ADF82A008D
:104130004020ADF82C002020ADF82E000120ADF875
:1041400030000220ADF832000420ADF83400082021
:10415000ADF836001020ADF8380001A800F018F8CE
:104160000FB000BD001001400246002107E0505C86
:1041700018B1054850F821007047481CC1B21429F5
:10418000F5DB02A0F8E70000700000205A000000F4
:1041900010B50446382221460E48FBF7F5FFA18DE5
:1041A00000222069FDF7EAFCE18D00226069FDF73D
:1041B000E5FC218E0022A069FDF7E0FC618E002263
:1041C000E069FDF7DBFCA18E0022206AFDF7D6FC3A
:1041D00010BD00007406002010B50446002000F059
:1041E000D7F86A4A918C1068FDF7B6FC08B1012037
:1041F00000E000202070654AD18C5068FDF7ACFCCF
:1042000008B1012000E000206070604A118D9068C4
:10421000FDF7A2FC08B1012000E00020A0705B4A7D
:10422000518DD068FDF798FC08B1012000E0002016
:10423000E070012000F0ACF8544A918C1068FDF752
:104240008BFC08B1012000E0002020714F4AD18C86
:104250005068FDF781FC08B1012000E0002060718A
:104260004A4A118D9068FDF777FC08B1012000E003
:104270000020A071454A518DD068FDF76DFC08B152
:10428000012000E00020E071022000F081F83F4AA8
:10429000918C1068FDF760FC08B1012000E000205F
:1042A00020723A4AD18C5068FDF756FC08B10120C3
:1042B00000E000206072354A118D9068FDF74CFCDB
:1042C00008B1012000E00020A072304A518DD06872
:1042D000FDF742FC08B1012000E00020E07203205D
:1042E00000F056F8294A918C1068FDF735FC08B1AA
:1042F000012000E000202073244AD18C5068FDF793
:104300002BFC08B1012000E0002060731F4A118DD2
:104310009068FDF721FC08B1012000E00020A073A7
:104320001A4A518DD068FDF717FC08B1012000E052
:104330000020E073042000F02BF8144A918C1068E0
:10434000FDF70AFC08B1012000E0002020740F4AAC
:10435000D18C5068FDF700FC08B1012000E000207E
:1043600060740A4A118D9068FDF7F6FB08B10120D0
:1043700000E00020A074054A518DD068FDF7ECFBE9
:1043800008B1012000E00020E07410BD7406002098
:1043900010B50446052C22D2DFE804F00322416068
:1043A0007F004E4A918D10690122FDF7E7FB4B4AD1
:1043B000D18D50690022FDF7E1FB484A118E9069CA
:1043C0000022FDF7DBFB454A518ED0690022FDF744
:1043D000D5FB424A918E106A0022FDF7CFFB7BE0AD
:1043E0003E4AD18D50690122FDF7C8FB3B4A918DB1
:1043F00010690022FDF7C2FB384A118E9069002235
:10440000FDF7BCFB354A518ED0690022FDF7B6FBA3
:10441000324A918E106A0022FDF7B0FB5CE02F4A11
:10442000118E90690122FDF7A9FB2C4AD18D5069AC
:104430000022FDF7A3FB294A918D10690022FDF7A8
:104440009DFB264A518ED0690022FDF797FB234A37
:10445000918E106A0022FDF791FB3DE01F4A518EBC
:10446000D0690122FDF78AFB1C4AD18D50690022D8
:10447000FDF784FB194A118E90690022FDF77EFB3F
:10448000164A918D10690022FDF778FB134A918E30
:10449000106A0022FDF772FB1EE0104A918E106A2E
:1044A0000122FDF76BFB0D4AD18D50690022FDF70B
:1044B00065FB0A4A118E90690022FDF75FFB074AEF
:1044C000518ED0690022FDF759FB044A918D106985
:1044D0000022FDF753FB00BF00BF10BD7406002093
:1044E00086B035A03549486035A1344801610C30AB
:1044F000FCF7E8FC31481830FCF780FA2F48FCF74D
:104500000BFC2E483030FDF79DF82C483C30FCF772
:104510006FFE2A484830FCF7D7FF28485430FCF794
:104520007BFBFDF717FDFFF760FAFFF74DF8FFF78C
:10453000C9F8FFF7E5F8FFF785F9FFF731F900F063
:10454000B9F8FFF7E3FD4FF4A270FFF79BFC0021E1
:104550001C48FEF7ADFB00211B48FEF70DFE0021B5
:104560001948FEF784FE1949088064200880FCF78A
:10457000ADFD124A0C3207CA03AB07C301208DF808
:1045800016001248008810490968486313E0642047
:10459000FDF72EF94FF480510D48FDF7E5FA074A73
:1045A00003A96846FCF7B6FD9DE8070003AB07C307
:1045B0006420FDF71DF9EAE748000000E80000204C
:1045C000420000009C010020E401002026000020A1
:1045D000001001400149096848637047E401002068
:1045E000F0B503461446802B01DA402900DBF0BD0C
:1045F0002148007920B10CB9012000E000200446D8
:10460000012C1CD1CD1701EB5575ED1003EBC51531
:104610001A4E755D0A46CE1701EB5676F610A1EBE1
:10462000C6070126BE403543EEB20846CD1701EB62
:104630005575ED1003EBC515104F7E551AE0CD17DB
:1046400001EB5575ED1003EBC5150C4E755D0A4673
:10465000CE1701EB5676F610A1EBC6070126BE4039
:10466000B5430846CE1701EB5676F61003EBC61697
:10467000024FBD5500BFBAE7500000207402002071
:104680000146002006E009B9002200E0FF22034BAA
:104690001A54401CB0F5806FF5D3704774020020A7
:1046A0000349097801700249897841707047000018
:1046B0005000002010B56420FDF79AF8AE2000F0FD
:1046C000E3F8202000F0E0F8102000F0DDF8B02042
:1046D00000F0DAF8C82000F0D7F8002000F0D4F895
:1046E000102000F0D1F8402000F0CEF8812000F03A
:1046F000CBF8FF2000F0C8F8A12000F0C5F8A620F4
:1047000000F0C2F8A82000F0BFF83F2000F0BCF88D
:10471000A42000F0B9F8D32000F0B6F8002000F093
:10472000B3F8D52000F0B0F8F02000F0ADF8D920B3
:1047300000F0AAF8222000F0A7F8DA2000F0A4F890
:10474000122000F0A1F8DB2000F09EF8202000F0FD
:104750009BF88D2000F098F8142000F095F8AF2019
:1047600000F092F80020FFF78BFF00F00FF8002018
:104770000249088048800120487110BD5000002087
:10478000014A108051807047500000203EB500243F
:104790001AE004F1B001C8B200F076F8002000F091
:1047A00073F8102000F070F864218022084802FBA2
:1047B00004000123CDE90121009040227821054821
:1047C000FDF7D0FA601CC4B2082CE2DB3EBD00004D
:1047D00074020020480100202DE9FF4107461E46D3
:1047E000284800889DF804100844802806DA2548E7
:1047F00040889DF805100844402803DB002004B0E1
:10480000BDE8F081002430E0A7F120009DF80510FC
:1048100000FB0140029931F81080002520E008FAE1
:1048200005F000F4004058B1164A92782244D1B203
:10483000144A12782A44D0B23246FFF7D1FE0EE075
:104840000EB9012300E000231A460E4B9B78234447
:10485000D9B20C4B1B782B44D8B2FFF7C1FE6D1CAC
:104860009DF80400A842DAD8641C9DF80500A04217
:10487000CAD8044800889DF80410084401490880FB
:104880003846BCE75000002001B584B00A20012161
:1048900004AA0B46CDE900210290002278210248AB
:1048A000FDF760FA05B000BD480100203FB50446A1
:1048B0001D460CE020782B46DDE90112FFF78CFF46
:1048C0002178884202D0207804B030BD641C207862
:1048D0000028EFD12078F7E700000000000000007A
:1048E0000102030406070809000000000102030496
:1048F00000000000000000000000000000000000B8
:104900000000000000100010001000100010001047
:10491000000000100000000000280028002800000F
:10492000000000000000000000000000002400243F
:10493000007C00240048007C004800480000000083
:10494000003800540050003800140054005400385F
:1049500000100000002000540058003000280054CF
:1049600000140008000000000010002800280010BB
:10497000003400480048003400000000001000101F
:104980000010000000000000000000000000000017
:10499000000800100020002000200020002000203F
:1049A000001000080020001000080008000800089F
:1049B0000008000800100020001000380010002837
:1049C00000000000000000000000000000000000E7
:1049D00000100010007C001000100000000000001B
:1049E00000000000000000000000000000000010B7
:1049F000001000100000000000000000000000385F
:104A000000000000000000000000000000000000A6
:104A10000000000000000010000000000008000876
:104A20000010001000100010002000200000000006
:104A3000003800440044005400440044004400385E
:104A400000000000001000300050001000100010A6
:104A50000010001000000000003800440044000472
:104A6000000800100020007C000000000038004416
:104A70000004001800040004004400380000000096
:104A800000080018002800280048007C00080008E2
:104A900000000000007C004000400078000400049A
:104AA0000044003800000000003800440040007856
:104AB000004400440044003800000000007C000472
:104AC000000800100010002000200020000000005E
:104AD00000380044004400380044004400440038DA
:104AE000000000000038004400440044003C000482
:104AF000004400380000000000000000001000002A
:104B00000000000000000010000000000000000095
:104B10000000001000000000000000100010001055
:104B200000000000000C003000400030000C0000CD
:104B300000000000000000000000007C0000007C7D
:104B400000000000000000000000000000600018ED
:104B5000000400180060000000000000003800445D
:104B60000004000800100010000000100000000009
:104B700000380044004C0054005C00400040003805
:104B80000000000000100028002800280028007CF9
:104B90000044004400000000007800440044007815
:104BA0000044004400440078000000000038004445
:104BB0000040004000400040004400380000000079
:104BC0000070004800440044004400440048007065
:104BD00000000000007C00400040007C00400040DD
:104BE0000040007C00000000007C00400040007895
:104BF0000040004000400040000000000038004439
:104C000000400040005C0044004400380000000008
:104C1000004400440044007C00440044004400443C
:104C200000000000003800100010001000100010FC
:104C3000001000380000000000040004000400041C
:104C40000004000400440038000000000044004854
:104C50000050006000500048004800440000000080
:104C60000040004000400040004000400040007C08
:104C7000000000000044006C006C0054004400443C
:104C8000004400440000000000440064006400543C
:104C90000054004C004C0044000000000038004468
:104CA0000044004400440044004400380000000078
:104CB0000078004400440044007800400040004078
:104CC0000000000000380044004400440044004458
:104CD0000054003800040000007800440044004400
:104CE00000780048004800440000000000380044FC
:104CF00000400030000800040044003800000000BC
:104D0000007C0010001000100010001000100010B7
:104D100000000000004400440044004400440044FB
:104D20000044003800000000004400440044002813
:104D3000002800280010001000000000004400447B
:104D4000005400540054006C0028002800000000AB
:104D5000004400280028001000100028002800440B
:104D6000000000000044004400280028001000104B
:104D70000010001000000000007C0004000800107B
:104D8000001000200040007C00000000001800100F
:104D9000001000100010001000100010001000188B
:104DA0000020002000100010001000100008000873
:104DB0000000000000300010001000100010001073
:104DC00000100010001000300010002800280044DF
:104DD00000000000000000000000000000000000D3
:104DE000000000000000000000000000000000FEC5
:104DF0000020001000000000000000000000000083
:104E0000000000000000000000380044003C0044A6
:104E1000004C0034000000000040004000580064D6
:104E2000004400440064005800000000000000003E
:104E300000380044004000400044003800000000FA
:104E4000000400040034004C00440044004C0034D2
:104E5000000000000000000000380044007C00401A
:104E60000044003800000000000C0010007C00101E
:104E700000100010001000100000000000000000F2
:104E80000034004C00440044004C0034000400781E
:104E900000400040005800640044004400440044C6
:104EA0000000000000100000007000100010001052
:104EB0000010001000000000001000000070001042
:104EC0000010001000100010001000E00040004032
:104ED00000480050006000500048004400000000FE
:104EE00000700010001000100010001000100010E2
:104EF000000000000000000000780054005400543E
:104F0000005400540000000000000000005800643D
:104F10000044004400440044000000000000000081
:104F20000038004400440044004400380000000001
:104F30000000000000580064004400440064005871
:104F400000400040000000000034004C00440044D9
:104F5000004C00340004000400000000005800640D
:104F60000040004000400040000000000000000041
:104F70000038004400300008004400380000000001
:104F800000200020007800200020002000200018D1
:104F90000000000000000000004400440044004401
:104FA000004C0034000000000000000000440044F9
:104FB0000028002800280010000000000000000069
:104FC000005400540054006C002800280000000029
:104FD00000000000004400280010001000280044D9
:104FE00000000000000000000044004400280028E9
:104FF000001000100010006000000000007C00089D
:10500000001000200040007C00000000001800108C
:1050100000100010002000200010001000100018E8
:105020000010001000100010001000100010001000
:1050300000100010003000100010001000080008E0
:10504000001000100010003000000000000000748C
:10505000004C000000000000000000000000000004
:105060000000000000000000000000000000000040
:105070000000000000000000000000000000000030
:105080000000000C000C000C000C000C000C000CCC
:10509000000C000C000C000C0000000C000C0000C8
:1050A000000000000000001B001B001B001B001B79
:1050B00000000000000000000000000000000000F0
:1050C0000000000000000000000080198019801915
:1050D0008019C07FC07F80190033C07FC07F00333C
:1050E0000033003300330000000000000000001E09
:1050F000003F807580650074003C001E000780053D
:10510000806580658075003F001E0004000400007B
:105110000000007000D840D8C0D880D900730006C5
:10512000000C801BC036C066C046C006800300006D
:10513000000000000000001E003F00330033003379
:10514000001E000CC03CC066806380618063C03E6E
:10515000801C0000000000000000000C000C000C8F
:10516000000C000C00000000000000000000000027
:1051700000000000000000000000000080000001AE
:105180000003000600060004000C000C000C000CDC
:10519000000C000C00040006000600030001800063
:1051A000002000100018000C000C0004000600068F
:1051B00000060006000600060004000C000C0018A3
:1051C000001000200000000C002D003F001E0033E6
:1051D00000000000000000000000000000000000CF
:1051E0000000000000000000000000000000000CB3
:1051F000000C000C000CC0FFC0FF000C000C000CE9
:10520000000C000000000000000000000000000092
:10521000000000000000000000000000000000008E
:10522000000000000000000C000C00040004000856
:10523000000000000000000000000000000000006E
:105240000000001E001E0000000000000000000022
:10525000000000000000000000000000000000004E
:105260000000000000000000000000000000000C32
:10527000000C000000000000000000030003000319
:105280000006000600060006000C000C000C000CD6
:105290000018001800180000000000000000001EA8
:1052A000003F0033806180618061806D806D80612E
:1052B000806180610033003F001E0000000000009C
:1052C00000000006000E001E003600260006000644
:1052D00000060006000600060006000600060000A4
:1052E000000000000000001E003F807380618061AC
:1052F000800100030006000C001800300060807F71
:10530000807F0000000000000000001C003E0063E1
:1053100000630003000E000E000380018001806125
:105320008073003F001E0000000000000000000627
:10533000000E000E001E001E00160036003600662D
:10534000807F807F0006000600060000000000004D
:105350000000007F007F006000600060006E007F42
:1053600080638001800180618073003F001E000027
:10537000000000000000001E003F803380610060DC
:10538000006E007F80738061806180618033003FA8
:10539000001E0000000000000000807F807F800170
:1053A0000003000300060006000C000C000C0008BF
:1053B0000018001800180000000000000000001E87
:1053C000003F8063806180610021001E003F80619A
:1053D000806180618061003F001E000000000000CD
:1053E0000000001E003F0073806180618061807357
:1053F000803F801D800180610073003F001E00001F
:105400000000000000000000000000000000000C90
:10541000000C000000000000000000000000000C74
:10542000000C000000000000000000000000000070
:1054300000000000000C000C000000000000000054
:105440000000000C000C0004000400080000000034
:105450000000000080008003000E0038006000386B
:10546000000E80038000000000000000000000002B
:1054700000000000000000000000807F807F00002E
:105480000000807F807F000000000000000000001E
:10549000000000000000000000000000004000705C
:1054A000001C000780010007001C00700040000085
:1054B00000000000000000000000001F803FC071DD
:1054C000C060C000C00180030007000E000C000C8B
:1054D0000000000C000C0000000000000000001E96
:1054E000003F803180718063806F806D806D806F40
:1054F000806700600032003E001C000000000000D9
:105500000000000E000E001B001B001B001B803162
:105510008031803F803F8031C060C060C06000004B
:10552000000000000000007C007E00630063006358
:105530000063007E007E0063806180618063007F85
:10554000007E0000000000000000001E003F8031CF
:105550008061006000600060006000600060806149
:105560008031003F001E0000000000000000007CB1
:10557000007F006380638061806180618061806101
:10558000806100630063007E007C0000000000007A
:105590000000807F807F0060006000600060007F0E
:1055A000007F0060006000600060807F807F0000FE
:1055B000000000000000807F807F006000600060CD
:1055C0000060007F007F006000600060006000609D
:1055D00000600000000000000000001E003F80315D
:1055E0008061006000600060806380638061806132
:1055F0008031803F001E000000000000000080613C
:1056000080618061806180618061807F807F806156
:105610008061806180618061806100000000000025
:105620000000003F003F000C000C000C000C000CC0
:10563000000C000C000C000C000C003F003F0000B0
:1056400000000000000080018001800180018001D5
:105650008001800180018001806180618073003F52
:10566000001E0000000000000000C06080610063B8
:1056700000660066006C0078007C006600660063CF
:1056800080618061C06000000000000000000060D8
:10569000006000600060006000600060006000600A
:1056A000006000600060807F807F000000000000DC
:1056B0000000C071C071C07BC07AC06AC06AC06E91
:1056C000C064C060C060C060C060C060C0600000F6
:1056D00000000000000080718071807980798079FD
:1056E000806D806D806D8065806780678067806376
:1056F00080630000000000000000001E003F003337
:105700008061806180618061806180618061806191
:105710000033003F001E0000000000000000007E7B
:10572000007F80638061806180618063007F007E94
:105730000060006000600060006000000000000089
:105740000000001E003F0033806180618061806145
:1057500080618061806580670033803F401E00006B
:10576000000000000000007E007F80638061806197
:105770008063007F007E006600630063806180615B
:10578000C0600000000000000000000E001F80311B
:10579000803100300038001E000780038061806186
:1057A0008031003F001E0000000000000000C0FF2C
:1057B000C0FF000C000C000C000C000C000C000CD6
:1057C000000C000C000C000C000C0000000000009D
:1057D00000008061806180618061806180618061A2
:1057E00080618061806180618073003F001E0000E5
:1057F000000000000000C060C060C06080318031E7
:105800008031001B001B001B001B000E000E000E51
:1058100000040000000000000000C0C0C0C0C0C004
:10582000C0C0C0C0C0CC804C804C805E80528052D2
:105830008073806180610000000000000000C0C033
:10584000806080610033003B001E000C000C001ED5
:10585000001F003B80718061C0C00000000000009C
:105860000000C0C08061806100330033001E001E54
:10587000000C000C000C000C000C000C000C0000D4
:10588000000000000000803F803F80010003000313
:105890000006000C000C0018001800300060807F2B
:1058A000807F000000000000000F000F000C000CC3
:1058B000000C000C000C000C000C000C000C000C88
:1058C000000C000C000C000C000F000F0000001872
:1058D00000180018000C000C000C000C000600065C
:1058E00000060006000300030003000000000000A3
:1058F000001E001E00060006000600060006000648
:105900000006000600060006000600060006000667
:10591000001E001E0000000C000C001E00120033D0
:105920000033806180610000000000000000000082
:105930000000000000000000000000000000000067
:105940000000000000000000000000000000000057
:105950000000000000000000E0FF00000000003830
:105960000018000C00000000000000000000000013
:105970000000000000000000000000000000000027
:1059800000000000000000000000001F803F806158
:105990008001801F803F80618063807FC03800006D
:1059A0000000000000000060006000600060006E09
:1059B000007F807380618061806180618073007F7F
:1059C000006E000000000000000000000000000069
:1059D0000000001E003F80738061006000608061F5
:1059E0008073003F001E00000000000000008001E6
:1059F000800180018001801D803F80738061806113
:105A0000806180618073803F801D00000000000085
:105A100000000000000000000000001E003F0073B6
:105A20008061807F807F00608071003F001E0000E9
:105A3000000000000000C007C00F000C000C807FB9
:105A4000807F000C000C000C000C000C000C000C03
:105A5000000C00000000000000000000000000003A
:105A6000801D803F80738061806180618061807370
:105A7000803F801D80018063007F003E0000006049
:105A8000006000600060006F807F807180618061D5
:105A900080618061806180618061000000000000A1
:105AA00000000006000600000000003E003E000668
:105AB00000060006000600060006000600060000BC
:105AC000000000000006000600000000003E003E4E
:105AD0000006000600060006000600060006000696
