:020000040800F2
:10000000800A0020450100089D310008AB2B000844
:10001000993100086B0300086736000800000000F3
:10002000000000000000000000000000C9310008CE
:100030006F030008000000009F310008CB3100086A
:100040005F0100085F0100085F0100085F01000810
:100050005F0100085F0100085F0100085F01000800
:100060005F0100085F0100085F0100085F010008F0
:100070005F0100085F0100085F0100085F010008E0
:100080005F0100085F0100085F0100085F010008D0
:100090005F0100085F0100085F0100085F010008C0
:1000A0005F0100085F0100085F0100085F010008B0
:1000B0002D3200085F0100085F0100085F010008A1
:1000C0005F0100085F0100085F0100085F01000890
:1000D0005F0100085F0100085F0100085F01000880
:1000E0005F0100085F0100085F0100085F01000870
:1000F0005F0100085F0100085F0100085F01000860
:100100005F0100085F0100085F0100085F0100084F
:100110005F0100085F0100083D3200085F01000830
:100120005F0100085F0100085F0100085F0100082F
:10013000DFF80CD000F0A6F800480047C53C0008E6
:10014000800A00200648804706480047FEE7FEE791
:10015000FEE7FEE7FEE7FEE7FEE7FEE7FEE7FEE777
:100160002B3200083101000840EA01039B0703D04D
:1001700009E008C9121F08C0042AFAD203E011F8E6
:10018000013B00F8013B521EF9D27047D2B201E0A8
:1001900000F8012B491EFBD270470022F6E710B58C
:1001A00013460A4604461946FFF7F0FF204610BDE5
:1001B00010B5002200E0521C835C8C5CA34201D18C
:1001C000002BF8D1D8B2E1B2401A10BD70B5064686
:1001D00003F0C4FA046805460A220021304600F004
:1001E00018F82C6070BD30B50B4601460020202267
:1001F000012409E021FA02F59D4205D303FA02F534
:10020000491B04FA02F52844151EA2F10102F1DC93
:1002100030BD2DE9F04791460F4680460446002642
:1002200014F8015B2DB100F03FF80068405DC00795
:10023000F6D12B2D02D02D2D18D0641E4A463946FA
:10024000204600F035F827B13968A14201D1C7F83E
:10025000008071054FF002040BD54042002803DDF9
:1002600003F07CFA0460A007BDE8F08746F48066DE
:10027000E4E70028F8DA03F071FA04606FF0004058
:10028000F2E70000064C074D06E0E06840F001038D
:1002900094E8070098471034AC42F6D3FFF74CFFC0
:1002A000A0690008C0690008004870474469000858
:1002B0002DE9F05F82460078002715468B460AF14B
:1002C0000104B946302801D09DB113E014F8010BA8
:1002D0000127782803D0582801D045B10AE00DB194
:1002E000102D07D10027102514F8010B02E0082576
:1002F00000E00A250026B0460EE005FB080005FBDD
:1003000006F1012701EB10461FFA80F8B6F5803F91
:1003100000D3B94614F8010B294600F018F800285C
:10032000EBDABBF1000F05D00FB1641E00E05446BC
:10033000CBF80040B9F1000F06D003F00FFA02210C
:100340000160C81EBDE8F09F48EA0640FAE73A2877
:1003500000D2303820F02002412A01D3A2F1370028
:10036000884201D34FF0FF30704700BFFEE770476F
:1003700070472DE9F04105460C4616461F46207889
:10038000082837D2DFE800F0041A2136130C282F92
:100390003B4632462146284600F000FABDE8F0818F
:1003A0003B4632462146284600F0D0FAF6E73B4667
:1003B00032462146284600F065F8EFE73B463246D4
:1003C0002146284600F048FEE8E73B4632462146F3
:1003D000284600F023FCE1E73B463246214628460A
:1003E00000F07CFDDAE73B4632462146284600F025
:1003F00055F9D3E700BF00BFD0E70FB410B5002216
:100400008A7204AA1CCA80E81C0010BC5DF814FBA8
:1004100010B504460120A0722078082821D2DFE818
:1004200000F0041014200C08181C204600F0DEF91F
:1004300017E0204600F0E4FA13E0204600F04CF804
:100440000FE0204600F030FE0BE0204600F0A2FC5A
:1004500007E0204600F06AFD03E0204600F048F97E
:1004600000BF00BF10BD00000421017004A1416065
:100470000021017201214172002181727047000048
:1004800061000000F8B506460F4614461D460020E0
:100490000E49087048700EA42078652808D1686954
:1004A000009039463046D5E90323FFF7A6FFF8BD93
:1004B0000020064B0090074806C8204600F084FE46
:1004C00000BF00BF03F040FD00BFF0E75F00002069
:1004D0006500000038000020F8B5064600203349CA
:1004E0000870487000250124284603F0A7FC03F09B
:1004F0002BFD02202D4948700B462D48009406C85C
:100500002CA000F061FE2346294806C8274800F0C9
:100510001FFB0020254948700B462548009406C85B
:1005200029A000F051FE2346214806C81F4800F0CC
:100530000FFB1E484078001D1C4948700B461C48A4
:10054000009406C824A000F03FFE2346184806C8C1
:10055000164800F0FDFA154B1548009406C822A075
:1005600000F032FE2346124806C8104800F0F0FAA8
:100570000E4B0F48009406C81FA000F025FE23462E
:100580000B4806C8094800F0E3FA084B08480094F5
:1005900006C81EA000F018FE2346054806C80348FA
:1005A00000F0D6FA03F0D0FCF8BD00005F00002098
:1005B000380000205F5F5F5F5F5F5F5F5F5F5F5F6F
:1005C0005F5F5F5F0000000052504D20636F6E74EC
:1005D000726F6C6C6572000064657369676E656448
:1005E0002062793A00000000416C692046656C6524
:1005F00020506172616E6A00456C616865204D6FC4
:100600006C6C616865796461720000004E6F76659C
:100610006D62657220323032300000002DE9F04109
:1006200006460F4614461D463078397890FBF1F2A5
:1006300001FB120010BB207880B16978287803F0A4
:100640007DFC01230EA0DDE9061203F00DFD94F9F7
:100650000000C043207003F077FC0FE06978287831
:1006600003F06CFC002306A0DDE9061203F0FCFC9D
:1006700094F90000C043207003F066FCBDE8F081EF
:10068000200000000721017003A1416001210172D7
:10069000002141728172704777000000F8B506466C
:1006A0000F4614461D4600200E49087048700EA4DF
:1006B0002078452808D1686C009039463046D5E945
:1006C0000F23FFF79AFEF8BD0020064B0090074865
:1006D00006C8204600F078FD00BF00BF03F034FCE0
:1006E00000BFF0E75F000020450000003800002058
:1006F00010B50446002014490870487003F09EFBB2
:10070000002003F09BFB0821112003F017FC0123BC
:100710000E4806C80EA003F0A7FC2321022003F018
:100720000DFC01230D4806C80DA003F09DFC2E21F1
:10073000022003F003FC0123084806C80CA003F0C4
:1007400093FC03F001FC10BD5F000020400000207E
:10075000496E76616C696421000000003800002059
:1007600031323C73706565643C3430300000000009
:10077000707265737320616E79206B65792E2E2EF1
:10078000000000000021017003A1416001210172FD
:1007900000214172817270474D000000F8B5064695
:1007A0000F4614461D4600200E49087048702078F8
:1007B000652808D16869009039463046D5E9032399
:1007C000FFF71BFEF8BD0020064B0090064806C848
:1007D000204600F0F9FC00BF00BF03F0B5FB00BFEE
:1007E000F0E700005F0000203800002010B504464C
:1007F0000020444908704870012003F01FFB03F0FB
:10080000A3FB0A210F2003F099FB00233E4806C8F2
:100810003EA003F029FC2421302003F08FFB0023AD
:10082000394806C83CA003F01FFC03F08DFB4FF4D1
:10083000FA7000F0DBFC002003F000FB0A210F201F
:1008400003F07CFB0123304806C830A003F00CFC09
:100850002421302003F072FB01232B4806C82EA070
:1008600003F002FC03F070FB4FF4FA7000F0BEFCE2
:10087000012003F0E3FA0A210F2003F05FFB0023BD
:10088000214806C821A003F0EFFB2421302003F00B
:1008900055FB00231C4806C81FA003F0E5FB03F02E
:1008A00053FB4FF4FA7000F0A1FC002003F0C6FAED
:1008B0000A210F2003F042FB0123134806C813A0AE
:1008C00003F0D2FB2421302003F038FB01230E4833
:1008D00006C811A003F0C8FB03F036FB4FF4FA7012
:1008E00000F084FC012003F0A9FA0A21052003F09E
:1008F00025FB0023094806C809A003F0B5FB03F057
:1009000023FB10BD5F000020400000204E616E6F91
:1009100020546563680000004C61620038000020CC
:100920005072657373204573632E2E2E00000000F5
:100930000521017004A14160002101720121417271
:1009400000218172704700006D0000002DE9FC411C
:1009500006460F4615461C4600202349087048707D
:1009600022A12846FFF724FC78B3287831280DD03F
:10097000322814D034281BD1206A009039463046E2
:10098000D4E90623FFF739FDBDE8FC81A06B009098
:1009900039463046D4E90C23FFF72FFDF4E7606CAD
:1009A000009039463046D4E90F23FFF726FDEBE7E8
:1009B00000200D4B00900E4806C8284600F004FCAD
:1009C00000BF00BF03F0C0FA0AE0FFE7084903C90F
:1009D000054B084ACDE9000107490848FFF71EFE0C
:1009E00002A500BFD0E700005F0000205A00000011
:1009F000380000205E0000205C0000205D00002028
:100A0000F8B50646002033490870487000250124D7
:100A1000284603F013FA03F097FA02202D49487094
:100A20000B462D48009406C82CA000F0CDFB2346B1
:100A3000294806C8274800F08BF80020254948704F
:100A40000B462548009406C829A000F0BDFB2346AC
:100A5000214806C81F4800F07BF81E484078001D5A
:100A60001C4948700B461C48009406C824A000F09E
:100A7000ABFB2346184806C8164800F069F8154B2A
:100A80001548009406C822A000F09EFB2346124899
:100A900006C8104800F05CF80E4B0F48009406C8DA
:100AA0001FA000F091FB23460B4806C8094800F040
:100AB0004FF8084B0848009406C81CA000F084FBBF
:100AC0002346054806C8034800F042F803F03CFA04
:100AD000F8BD00005F000020380000205F5F5F5F0E
:100AE0005F5F5F5F5F5F5F5F5F5F5F5F0000000092
:100AF0007072657373206E756D6265723A000000E6
:100B0000312E2073686F7720737065656400000074
:100B1000322E2073657420737065656400000000D8
:100B2000332E2070726F6772616D0000342E206169
:100B3000626F75740000000010B5012003F07EF9AB
:100B40000021084603F0FAF903F0FEF910BD000099
:100B50007FB504461D466178207803F0EFF92B46F7
:100B600006A0DDE9011203F07FFA60789DF8051018
:100B700008446070002020707FBD0000200000004D
:100B8000F0B58BB005460C4616461DA70020039015
:100B9000049005902046FFF73BFC00BF18A718E023
:100BA0002078012805D1204600F07EFAC82000F008
:100BB0001DFB2078022805D1204600F0CFF86420E4
:100BC00000F014FB06A802F0F9FE06A802F0BEFE33
:100BD000074638785A28E3D033463A4621466846D5
:100BE000FFF7C7FB9DE8070003AB07C3A07A002807
:100BF000D4D103A807C885E807000BB0F0BD0000FA
:100C00005A0000000221017003A14160012101721C
:100C1000002141728172704753000000F8B506460A
:100C20000F4614461D46207845280AD0652834D141
:100C30006869009039463046D5E90323FFF7DDFBAC
:100C4000F8BD4048007838B33F4802F04AFE3F49BB
:100C50000880084600880C2801DD012000E0002003
:100C60003A490988B1F5C87F01DA012100E0002185
:100C7000084040B1286D009039463046D5E912232E
:100C8000FFF7BBFBDCE7E86D009039463046D5E95D
:100C90001523FFF7B2FBD3E700BF2A4800780328EB
:100CA0001FDA2078302801DB012000E000202178C5
:100CB0003A2901DC012100E00021084088B1002030
:100CC000234B0090234806C8204600F07DFA207888
:100CD0001D491C4A127888541A480078401C19494A
:100CE00008701848007830B320786C2823D1002091
:100CF000174B0090174806C817A000F065FA144873
:100D0000007816381249087000200B4600901148F0
:100D100006C811A000F058FA0D4800780B380C49AD
:100D2000087020200849074A12788854054800783E
:100D3000401E0449087000BF00BF03F005F900BF62
:100D40007EE70000610000206400002062000020B7
:100D50005F00002040000020200000001CB5044679
:100D6000074903C9074B084ACDE90001074908486C
:100D7000FFF754FC06480078401C054908701CBD6C
:100D8000400000205F0000205E0000205C0000208A
:100D90005D0000207FB505460020304908703049CD
:100DA0000880304908704870012003F047F82E4849
:100DB00000682E4991FBF0F422462DA101A802F013
:100DC0009DFC0320274948700120087000200B4635
:100DD0000090284806C828A000F0F6F9002325480E
:100DE00006C82048FFF7B4FE01201E4948700420C1
:100DF000087001200B4600901E4806C823A000F092
:100E0000E3F900231B4806C81648FFF7A1FE172187
:100E1000022003F093F80023214806C821A003F024
:100E200023F92921682003F089F80123114806C815
:100E30001EA003F019F93521012003F07FF80123EA
:100E40000C4806C81AA003F00FF9442005490870A1
:100E50001720487003F078F87FBD00006100002083
:100E6000620000205F00002018000020C0D40100B4
:100E700025640000380000205F5F5F5F5F5F5F5F99
:100E80005F5F5F5F5F5F5F5F5F5F5F0020202020CD
:100E90005365742053706565642020202000000095
:100EA0004000002053706565643A000052504D00C8
:100EB0007365743A456E742C206D656E753A457392
:100EC000630000000621017003A14160012101724D
:100ED000002141728172704777000000F8B5064624
:100EE0000F4614461D4600200E49087048702078B1
:100EF000452808D1A86B009039463046D5E90C2327
:100F0000FFF77BFAF8BD0020064B0090064806C8A4
:100F1000204600F059F900BF00BF03F015F800BFEC
:100F2000F0E700005F0000203800002010B5044604
:100F300000202E490870487002F080FF03F004F88A
:100F40001721092002F0FAFF0123294806C829A029
:100F500003F08AF8642000F049F902F0F5FF172148
:100F6000092002F0EBFF0123214806C823A003F06B
:100F70007BF8962000F03AF902F0E6FF17210920ED
:100F800002F0DCFF01231A4806C81FA003F06CF82A
:100F9000C82000F02BF902F0D7FF1721092002F03A
:100FA000CDFF0123124806C81AA003F05DF8FA200D
:100FB00000F01CF902F0C8FF002002F03FFF1221F0
:100FC000092002F0BBFF0123094806C814A003F062
:100FD0004BF82D21002002F0B1FF0123134806C871
:100FE00013A003F041F802F0AFFF10BD5F00002036
:100FF0004000002053657474696E67005365747413
:10100000696E672E0000000053657474696E672E68
:101010002E00000053657474696E672E2E2E00003A
:10102000446F6E6521202020202020003800002001
:10103000707265737320456E742E2E2E00000000B2
:101040000121017003A1416001210172002141725F
:101050008172704773000000F8B506460F461446CB
:101060001D4600200E49087048702078652808D178
:101070006869009039463046D5E90323FFF7BDF98A
:10108000F8BD0020064B0090064806C8204600F038
:101090009BF800BF00BF02F057FF00BFF0E7000061
:1010A0005F000020380000207FB5054600202E4953
:1010B00008704870012002F0C1FE2C4800682C49DD
:1010C00091FBF0F422462BA101A802F017FB0320AC
:1010D000254948700120087000200B4600902648E2
:1010E00006C826A000F070F80023234806C81E4852
:1010F000FFF72EFD01201C494870042008700020D5
:101100000B4600901C4806C821A000F05DF80023A3
:10111000194806C81448FFF71BFD1721022002F0EA
:101120000DFF00231F4806C81FA002F09DFF0023EB
:101130001C4806C801A802F097FF2721682002F08A
:10114000FDFE01230C4806C819A002F08DFF3521D1
:10115000012002F0F3FE0123074806C815A002F0A3
:1011600083FF02F0F1FE7FBD5F0000201800002029
:10117000C0D4010025640000380000205F5F5F5F7D
:101180005F5F5F5F5F5F5F5F5F5F5F5F5F5F5F00CE
:1011900053686172696620556E6976657273697409
:1011A000790000004000002053706565643A00003B
:1011B00052504D006D656E753A20686F6C64204525
:1011C00073632E2E2E0000007FB505461C46089E38
:1011D0006178207802F0B2FE33462846DDE901123C
:1011E00002F042FF204602F039FE7FBD70B5044692
:1011F00000F0C8F906462546681C10B1044800787E
:10120000054400BF00F0BEF9801BA842FAD370BDB0
:10121000300000202DE9F847024600239C467BE180
:101220004FF0010808FA03F4D1F8008008EA04003E
:10123000A0427DD1DFF8F4A2D1F80480A8EB0A091E
:10124000D0453AD014DCB8F1030F50D009DCB8F126
:10125000000F31D0B8F1010F1CD0B8F1020F49D105
:1012600020E0B8F1110F18D0B8F1120F42D11EE0F2
:10127000B9F5881F25D006DCB9F5803F20D0B9F537
:10128000801F37D11AE0B9F5001F18D0B9F5041F37
:1012900030D117E0D1F80CC02DE0D1F80C8008F166
:1012A000040C28E0D1F80C8008F1080C23E0D1F8F8
:1012B0000C8008F10C0C1EE000BF00BF00BF00BF97
:1012C00000BF00BFD1F80880B8F1000F02D14FF085
:1012D000040C0BE0D1F80880B8F1010F03D14FF0F6
:1012E000080C146102E04FF0080C546103E04FF069
:1012F000000C00E000BF00BFFF2801D8904601E0CD
:1013000002F104084646FF2802D84FEA830803E0AA
:10131000A3F108084FEA88084746D6F800804FF046
:101320000F0909FA07F928EA09080CFA07F900E099
:101330007AE048EA0908C6F80080D1F8048008F08D
:101340008058B8F1805F6FD100BFDFF8E481D8F832
:10135000188048F00108DFF8D891C9F81880C8460D
:10136000D8F8188008F00108CDF8008000BF00BF51
:101370004FEAB9384FEA930958F829504FEA837871
:101380004FEA18794FF00F0808FA09F825EA08051E
:10139000DFF8A081424502D14FF0000824E0DFF8D9
:1013A0009881424502D14FF001081DE0DFF88C81A1
:1013B000424502D14FF0020816E0DFF88481424531
:1013C00002D14FF003080FE0DFF87881424502D1E7
:1013D0004FF0040808E0DFF87081424502D14FF079
:1013E000050801E04FF006084FEA83794FEA1979C2
:1013F00008FA09F848EA0505DFF850814FEA930931
:1014000048F82950D1F8048008F48038B8F5803FB6
:101410000BD1DFF83C81D8F8008048EA0008DFF8FB
:101420003091C9F800800AE075E0DFF82481D8F82F
:10143000008028EA0008DFF81891C9F80080D1F888
:10144000048008F40038B8F5003F0ED1DFF80081C1
:1014500008F10408D8F8008048EA0008DFF8F090A6
:1014600009F10409C9F800800DE0DFF8E48008F113
:101470000408D8F8008028EA0008DFF8D49009F1C1
:101480000409C9F80080D1F8048008F48018B8F580
:10149000801F0ED1DFF8B88008F10808D8F8008066
:1014A00048EA0008DFF8A89009F10809C9F80080A7
:1014B0000DE0DFF89C8008F10808D8F8008028EAE1
:1014C0000008DFF88C9009F10809C9F80080D1F80C
:1014D000048008F40018B8F5001F0ED1DFF8708002
:1014E00008F10C08D8F8008048EA0008DFF860909E
:1014F00009F10C09C9F800800DE0DFF8548008F10B
:101500000C08D8F8008028EA0008DFF8449009F1B8
:101510000C09C9F800805B1CD1F8008028FA03F898
:10152000B8F1000F7FF47CAEBDE8F8870000111021
:101530000010024000080140000C01400010014072
:101540000014014000180140001C01400800014047
:1015500000040140024693680B400BB1012000E0FB
:101560000020704710B5C26821EA020302EA0104B4
:1015700043EA0443036110BD0AB1016101E00B04B9
:101580000361704701480068704700002800002090
:1015900070B504460CB9012070BD94F83D0028B91F
:1015A000002084F83C00204600F08CF9242084F8C8
:1015B0003D002068006820F0010021680860206874
:1015C000006840F40040216808602068006820F44A
:1015D00000402168086000F04DFB05465C496068EA
:1015E000884206D85B48854201D2012007E00020EE
:1015F00005E05948854201D2012000E00020012881
:1016000000D1C9E75548B5FBF0F62068406820F0E6
:101610003F003043216848604D496068884201D8E6
:10162000701C07E04FF4967070434FF47A71B0FB72
:10163000F1F0401C2168096A21F03F01084321684C
:10164000086243496068884214D8681E616849008E
:10165000B0FBF1F0401CC0F30B00042801D20420C1
:101660003DE0681E61684900B0FBF1F0401CC0F32A
:101670000B0034E0A06838B9681E616801EB4101D5
:10168000B0FBF1F0401C0AE0681E616801EBC1028A
:1016900002EB0111B0FBF1F0401C40F48040C0F3BC
:1016A0000B0008B901201AE0A06848B9681E6168FB
:1016B00001EB4101B0FBF1F0401CC0F30B000CE06A
:1016C000681E616801EBC10202EB0111B0FBF1F091
:1016D000401CC0F30B0040F4804040F400402168FF
:1016E000C9694CF6FF72914308432168C861D4E987
:1016F000070108432168096821F0C00108432168F7
:101700000860D4E9031008432168896848F2FF3271
:101710009143084321688860D4E9050108432168A2
:10172000C96821F0FF0108432168C860206800688B
:1017300040F001002168086000202064202084F827
:101740003D000020206384F83E0000BF24E7000035
:10175000A086010080841E0000093D0040420F0069
:101760002DE9FC5F04460F4690469946DDE90CAB37
:101770000E9EFFF707FF054694F83D0020287DD117
:10178000192301224D492046009501F0CDFA10B1F0
:101790000220BDE8FC9F00BF94F83C00012801D165
:1017A0000220F6E7012084F83C0000BF20680068B2
:1017B00000F0010028B92068006840F001002168AD
:1017C00008602068006820F400602168086021201B
:1017D00084F83D00402084F83E0000202064C4F8D6
:1017E00024A0A4F82AB0608D20853548E0624B46DD
:1017F000424639462046CDE9006501F0F7F908B1C7
:101800000120C6E731E02A463146204601F031FB8F
:1018100050B1206C042805D12068006840F40070A5
:10182000216808600120B4E7606A007821680861D7
:10183000606A401C6062208D401E2085608D401EC5
:10184000608520684069C0F3800070B1208D60B170
:10185000606A007821680861606A401C6062208DBF
:10186000401E2085608D401E6085208D0028CAD1D5
:101870002A463146204601F029FA00E01CE050B12A
:10188000206C042805D12068006840F400702168AD
:10189000086001207DE72068006840F4007021683E
:1018A0000860202084F83D00002084F83E0000BF3E
:1018B00084F83C0000BF6CE702206AE702001000D9
:1018C0000000FFFF10B586B0044600200290039090
:1018D0000490059015492068884225D100BF14481E
:1018E000806940F00800124988610846806900F06C
:1018F0000800019000BF00BFC0200290122003909A
:101900000320059002A90B48FFF784FC00BF08489C
:10191000C06940F400100649C8610846C06900F477
:101920000010019000BF00BF06B010BD0054004081
:1019300000100240000C0140034800680349097888
:10194000084401490860704728000020300000204A
:1019500010B50848006840F01000064908600320F0
:1019600000F0A8F8002000F007F800F02BF80020A5
:1019700010BD00000020024070B504460E480078FB
:101980004FF47A71B1FBF0F00C490968B1FBF0F546
:10199000284600F0FBFB08B1012070BD102C07D2D7
:1019A00000222146501E00F047F80548046001E07F
:1019B0000120F2E70020F0E7300000203400002092
:1019C0002C00002008B500BF1148806940F00100DC
:1019D0000F4988610846806900F00100009000BF4F
:1019E00000BF00BF0846C06940F08050C86108468B
:1019F000C06900F08050009000BF00BF00BF0549E3
:101A0000486820F0E06000BF486000BF08BD0000EB
:101A1000001002400000014001460846002809DB92
:101A200000F01F0301229A4043099B0003F1E023C9
:101A3000C3F8002100BF70472DE9F05F80460D46D6
:101A40001646002701F06EFE074639462A46334601
:101A500001F00700C0F1070ABAF1040F02D94FF0F4
:101A6000040A01E0C0F1070AD14600F1040ABAF104
:101A7000070F02D24FF0000A01E0A0F1030AD4469A
:101A80004FF0010A0AFA09FAAAF1010A0AEA020A5F
:101A90000AFA0CFA4FF0010B0BFA0CFBABF1010B3D
:101AA0000BEA030B4AEA0B042146404601F042FED2
:101AB000BDE8F09F00BF00F00702064B19684FF623
:101AC000FF031940044B0B4343EA0221014B196009
:101AD00000BF70470CED00E00000FA0570B5044649
:101AE0000D460CB9012070BD5A48006800F007008F
:101AF000A8420ED25748006820F0070028435549F5
:101B000008600846006800F00700A84201D00120E4
:101B1000E9E7207800F0020002281DD1207800F0CB
:101B20000400042805D14C48406840F4E0604A496C
:101B30004860207800F00800082805D14648406831
:101B400040F46050444948604348406820F0F00049
:101B5000A168084340494860207800F0010078B34C
:101B60006068012806D13C48006800F4003090B954
:101B70000120B8E76068022806D13748006800F005
:101B8000007040B90120AEE73348006800F0020061
:101B900008B90120A7E73048406820F003006168D9
:101BA00008432D494860FFF7EDFC064609E0FFF7C2
:101BB000E9FC801B41F28831884202D9032092E778
:101BC00007E02548406800F00C006168B0EB810F29
:101BD000EDD12048006800F00700A8420ED91D484A
:101BE000006820F0070028431A490860084600688A
:101BF00000F00700A84201D0012074E7207800F02F
:101C00000400042807D11448406820F4E060E1682B
:101C1000084311494860207800F00800082808D1DE
:101C20000D48406820F46050216940EAC1000A492B
:101C3000486000F02FF808494968C1F30311074ACA
:101C4000515CC8400649086006480068FFF794FEEA
:101C5000002048E7002002400010024094400008A5
:101C6000340000202C00002001480068704700006C
:101C70003400002000B5FFF7F7FF04494968C1F3BD
:101C80000221034A515CC84000BD00000010024020
:101C9000A4400008F0B585B00FF26C0C9CE8E01091
:101CA00001A8A0E8E0101CA52D68009500210022E5
:101CB000002300240020194D696801F00C05F5B1DE
:101CC000042D02D0082D19D101E0154819E001AD0D
:101CD000C1F38346AC5D01F4803555B10F4D6D689D
:101CE000C5F340451DF805200D4D6543B5FBF2F3E6
:101CF00002E00C4D04FB05F3184602E000BF084863
:101D000000BF00BF05B0F0BD0203040506070809C7
:101D10000A0B0C0D0E0F1010010200000010024003
:101D200000127A0000093D00F8B504460CB9012004
:101D3000F8BD207800F00100002878D0F84840680D
:101D400000F00C0004280CD0F548406800F00C00AE
:101D5000082811D1F248406800F48030B0F5803F87
:101D60000AD1EF48006800F4003000285FD06068B6
:101D700000285CD10120DBE700BF6068B0F5803F40
:101D800006D1E748006840F48030E549086028E063
:101D9000606858B9E248006820F48030E049086083
:101DA0000846006820F4802008601AE06068B0F5FA
:101DB000A02F0BD1DA48006840F48020D849086091
:101DC0000846006840F4803008600AE0D4480068A3
:101DD00020F48030D24908600846006820F4802052
:101DE000086000BF606888B1FFF7CCFB054606E0DD
:101DF000FFF7C8FB401B642801D9032098E7C848B7
:101E0000006800F400300028F2D010E0FFF7BAFBC1
:101E1000054606E0FFF7B6FB401B642801D9032006
:101E200086E7BF48006800F400300028F2D120782F
:101E300000F00200022857D1B948406800F00C00B9
:101E400050B1B748406800F00C00082818D1B448D9
:101E5000406800F4803098B9B148006800F0020092
:101E600020B12069012801D0012061E7AC48006859
:101E700020F0F800616940EAC100A949086033E038
:101E80002069E8B10120A7490860FFF77BFB054600
:101E900006E0FFF777FB401B022801D9032047E744
:101EA0009F48006800F002000028F2D09C480068BB
:101EB00020F0F800616940EAC1009949086013E028
:101EC000002098490860FFF75DFB054606E0FFF734
:101ED00059FB401B022801D9032029E790480068DC
:101EE00000F002000028F2D1207800F00800082855
:101EF0002DD1A069B8B101208B490860FFF742FBE2
:101F0000054606E0FFF73EFB401B022801D90320EF
:101F10000EE78348406A00F002000028F2D001205A
:101F200001F03EF913E000207F490860FFF72AFB2B
:101F3000054606E0FFF726FB401B022801D90320D7
:101F4000F6E67748406A00F002000028F2D12078D7
:101F500000F00400042873D100277148C06900F024
:101F6000805070B900BF6E48C06940F080506C4925
:101F7000C8610846C06900F08050009000BF00BFF3
:101F800001276A48006800F48070B0B967480068AB
:101F900040F4807065490860FFF7F4FA054606E0F2
:101FA000FFF7F0FA401B642801D90320C0E65F4820
:101FB000006800F480700028F2D000BFE0680128BB
:101FC00006D15748006A40F001005549086227E0F1
:101FD000E06858B95248006A20F001005049086290
:101FE0000846006A20F00400086219E0E06805284D
:101FF0000BD14B48006A40F004004949086208468A
:10200000006A40F0010008620AE04548006A20F0DA
:102010000100434908620846006A20F00400086293
:1020200000BFE068A0B1FFF7ADFA054609E0FFF791
:10203000A9FA401B41F28831884202D9032077E691
:1020400022E03748006A00F002000028EFD012E0DA
:10205000FFF798FA054608E0FFF794FA401B41F2B3
:102060008831884201D9032062E62D48006A00F0D9
:1020700002000028F0D1012F05D12948C06920F0C5
:1020800080502749C86100BFE069C8B32448406850
:1020900000F00C00082860D0E069022848D1002038
:1020A00020490866FFF76EFA054606E0FFF76AFA70
:1020B000401B022801D903203AE61948006800F0C5
:1020C00000700028F2D1206AB0F5803F07D1144893
:1020D000406820F40030A168084311494860D4E901
:1020E000080108430E49496821F4741108430C495A
:1020F000486001200B490866FFF744FA054607E0EF
:102100003DE0FFF73FFA401B022801D903200FE60C
:102110000348006800F000700028F2D02FE00000B3
:102120000010024000004242800442420070004021
:10213000002014490866FFF725FA054606E0FFF778
:1021400021FA401B022801D90320F1E50E4800685E
:1021500000F000700028F2D111E0E069012800D100
:10216000E6E50948466806F48031206A814204D1D8
:1021700006F47011606A814201D00120D8E5002088
:10218000D6E50000000042420010024070B504464F
:102190002546681EB0F1807F01D301200FE0681E44
:1021A0004FF0E02148610F214FF0FF3001F0C2FAFB
:1021B00000204FF0E021886107200861002070BDF9
:1021C0007047704730B502460B4600BF92F83C009E
:1021D000012801D1022030BD012082F83C0000BF5F
:1021E000022082F83D00106844681068816824F07D
:1021F00070041868044310684460144D1068A842C5
:1022000013D0134D1068A8420FD01068B0F1804F62
:102210000BD0104D1068A84207D00F4D1068A8428F
:1022200003D00E4D1068A84205D121F080015868F6
:10223000014310688160012082F83D0000BF00204A
:1022400082F83C0000BF00BFC5E70000002C014041
:10225000003401400004004000080040000C004031
:1022600010B504460CB9012010BD94F83D0028B902
:10227000002084F83C00204600F026F8022084F874
:102280003D00211D206800F0E1FF012084F8460098
:1022900000BF84F83E0001213F2001554020015538
:1022A0004120015500BF00BF012084F842004320B7
:1022B0000155442001554520015500BF012084F8F7
:1022C0003D000020D0E7000010B586B00446002095
:1022D00002900390049005902068B0F1804F2CD1BB
:1022E00000BF2D48C06940F001002B49C861084675
:1022F000C06900F00100019000BF00BF00BF0846A8
:10230000806940F0040088610846806900F004009C
:10231000019000BF00BF01200290002003900490B4
:1023200002A91E48FEF776FF002211461C20FFF787
:1023300083FB1C20FFF770FB2BE0194920688842C3
:102340000DD100BF1448C06940F002001249C861B5
:102350000846C06900F00200019000BF19E0114971
:102360002068884215D100BF0B48C06940F01000BA
:102370000949C8610846C06900F01000019000BF1B
:1023800000BF002211463620FFF756FB3620FFF72C
:1023900043FB06B010BD00000010024000080140E1
:1023A00000040040001000402DE9F04104460D46B5
:1023B00000BF94F83C00012802D10220BDE8F08162
:1023C000012084F83C0000BF022084F83D00206812
:1023D000866826F0770626F47F462068866028689F
:1023E000502833D00CDC202850D004DC00284BD0FF
:1023F000102851D149E0302849D040284CD139E04B
:1024000060282DD0702807D0B0F5805F03D0B0F5DC
:10241000005F41D10DE040E0D5E902136A68206811
:1024200000F073FF2068866846F0770620688660B3
:1024300033E0D5E902136A68206800F066FF20687F
:10244000806840F480402168886026E0EA68696816
:10245000206801F04BF85021206800F061FF1CE07B
:10246000EA686968206801F093F86021206800F04C
:1024700057FF12E0EA686968206801F037F84021E8
:10248000206800F04DFF08E000BF00BF00BF2968D2
:10249000206800F045FF00E000BF00BF012084F885
:1024A0003D0000BF002084F83C0000BF00BF85E76E
:1024B00010B50446207F01284BD12648007868B922
:1024C0000021204600F057FB2349086001202149E4
:1024D000087001022148FFF745F831E01D480078F7
:1024E00070B30021204600F046FB1D4908600846F5
:1024F000006819490968884207D9194800681649CF
:102500000968401A1749086013E015480068124925
:10251000096888420BD21048006849F64041081A01
:102520000F4909680844401C0E49086001E0FDF7A6
:102530001FFF0C4800680C4908600020054908701E
:102540004FF480710548FFF70DF807480068074908
:10255000086010BD1C0000200C0000200008014095
:1025600010000020140000201800002008000020A7
:102570002DE9F04104460D46164600BF94F83C0094
:10258000012802D10220BDE8F081012084F83C003E
:1025900000BF96B9EB68D5E90012206800F0BAFFD9
:1025A0002068806920F00C002168886120688069BB
:1025B000A9680843216888613DE0042E13D1EB68C7
:1025C000D5E90012206800F0F7FF2068806920F448
:1025D00040602168886120688069A96840EA01201C
:1025E0002168886127E0082E12D1EB68D5E9001236
:1025F000206800F0FEFF2068C06920F00C00216810
:10260000C8612068C069A96808432168C86112E0F0
:10261000EB68D5E90012206801F007F82068C0696E
:1026200020F440602168C8612068C069A96840EA58
:1026300001202168C86100BF002084F83C0000BF71
:1026400000BFA0E710B504460CB9012010BD94F8F6
:102650003D0028B9002084F83C00204600F025F811
:10266000022084F83D00211D206800F0EFFD0120CC
:1026700084F8460000BF84F83E0001213F20015548
:10268000402001554120015500BF00BF012084F8C2
:10269000420043200155442001554520015500BF0B
:1026A000012084F83D000020D0E770472DE9F0417B
:1026B00004460D4615B994F83E000BE0042D02D1F6
:1026C0003F20005D06E0082D02D14020005D01E0C2
:1026D0004120005D074615B994F842000BE0042D37
:1026E00002D14320005D06E0082D02D14420005DA8
:1026F00001E04520005D8046012F02D1B8F1010FB5
:1027000002D00120BDE8F0811DB9022084F83E000E
:102710000EE0042D03D102213F20015508E0082DD1
:1027200003D102214020015502E002214120015540
:102730001DB9022084F842000EE0042D03D10221CD
:102740004320015508E0082D03D102214420015502
:1027500002E002214520015535B1042D0BD0082D92
:1027600010D00C2D1CD114E02068C06840F002008D
:102770002168C86015E02068C06840F00400216846
:10278000C8600EE02068C06840F008002168C8609A
:1027900007E02068C06840F010002168C86000E0D1
:1027A00000BF00BF01222946206800F09DFD1649A8
:1027B0002068884213D01549206888420FD02068CD
:1027C000B0F1804F0BD012492068884207D01149E0
:1027D0002068884203D01049206888420CD12068C4
:1027E000806800F00706062E0CD02068006840F0D4
:1027F00001002168086005E02068006840F00100E1
:102800002168086000207DE7002C01400034014071
:102810000004004000080040000C004010B50446D1
:1028200020680069C0F34000D8B12068C068C0F3D8
:102830004000B0B16FF002002168086101202077EC
:102840002068806900F0030018B12046FFF730FED1
:1028500005E0204600F0DAF8204600F08AF9002072
:10286000207720680069C0F38000D8B12068C06874
:10287000C0F38000B0B16FF004002168086102204D
:1028800020772068806900F4407018B12046FFF777
:102890000FFE05E0204600F0B9F8204600F069F987
:1028A0000020207720680069C0F3C000D8B12068FC
:1028B000C068C0F3C000B0B16FF0080021680861C3
:1028C000042020772068C06900F0030018B120467A
:1028D000FFF7EEFD05E0204600F098F8204600F0F6
:1028E00048F90020207720680069C0F30010D8B1B3
:1028F0002068C068C0F30010B0B16FF0100021680C
:102900000861082020772068C06900F4407018B181
:102910002046FFF7CDFD05E0204600F077F8204681
:1029200000F027F9002020772068006900F00100FE
:1029300058B12068C06800F0010030B16FF00100AC
:1029400021680861204600F015F920680069C0F38D
:10295000C01058B12068C068C0F3C01030B16FF02B
:102960008000216808612046FFF72AFC2068006982
:10297000C0F3801058B12068C068C0F3801030B137
:102980006FF0400021680861204600F00DF92068D2
:102990000069C0F3401058B12068C068C0F340100F
:1029A00030B16FF02000216808612046FFF709FC74
:1029B00010BD000010B586B00446002002900390C0
:1029C000049005900E492068884216D100BF0D483A
:1029D000806940F004000B4988610846806900F076
:1029E0000400019000BF00BF40200290022003902D
:1029F000059002A90448FEF70DFC06B010BD0000CA
:102A0000000400400010024000080140704770B50B
:102A100004460D46164600BF94F83C00012801D13B
:102A2000022070BD012084F83C0000BF36B1042EA6
:102A30001BD0082E31D00C2E5ED145E029462068EF
:102A400000F078FC2068806940F008002168886107
:102A50002068806920F0040021688861206880690E
:102A6000296908432168886147E02946206800F009
:102A700099FC2068806940F40060216888612068C2
:102A8000806920F4806021688861206880692969F4
:102A900040EA0120216888612FE02946206800F083
:102AA000BFFC2068C06940F008002168C861206848
:102AB000C06920F004002168C8612068C0692969E4
:102AC00008432168C86118E02946206800F0E4FC4A
:102AD0002068C06940F400602168C8612068C0694E
:102AE00020F480602168C8612068C069296940EAD3
:102AF00001202168C86100E000BF00BF00BF0020C6
:102B000084F83C0000BF00BF8BE710B504460CB949
:102B1000012010BD94F83D0028B9002084F83C0045
:102B2000204600F025F8022084F83D00211D206891
:102B300000F08CFB012084F8460000BF84F83E00C2
:102B400001213F200155402001554120015500BF82
:102B500000BF012084F84200432001554420015564
:102B60004520015500BF012084F83D000020D0E73A
:102B70007047704770470246002031B1042907D0E2
:102B8000082908D00C290CD108E01368586B09E01B
:102B90001368986B06E01368D86B03E01368186C31
:102BA00000E000BF00BF7047704700BFFEE701466E
:102BB00008684069C0F38020B0B16FF480600A6893
:102BC000506100200863202081F83D00002081F83A
:102BD0003E00086C40F00400086400BF002081F84B
:102BE0003C0000BF012070470020FCE72DE9F843BE
:102BF0000446884615469946DDE90867206800685E
:102C000040F4807021680860334600224FF00111C3
:102C10002046009700F088F860B12068006800F452
:102C20008070B0F5807F02D14FF4007020640320E3
:102C3000BDE8F88308F0FE00216808613B46324693
:102C40002149204600F0B3F808B10120F0E700BFA9
:102C50000020009020684069009020688069009002
:102C600000BF00BF3A463146204600F002F950B19D
:102C7000206C042805D12068006840F400702168A9
:102C800008600120D4E7B9F1010F03D1E8B221684F
:102C9000086117E0C5F30720216808613A4631460C
:102CA000204600F0E6F850B1206C042805D12068D9
:102CB000006840F40070216808600120B8E7E8B2BD
:102CC000216808610020B3E70200010070B50446E6
:102CD0000D46164620E02046FFF769FF08B10120A7
:102CE00070BD681CC0B1FEF74DFC801BA84200D827
:102CF00095B900202063202084F83D00002084F84E
:102D00003E00206C40F02000206400BF002084F8CA
:102D10003C0000BF0120E3E720684069C0F3800069
:102D20000028D8D00020DBE72DE9F04104460D460D
:102D300017461E46DDF818801CE0701CD0B1FEF767
:102D400021FCA0EB0800B04200D89EB9002020630F
:102D5000202084F83D00002084F83E00206C40F0E4
:102D60002000206400BF002084F83C0000BF012048
:102D7000BDE8F081C5F3074001280AD12068406909
:102D8000A9B20840A9B2884201D101200BE000207D
:102D900009E020688069A9B20840A9B2884201D13F
:102DA000012000E00020B842C7D00020E0E72DE974
:102DB000F04104460D4616461F463DE02068406936
:102DC000C0F38020E8B12068006840F400702168FA
:102DD00008606FF480602168486100202063202033
:102DE00084F83D00002084F83E00206C40F0040090
:102DF000206400BF002084F83C0000BF0120BDE833
:102E0000F081701CC0B1FEF7BDFBC01BB04200D802
:102E100096B900202063202084F83D00002084F82B
:102E20003E00206C40F02000206400BF002084F8A9
:102E30003C0000BF0120E2E7C5F3074001280AD1AA
:102E400020684069A9B20840A9B2884201D1012096
:102E50000BE0002009E020688069A9B20840A9B20F
:102E6000884201D1012000E000200028A6D00020E7
:102E7000C5E770B504460D46164620E02046FFF72C
:102E800096FE08B1012070BD681CC0B1FEF77AFB48
:102E9000801BA84200D895B900202063202084F828
:102EA0003D00002084F83E00206C40F020002064AB
:102EB00000BF002084F83C0000BF0120E3E7206849
:102EC0004069C0F3C0100028D8D00020DBE7000024
:102ED00000B585B00020019002900390049000BFDF
:102EE0003748806940F0200035498861084680698C
:102EF00000F02000009000BF00BF00BF08468069BE
:102F000040F0100088610846806900F010000090D1
:102F100000BF00BF00BF0846806940F00400886120
:102F20000846806900F00400009000BF00BF00BFA9
:102F30000846806940F0080088610846806900F012
:102F40000800009000BF00BF002241F21F011D4891
:102F5000FEF712FB00224FF480711B48FEF70CFBBA
:102F600041F21F00019001200290002003900220F6
:102F7000049001A91348FEF74DF94FF4F070019049
:102F800000200290039001A90E48FEF743F94FF488
:102F90008070019001200290002003900220049094
:102FA00001A90948FEF736F94FF40070019000209E
:102FB0000290039001A90448FEF72CF905B000BD6A
:102FC00000100240001001400008014010B50B48FD
:102FD0000B4908600B484860002109488160C160C6
:102FE0004FF480410161002141618161C161016251
:102FF000FEF7CEFA08B1FDF7BBF910BD0054004052
:103000001C010020A086010000B58BB000200790B5
:10301000089009900A900590069001900290039004
:1030200004904FF080401F49086040F69F70486050
:1030300000211C48816049F63F41C16000210161C7
:103040008161FFF70DF908B1FDF792F94FF4805057
:10305000079007A91348FFF7A7F908B1FDF788F90A
:103060001048FFF7EFFA08B1FDF782F9002005904C
:10307000069005A90B48FFF7A5F808B1FDF778F908
:103080000020019001200290002003900490002273
:1030900001A90448FFF76CFA08B1FDF769F90BB014
:1030A00000BD00007001002000B58DB00020099027
:1030B0000A900B900C90079008901C216846FDF731
:1030C0006CF82048204908604F20486000211E48C5
:1030D000816040F2E731C160002101618161FFF749
:1030E000BFF808B1FDF744F94FF48050099009A9E1
:1030F0001548FFF759F908B1FDF73AF91248FFF7FB
:1031000004FD08B1FDF734F900200790089007A9E5
:103110000D48FFF757F808B1FDF72AF96020009035
:103120000020019002900490002269460648FFF7B3
:103130006EFC08B1FDF71CF90348FFF73BFC0DB02E
:1031400000BD000000040040B80100201CB50020B4
:10315000009001900E480F49086041F63F704860AA
:1031600000210C4881606321C16000218161FFF76B
:1031700077F808B1FDF7FCF800200090019069464F
:103180000448FFF71FF808B1FDF7F2F81CBD000076
:10319000001000400002002000BFFEE770477047AB
:1031A00008B508490968C9084FF47A72B1FBF2F111
:1031B0004143009100BF00BF00994A1E00920029C0
:1031C000F9D108BD34000020704710B5FEF7B4FBFC
:1031D00010BD00B58FB0282105A8FCF7DEFF142133
:1031E0006846FCF7DAFF02200590012009901020C4
:1031F0000A9002200C9000210D910E9105A8FEF777
:1032000093FD08B1FDF7B4F80F2000900220019063
:10321000002002900390049000216846FEF75EFCB7
:1032200008B1FDF7A5F80FB000BD704710B5024812
:10323000FFF7F4FA10BD00007001002010B502483D
:10324000FFF7ECFA10BD00000002002010B5026884
:10325000204B98420ED0204B98420BD0B0F1804FBB
:1032600008D01E4B984205D01D4B984202D01D4BF2
:10327000984203D122F070024B681A43154B9842D2
:103280000ED0154B98420BD0B0F1804F08D0134BA5
:10329000984205D0124B984202D0124B984203D16B
:1032A00022F44072CB681A4322F080034C6943EA4F
:1032B000040202608B68C3620B688362054B98420C
:1032C00002D0054B984201D10B690363012343618E
:1032D00010BD0000002C01400034014000040040FB
:1032E00000080040000C004030B501F01F0501242B
:1032F00004FA05F3046A9C430462046A01F01F05A2
:1033000002FA05F52C43046230BD30B50C468168E5
:1033100021F47F4142EA032525432943816030BDE2
:103320000A46816821F0700142F007031943816069
:103330007047000030B5056A25F001050562026A94
:103340004368846924F0700424F003040D682C435E
:1033500022F002028D682A43104DA84200D103E0FA
:103360000F4DA84206D100BF22F00802CD682A43C3
:1033700022F00402094DA84202D0094DA84207D10B
:1033800023F4807323F400734D692B438D692B4321
:10339000436084614D684563026230BD002C01408A
:1033A0000034014030B5056A25F010050562026A57
:1033B0004368846924F4E04424F440740D6844EACA
:1033C000052422F020028D6842EA0512124DA8421F
:1033D00000D103E0114DA84207D100BF22F08002C6
:1033E000CD6842EA051222F040020B4DA84202D0FD
:1033F0000A4DA84209D123F4806323F400634D6988
:1034000043EA85038D6943EA8503436084614D681F
:103410008563026230BD0000002C01400034014091
:1034200030B5056A25F480750562026A4368C4698F
:1034300024F0700424F003040D682C4322F400727D
:103440008D6842EA0522124DA84200D103E0114DD9
:10345000A84207D100BF22F40062CD6842EA0522EB
:1034600022F480620A4DA84202D00A4DA84209D136
:1034700023F4805323F400534D6943EA05138D6907
:1034800043EA05134360C4614D68C563026230BD01
:10349000002C01400034014030B5056A25F4805508
:1034A0000562036A4468C26922F4E04222F4407271
:1034B0000D6842EA052223F400538D6843EA053380
:1034C000084DA84202D0084DA84204D124F48044FB
:1034D0004D6944EA85144460C2614D680564036225
:1034E00030BD0000002C01400034014030B50B46D7
:1034F0001446026A056A25F001050562816921F01A
:10350000F00141EA041122F00A021A4381610262C9
:1035100030BD000070B50C461546066A26F001065F
:1035200006628169026A154EB0420ED0144EB04256
:103530000BD0B0F1804F08D0124EB04205D0124EE1
:10354000B04202D0114EB04201D1012600E0002667
:103550001EB121F00301294301E041F0010121F0F6
:10356000F001F02606EA0316314322F00A0204F0C5
:103570000A0632438161026270BD0000002C0140E6
:10358000003401400004004000080040000C0040EE
:1035900030B50B461446056A25F0100505628169B1
:1035A000026A21F4704141EA043122F0A00242EAA9
:1035B00003128161026230BD70B50C461546066A81
:1035C00026F0100606628169026A21F4407141EA20
:1035D000052121F470414FF4704606EA0336314369
:1035E00022F0A002A02606EA04163243816102629C
:1035F00070BD70B50C461546066A26F480760662E4
:10360000C169026A21F00301294321F0F001F0268B
:1036100006EA0316314322F400724FF4007606EAFC
:1036200004263243C161026270BD70B50C46154676
:10363000066A26F480560662C169026A21F4407166
:1036400041EA052121F470414FF4704606EA033641
:10365000314322F400524FF4005606EA0436324356
:10366000C161026270BD00BFFEE700003EB50446C6
:10367000012000F0E3FB224615A1684600F03EF869
:103680000221084600F05AFC0023124806C812A086
:1036900000F0EAFC1721022000F050FC0023134840
:1036A00006C813A000F0E0FC0023104806C86846D6
:1036B00000F0DAFC2621652000F040FC01230548DB
:1036C00006C80DA000F0D0FC00F03EFC3EBD00009E
:1036D0002564000038000020536861726966205537
:1036E0006E6976657273697479000000400000208D
:1036F00053706565643A000052504D000FB4084B9A
:1037000010B504A902AA039800F03CF8044602A9E7
:10371000002000F0E1F8204610BC5DF814FB00002A
:10372000D938000802480068C0F302207047000042
:103730000CED00E010B5002804DB0A07130E054A63
:10374000135406E00A07140E034A00F00F031B1F70
:10375000D45410BD00E400E018ED00E000487047CC
:10376000B800002002E008C8121F08C1002AFAD1E0
:1037700070477047002001E001C1121F002AFBD1F1
:10378000704700002DE9FF4F89B09B460446002595
:1037900006E025280BD05A460B999047641C6D1CF7
:1037A00020780028F5D10DB02846BDE8F08F00271D
:1037B000B8460122474900E0074314F8013F203B87
:1037C00002FA03F00842F7D120782E2819D114F814
:1037D000010F47F004072A280ED06FF02F0220783F
:1037E000A0F1300109290CD808EB880102EB410156
:1037F00000EB0108641CF2E70A98641C50F8048B83
:103800000A9020780028CED0642808D0692806D0F5
:1038100075281ED05A460B9990476D1C58E00A999E
:103820004FF00A0901C90A91002802DA40422D210D
:1038300002E0390504D52B218DF82010012103E089
:10384000F90704D02021F7E78A4608AE0DE00021F1
:10385000FAE70A994FF00A0901C90A91F7E74946C0
:10386000FCF7C1FC303106F8011D0028F7D1ADEBA3
:10387000060000F12009780701D44FF00108C8457F
:1038800002DDA8EB090000E000208046002706E0EA
:1038900008A85A46C05D0B9990476D1C7F1C574580
:1038A000F6DB04E030205A460B9990476D1CB8F1C6
:1038B0000001A8F10108F5DC05E016F8010B5A46F5
:1038C0000B9990476D1CB9F10001A9F10109F4DCD5
:1038D000641C65E7092801000A68531C0B6010701E
:1038E000704710B504462046FCF770FC80B210BD4E
:1038F00000B58FB014480190029003900490059099
:1039000006900790089009908015ADF82800802057
:10391000ADF82A004020ADF82C002020ADF82E0094
:103920000120ADF830000220ADF832000420ADF8DF
:1039300034000820ADF836001020ADF8380001A89A
:1039400000F018F80FB000BD001001400246002141
:1039500007E0505C18B1054850F821007047481C3A
:10396000C1B21429F5DB02A0F8E7000068000020CE
:103970005A00000010B50446382221460E48FCF7D4
:10398000F3FBA18D00222069FDF7F6FDE18D0022F9
:103990006069FDF7F1FD218E0022A069FDF7ECFDC5
:1039A000618E0022E069FDF7E7FDA18E0022206A0A
:1039B000FDF7E2FD10BD00004806002010B50446EA
:1039C000002000F0D7F86A4A918C1068FDF7C2FD1C
:1039D00008B1012000E000202070654AD18C5068B9
:1039E000FDF7B8FD08B1012000E000206070604ADA
:1039F000118D9068FDF7AEFD08B1012000E00020B8
:103A0000A0705B4A518DD068FDF7A4FD08B101207C
:103A100000E00020E070012000F0ACF8544A918CE6
:103A20001068FDF797FD08B1012000E0002020712B
:103A30004F4AD18C5068FDF78DFD08B1012000E0A0
:103A4000002060714A4A118D9068FDF783FD08B12E
:103A5000012000E00020A071454A518DD068FDF79B
:103A600079FD08B1012000E00020E071022000F0A3
:103A700081F83F4A918C1068FDF76CFD08B1012078
:103A800000E0002020723A4AD18C5068FDF762FDB8
:103A900008B1012000E000206072354A118D906865
:103AA000FDF758FD08B1012000E00020A072304A67
:103AB000518DD068FDF74EFD08B1012000E00020D7
:103AC000E072032000F056F8294A918C1068FDF747
:103AD00041FD08B1012000E000202073244AD18C70
:103AE0005068FDF737FD08B1012000E00020607349
:103AF0001F4A118D9068FDF72DFD08B1012000E0EF
:103B00000020A0731A4A518DD068FDF723FD08B13B
:103B1000012000E00020E073042000F02BF8144A9C
:103B2000918C1068FDF716FD08B1012000E000201F
:103B300020740F4AD18C5068FDF70CFD08B10120AC
:103B400000E0002060740A4A118D9068FDF702FDC4
:103B500008B1012000E00020A074054A518DD06812
:103B6000FDF7F8FC08B1012000E00020E07410BD72
:103B70004806002010B50446052C22D2DFE804F0E8
:103B8000032241607F004E4A918D10690122FDF7AA
:103B9000F3FC4B4AD18D50690022FDF7EDFC484AF9
:103BA000118E90690022FDF7E7FC454A518ED069DD
:103BB0000022FDF7E1FC424A918E106A0022FDF7D7
:103BC000DBFC7BE03E4AD18D50690122FDF7D4FC3D
:103BD0003B4A918D10690022FDF7CEFC384A118EC8
:103BE00090690022FDF7C8FC354A518ED069002249
:103BF000FDF7C2FC324A918E106A0022FDF7BCFC30
:103C00005CE02F4A118E90690122FDF7B5FC2C4A29
:103C1000D18D50690022FDF7AFFC294A918D1069C2
:103C20000022FDF7A9FC264A518ED0690022FDF73B
:103C3000A3FC234A918E106A0022FDF79DFC3DE013
:103C40001F4A518ED0690122FDF796FC1C4AD18D86
:103C500050690022FDF790FC194A118E90690022EC
:103C6000FDF78AFC164A918D10690022FDF784FC4D
:103C7000134A918E106A0022FDF77EFC1EE0104A66
:103C8000918E106A0122FDF777FC0D4AD18D5069A3
:103C90000022FDF771FC0A4A118E90690022FDF79F
:103CA0006BFC074A518ED0690022FDF765FC044A7F
:103CB000918D10690022FDF75FFC00BF00BF10BDB1
:103CC0004806002086B02FA02F4948602FA12E481B
:103CD00001610C30FCF72CFE2B481830FCF7C4FBBC
:103CE0002948FCF74FFD28483030FDF7A9F9264850
:103CF0003C30FCF787FF24484830FDF7E3F82248C2
:103D00005430FCF7BFFCFDF723FEFFF762FAFFF724
:103D1000DFF8FFF75BF9FFF777F9FFF717FAFFF71F
:103D2000C3F900F0A5F8FFF7E3FD4FF4A270FFF729
:103D30009DFC00211648FEF7B9FC00211548FEF74E
:103D40001AFFFCF7F9FE104A0C3207CA03AB07C38F
:103D500001208DF8160013E06420FDF747FA4FF4B8
:103D600080510D48FDF7FEFB074A03A96846FCF7A2
:103D700007FF9DE8070003AB07C36420FDF736FA91
:103D8000EAE7000048000000BC00002042000000FC
:103D900070010020B801002000100140F0B503467A
:103DA0001446802B01DA402900DBF0BD2148007960
:103DB00020B10CB9012000E000200446012C1CD1E8
:103DC000CD1701EB5575ED1003EBC5151A4E755D5A
:103DD0000A46CE1701EB5676F610A1EBC607012670
:103DE000BE403543EEB20846CD1701EB5575ED10D8
:103DF00003EBC515104F7E551AE0CD1701EB557535
:103E0000ED1003EBC5150C4E755D0A46CE1701EBA0
:103E10005676F610A1EBC6070126BE40B54308460C
:103E2000CE1701EB5676F61003EBC616024FBD55C2
:103E300000BFBAE7500000204802002001460020E1
:103E400006E009B9002200E0FF22034B1A54401C8F
:103E5000B0F5806FF5D37047480200200349097818
:103E600001700249897841707047000050000020BD
:103E700010B56420FDF7BAF9AE2000F0E3F8202079
:103E800000F0E0F8102000F0DDF8B02000F0DAF8E3
:103E9000C82000F0D7F8002000F0D4F8102000F07F
:103EA000D1F8402000F0CEF8812000F0CBF8FF20C0
:103EB00000F0C8F8A12000F0C5F8A62000F0C2F874
:103EC000A82000F0BFF83F2000F0BCF8A42000F0CC
:103ED000B9F8D32000F0B6F8002000F0B3F8D520F0
:103EE00000F0B0F8F02000F0ADF8D92000F0AAF80A
:103EF000222000F0A7F8DA2000F0A4F8122000F049
:103F0000A1F8DB2000F09EF8202000F09BF88D2027
:103F100000F098F8142000F095F8AF2000F092F827
:103F20000020FFF78BFF00F00FF800200249088007
:103F300048800120487110BD50000020014A1080C7
:103F400051807047500000203EB500241AE004F173
:103F5000B001C8B200F076F8002000F073F810202D
:103F600000F070F864218022084802FB040001235D
:103F7000CDE901210090402278210548FDF7F0FBB2
:103F8000601CC4B2082CE2DB3EBD000048020020E9
:103F90001C0100202DE9FF4107461E4628480088E5
:103FA0009DF804100844802806DA254840889DF8CA
:103FB00005100844402803DB002004B0BDE8F08170
:103FC000002430E0A7F120009DF8051000FB01401F
:103FD000029931F81080002520E008FA05F000F47D
:103FE000004058B1164A92782244D1B2144A12784D
:103FF0002A44D0B23246FFF7D1FE0EE00EB90123BB
:1040000000E000231A460E4B9B782344D9B20C4B98
:104010001B782B44D8B2FFF7C1FE6D1C9DF804003D
:10402000A842DAD8641C9DF80500A042CAD804480A
:1040300000889DF804100844014908803846BCE710
:104040005000002001B584B00A20012104AA0B46CB
:10405000CDE900210290002278210248FDF780FB83
:1040600005B000BD1C0100203FB504461D460CE014
:1040700020782B46DDE90112FFF78CFF217888427A
:1040800002D0207804B030BD641C20780028EFD125
:104090002078F7E7000000000000000001020304A0
:1040A00006070809000000000102030400000000E8
:1040B0000000000000000000000000000000000000
:1040C0000010001000100010001000100000001080
:1040D0000000000000280028002800000000000068
:1040E000000000000000000000240024007C0024E8
:1040F0000048007C004800480000000000380054E0
:104100000050003800140054005400380010000023
:10411000002000540058003000280054001400080B
:1041200000000000001000280028001000340048A3
:1041300000480034000000000010001000100000D3
:104140000000000000000000000000000008001057
:104150000020002000200020002000200010000887
:1041600000200010000800080008000800080008EF
:10417000001000200010003800100028000000008F
:10418000000000000000000000000000001000100F
:10419000007C001000100000000000000000000083
:1041A00000000000000000000000001000100010DF
:1041B00000000000000000000000003800000000C7
:1041C00000000000000000000000000000000000EF
:1041D000000000100000000000080008001000109F
:1041E00000100010002000200000000000380044F3
:1041F0000044005400440044004400380000000023
:1042000000100030005000100010001000100010CE
:1042100000000000003800440044000400080010C2
:104220000020007C0000000000380044000400185A
:1042300000040004004400380000000000080018DA
:10424000002800280048007C00080008000000004A
:10425000007C004000400078000400040044003866
:104260000000000000380044004000780044004492
:104270000044003800000000007C0004000800102A
:104280000010002000200020000000000038004442
:10429000004400380044004400440038000000009E
:1042A0000038004400440044003C0004004400384E
:1042B00000000000000000000010000000000000EE
:1042C00000000010000000000000000000000010CE
:1042D00000000000000000100010001000000000AE
:1042E000000C003000400030000C00000000000016
:1042F000000000000000007C0000007C00000000C6
:104300000000000000000000006000180004001819
:1043100000600000000000000038004400040008B5
:1043200000100010000000100000000000380044E1
:10433000004C0054005C00400040003800000000C9
:1043400000100028002800280028007C00440044B9
:10435000000000000078004400440078004400445D
:104360000044007800000000003800440040004095
:104370000040004000440038000000000070004889
:104380000044004400440044004800700000000065
:10439000007C00400040007C004000400040007C69
:1043A00000000000007C0040004000780040004019
:1043B0000040004000000000003800440040004081
:1043C000005C004400440038000000000044004449
:1043D0000044007C0044004400440044000000000D
:1043E00000380010001000100010001000100038FD
:1043F00000000000000400040004000400040004A5
:1044000000440038000000000044004800500060F4
:1044100000500048004800440000000000400040F8
:1044200000400040004000400040007C00000000D0
:104430000044006C006C00540044004400440044FC
:104440000000000000440064006400540054004C6C
:10445000004C0044000000000038004400440044C8
:10446000004400440044003800000000007800448C
:10447000004400440078004000400040000000007C
:104480000038004400440044004400440054003814
:104490000004000000780044004400440078004814
:1044A0000048004400000000003800440040003094
:1044B000000800040044003800000000007C0010E8
:1044C000001000100010001000100010000000008C
:1044D00000440044004400440044004400440038C8
:1044E0000000000000440044004400280028002888
:1044F000001000100000000000440044005400546C
:104500000054006C0028002800000000004400282F
:1045100000280010001000280028004400000000BF
:104520000044004400280028001000100010001073
:1045300000000000007C00040008001000100020B3
:104540000040007C00000000001800100010001067
:1045500000100010001000100010001800200020B3
:1045600000100010001000100008000800000000FB
:10457000003000100010001000100010001000109B
:104580000010003000100028002800440000000047
:10459000000000000000000000000000000000001B
:1045A0000000000000000000000000FE00200010DD
:1045B00000000000000000000000000000000000FB
:1045C0000000000000380044003C0044004C00346F
:1045D0000000000000400040005800640044004417
:1045E0000064005800000000000000000038004493
:1045F00000400040004400380000000000040004B7
:104600000034004C00440044004C00340000000022
:104610000000000000380044007C004000440038E6
:1046200000000000000C0010007C001000100010C2
:104630000010001000000000000000000034004CDA
:1046400000440044004C0034000400780040004066
:10465000005800640044004400440044000000008E
:10466000001000000070001000100010001000107A
:10467000000000000010000000700010001000108A
:1046800000100010001000E0004000400048005002
:10469000006000500048004400000000007000105E
:1046A00000100010001000100010001000000000AA
:1046B00000000000007800540054005400540054DE
:1046C00000000000000000000058006400440044A6
:1046D00000440044000000000000000000380044D6
:1046E00000440044004400380000000000000000C6
:1046F000005800640044004400640058004000403A
:10470000000000000034004C00440044004C003421
:104710000004000400000000005800640040004055
:10472000004000400000000000000000003800448D
:104730000030000800440038000000000020002085
:104740000078002000200020002000180000000059
:10475000000000000044004400440044004C0034C9
:104760000000000000000000004400440028002871
:104770000028001000000000000000000054005459
:104780000054006C00280028000000000000000019
:104790000044002800100010002800440000000021
:1047A0000000000000440044002800280010001011
:1047B0000010006000000000007C000800100020D5
:1047C0000040007C000000000018001000100010E5
:1047D0000020002000100010001000180010001031
:1047E0000010001000100010001000100010001049
:1047F0000030001000100010000800080010001029
:10480000001000300000000000000074004C0000A8
:104810000000000000000000000000000000000098
:104820000000000000000000000000000000000088
:104830000000000000000000000000000000000C6C
:10484000000C000C000C000C000C000C000C000C08
:10485000000C000C0000000C000C00000000000028
:104860000000001B001B001B001B001B00000000C1
:104870000000000000000000000000000000000038
:104880000000000000008019801980198019C07F85
:10489000C07F80190033C07FC07F003300330033F6
:1048A00000330000000000000000001E003F807583
:1048B00080650074003C001E0007800580658065EF
:1048C0008075003F001E000400040000000000701E
:1048D00000D840D8C0D880D900730006000C801BD7
:1048E000C036C066C046C00680030000000000005D
:1048F0000000001E003F003300330033001E000C98
:10490000C03CC066806380618063C03E801C000044
:10491000000000000000000C000C000C000C000C5B
:104920000000000000000000000000000000000087
:1049300000000000000000008000000100030006ED
:1049400000060004000C000C000C000C000C000C15
:104950000004000600060003000180000020001093
:104960000018000C000C00040006000600060006FB
:10497000000600060004000C000C001800100020C7
:104980000000000C002D003F001E0033000000005E
:104990000000000000000000000000000000000017
:1049A00000000000000000000000000C000C000CE3
:1049B000000CC0FFC0FF000C000C000C000C00003D
:1049C00000000000000000000000000000000000E7
:1049D00000000000000000000000000000000000D7
:1049E0000000000C000C000400040008000000009F
:1049F0000000000000000000000000000000001E99
:104A0000001E000000000000000000000000000088
:104A10000000000000000000000000000000000096
:104A200000000000000000000000000C000C00006E
:104A30000000000000000003000300030006000661
:104A400000060006000C000C000C000C00180018FA
:104A500000180000000000000000001E003F0033AE
:104A6000806180618061806D806D80618061806126
:104A70000033003F001E00000000000000000006A0
:104A8000000E001E00360026000600060006000686
:104A900000060006000600060006000000000000F8
:104AA0000000001E003F8073806180618001000370
:104AB0000006000C001800300060807F807F00003E
:104AC000000000000000001C003E006300630003C3
:104AD000000E000E00038001800180618073003FA2
:104AE000001E00000000000000000006000E000E86
:104AF000001E001E0016003600360066807F807F94
:104B00000006000600060000000000000000007F14
:104B1000007F006000600060006E007F80638001A5
:104B2000800180618073003F001E000000000000D3
:104B30000000001E003F803380610060006E007F37
:104B400080738061806180618033003F001E0000BF
:104B5000000000000000807F807F800100030003D0
:104B600000060006000C000C000C000800180018DD
:104B700000180000000000000000001E003F8063DD
:104B8000806180610021001E003F80618061806142
:104B90008061003F001E0000000000000000001EB9
:104BA000003F00738061806180618073803F801D61
:104BB000800180610073003F001E000000000000C3
:104BC00000000000000000000000000C000C0000CD
:104BD00000000000000000000000000C000C0000BD
:104BE00000000000000000000000000000000000C5
:104BF000000C000C00000000000000000000000C91
:104C0000000C000400040008000000000000000088
:104C100080008003000E003800600038000E800322
:104C20008000000000000000000000000000000004
:104C3000000000000000807F807F00000000807F77
:104C4000807F000000000000000000000000000065
:104C5000000000000000000000400070001C000781
:104C600080010007001C00700040000000000000F0
:104C7000000000000000001F803FC071C060C00045
:104C8000C00180030007000E000C000C0000000CA7
:104C9000000C0000000000000000001E003F8031FA
:104CA00080718063806F806D806D806F8067006031
:104CB0000032003E001C0000000000000000000E5A
:104CC000000E001B001B001B001B80318031803F49
:104CD000803F8031C060C060C06000000000000004
:104CE0000000007C007E0063006300630063007EC0
:104CF000007E0063806180618063007F007E000031
:104D0000000000000000001E003F80318061006054
:104D10000060006000600060006080618031003FE2
:104D2000001E0000000000000000007C007F006307
:104D300080638061806180618061806180610063E7
:104D40000063007E007C0000000000000000807F07
:104D5000807F0060006000600060007F007F006076
:104D6000006000600060807F807F00000000000025
:104D70000000807F807F0060006000600060007F36
:104D8000007F006000600060006000600060000064
:104D9000000000000000001E003F803180610060C4
:104DA0000060006080638063806180618031803F4B
:104DB000001E000000000000000080618061806132
:104DC000806180618061807F807F8061806180619F
:104DD0008061806180610000000000000000003FF1
:104DE000003F000C000C000C000C000C000C000C30
:104DF000000C000C000C003F003F00000000000011
:104E0000000080018001800180018001800180011B
:104E100080018001806180618073003F001E00007E
:104E2000000000000000C060806100630066006652
:104E3000006C0078007C0066006600638061806121
:104E4000C060000000000000000000600060006022
:104E50000060006000600060006000600060006052
:104E60000060807F807F0000000000000000C071B3
:104E7000C071C07BC07AC06AC06AC06EC064C060C6
:104E8000C060C060C060C060C06000000000000082
:104E9000000080718071807980798079806D806D6B
:104EA000806D8065806780678067806380630000B5
:104EB000000000000000001E003F003380618061A0
:104EC0008061806180618061806180610033003F2A
:104ED000001E0000000000000000007E007F8063D4
:104EE0008061806180618063007F007E006000607F
:104EF0000060006000600000000000000000001E74
:104F0000003F0033806180618061806180618061E9
:104F1000806580670033803F401E00000000000075
:104F20000000007E007F8063806180618063007F7D
:104F3000007E00660063006380618061C0600000E5
:104F4000000000000000000E001F803180310030A2
:104F50000038001E00078003806180618031003FBF
:104F6000001E0000000000000000C0FFC0FF000C99
:104F7000000C000C000C000C000C000C000C000CD1
:104F8000000C000C000C000000000000000080611C
:104F90008061806180618061806180618061806109
:104FA000806180618073003F001E000000000000EF
:104FB0000000C060C060C060803180318031001B63
:104FC000001B001B001B000E000E000E0004000062
:104FD000000000000000C0C0C0C0C0C0C0C0C0C051
:104FE000C0CC804C804C805E805280528073806147
:104FF00080610000000000000000C0C0806080618F
:105000000033003B001E000C000C001E001F003B84
:1050100080718061C0C00000000000000000C0C0BE
:105020008061806100330033001E001E000C000C04
:10503000000C000C000C000C000C00000000000034
:105040000000803F803F8001000300030006000C49
:10505000000C0018001800300060807F807F000086
:1050600000000000000F000F000C000C000C000CF2
:10507000000C000C000C000C000C000C000C000CD0
:10508000000C000C000F000F0000001800180018A2
:10509000000C000C000C000C0006000600060006C8
:1050A000000300030003000000000000001E001EBB
:1050B00000060006000600060006000600060006C0
:1050C000000600060006000600060006001E001E80
:1050D0000000000C000C001E001200330033806141
:1050E00080610000000000000000000000000000DF
:1050F00000000000000000000000000000000000B0
:10510000000000000000000000000000000000009F
:1051100000000000E0FF0000000000380018000C54
:10512000000000000000000000000000000000007F
:10513000000000000000000000000000000000006F
:10514000000000000000001F803F80618001801F80
:10515000803F80618063807FC038000000000000D5
:1051600000000060006000600060006E007F8073DF
:1051700080618061806180618073007F006E0000CB
:105180000000000000000000000000000000001E01
:10519000003F807380610060006080618073003F29
:1051A000001E00000000000000008001800180015E
:1051B0008001801D803F807380618061806180619B
:1051C0008073803F801D0000000000000000000090
:1051D000000000000000001E003F00738061807F1F
:1051E000807F00608071003F001E00000000000012
:1051F0000000C007C00F000C000C807F807F000CF7
:10520000000C000C000C000C000C000C000C00004A
:10521000000000000000000000000000801D803F32
:10522000807380618061806180618073803F801DB8
:1052300080018063007F003E00000060006000602D
:105240000060006F807F807180618061806180611B
:1052500080618061806100000000000000000006A5
:10526000000600000000003E003E000600060006AA
:105270000006000600060006000600000000000010
:105280000006000600000000003E003E000600068A
:10529000000600060006000600060006000600469E
:1052A000007E003C000000600060006000608061E3
:1052B00000630066006C007C007600630063806120
:1052C000C0600000000000000000003E003E00063C
:1052D000000600060006000600060006000600069E
:1052E00000060006000600000000000000000000AC
:1052F00000000000000080DDC0FFC0CEC0CCC0CCEC
:10530000C0CCC0CCC0CCC0CCC0CC000000000000E1
:1053100000000000000000000000006F807F80712E
:105320008061806180618061806180618061000056
:105330000000000000000000000000000000001E4F
:10534000003F807380618061806180618073003F75
:10535000001E00000000000000000000000000002F
:10536000006E007F807380618061806180618073E6
:10537000007F006E006000600060006000000000C0
:1053800000000000801D803F80738061806180612B
:1053900080618073803F801D8001800180018001D9
:1053A000000000000000000000000067803F00399E
:1053B000003000300030003000300030003000009D
:1053C0000000000000000000000000000000001EBF
:1053D000803F80610060007F803F80018061007FAE
:1053E000001E00000000000000000000000800187F
:1053F0000018007F007F001800180018001800181F
:105400000018801F800F0000000000000000000056
:105410000000000000008061806180618061806127
:10542000806180618063807F803D0000000000001B
:1054300000000000000000000000C06080318031EA
:105440008031001B001B001B000E000E0006000038
:10545000000000000000000000000000000080DDEF
:1054600080DD80DD00550055005500770077002273
:10547000002200000000000000000000000000000A
:105480000000806100330033001E000C000C001E81
:1054900000330033806100000000000000000000C5
:1054A0000000000080618061803100330033001B08
:1054B000001B001B000E000E000E001C007C007084
:1054C00000000000000000000000C07FC07F8001DD
:1054D00000030006000C00180030C07FC07F0000F1
:1054E000000000008003800700060006000600069A
:1054F0000006000E001C001C000E00060006000640
:10550000000600068007800300060006000600066D
:10551000000600060006000600060006000600065B
:105520000006000600060006000600060038003CE3
:10553000000C000C000C000C000C000E0007000713
:10554000000E000C000C000C000C000C003C00389D
:105550000000000000000000000000000000803893
:10556000807F0047000000000000000000000000F5
:10557000000000000000000000000000000000002B
:10558000000000000000000000000000000000001B
:10559000000000000000000000000000000000000B
:1055A0000000000000000000E003E003E003E0036F
:1055B000E003E003E003E003C003C003C001C00157
:1055C000C001C001C001000000000000E003E003D2
:1055D000E003000000000000000000003C1E3C1E34
:1055E0003C1E3C1E3C1E3C1E3C1E000000000000F9
:1055F00000000000000000000000000000000000AB
:10560000000000000000000000000000000000009A
:10561000CE01CE03DE039E039C039C07FF3FFF7F6A
:105620003807380F780F780F780EFFFFFFFFF01E56
:10563000F01CE01CE03CE03DE03900000000000010
:1056400000000000FC03FE0FEE1FE01EE01EE01E47
:10565000E01EE01FE00FE007F003FC01FE01FE0189
:10566000FE01FE01FE01FE01FE3DFC3FF00FE001E8
:10567000E001000000000000033E07F78FE78EE71F
:105680009EE3BCE3B8E7F8E7F0F7E03FC001FF03B3
:10569000FF07F307F30FF31EF33CF338F3787FF0C3
:1056A0003FE000000000000000000000E007F80FED
:1056B000780F781F781F781F780FF00FE00F801F8A
:1056C000C37FC3FBE7F3F7F1F7F0FFF07FF03EF89D
:1056D0007F7CFF3FEF1F0000000000000000000083
:1056E000E003E003E003E003E003C003C0010000C7
:1056F00000000000000000000000000000000000AA
:105700000000000000000000000000000000000099
:10571000000000003F007C00F001E001C003C00772
:1057200080078007800F000F000F000F000F000F91
:10573000000F800F80078007C007C003E001F00161
:105740007C003F000F000000007E001FC007C00368
:10575000E001F001F000F000F80078007800780037
:10576000780078007800F800F000F000F001E00127
:10577000C003C007001F007E00780000E003C003E4
:10578000C001CE39FF3F7F3F20037003F807780F39
:105790003C1F380600000000000000000000000070
:1057A00000000000000000000000000000000000F9
:1057B000000000000000000000000000C001C00167
:1057C000C001C001C001C001C001FFFFFFFFC00157
:1057D000C001C001C001C001C00100000000000004
:1057E00000000000000000000000000000000000B9
:1057F00000000000000000000000000000000000A9
:10580000000000000000E003E003E003E003E0012B
:10581000E001E001C0018003000000000000000082
:105820000000000000000000000000000000FE3F3B
:10583000FE3F00000000000000000000000000002B
:105840000000000000000000000000000000000058
:105850000000000000000000000000000000000048
:105860000000000000000000000000000000E00355
:10587000E003E003E003000000000000000000007F
:105880000F000F001E001E003C003C007800780056
:10589000F000F000E001E001C003C00380078007D2
:1058A000000F000F001E001E003C003C0078007836
:1058B00000F00000F007F80F7C1F3E3E1E3C1F7CEE
:1058C0001F7C0F780F780F780F780F780F780F788C
:1058D0001F7C1F7C1E3C3E3E7C1FF80FF007000023
:1058E0000000000000000000F000F007F03FF03F73
:1058F000F001F001F001F001F001F001F001F00120
:10590000F001F001F001F001F001F001F001FF3FC2
:10591000FF3F00000000000000000000E00FF83F23
:105920007C3C3C003E003E003E003C003C007C00D5
:10593000F800F001E003C0078007000F001E003EE2
:10594000003CFE3FFE3F00000000000000000000A1
:10595000F00FF81F7C1C3E003E003E003C003C0067
:10596000F800F00FF80F7C003E001E001E001E0025
:105970001E003E007C1CF81FE01F0000000000001D
:10598000000000007800F800F800F801F803F807BC
:10599000F807780F781E781E783C78787878FFFFC3
:1059A000FFFF780078007800780078007800000029
:1059B0000000000000000000FC1FFC1FFC1F001E78
:1059C000001E001E001E001EE01FF81FFC007C00D1
:1059D0003E003E001E003E003E003C007C1CF81FC6
:1059E000E01F00000000000000000000FC01FE07B6
:1059F0008E0F001F001E003E003C003CF83DFC3FA7
:105A00003E7F1F7E0F3C0F3C0F3C0F3C0F3E1F1E86
:105A10003E1FFC0FF003000000000000000000002B
:105A2000FF3FFF3FFF3F0F001E001E003C003800FD
:105A30007800F000F000E001E001C003C00380073F
:105A4000800F800F000F001F001F000000000000EB
:105A500000000000F807FC0F3E1F1E1E1E3E1E3EEB
:105A60001E1E3C1FF80FF007F80FFC1E3E3E1F3CA9
:105A70001F7C0F7C0F7C1F3C3E3FFC1FF00700008B
:105A80000000000000000000F007F80F7C1E3E3C04
:105A90001E3C1F7C1F7C1F7C1F7C1F3C3F3EFF1F4A
:105AA000EF071F001E001E003E003C00F838F03FCC
:105AB000E01F0000000000000000000000000000E7
:105AC0000000000000000000E003E003E003E0034A
:105AD0000000000000000000000000000000E003E3
